{
  "address": "0x491AAe62C2995768bB9a7cAaD3F3B3A768DA3AF4",
  "abi": [
    {
      "inputs": [
        {
          "internalType": "address",
          "name": "initialOwner",
          "type": "address"
        }
      ],
      "stateMutability": "nonpayable",
      "type": "constructor"
    },
    {
      "inputs": [
        {
          "internalType": "uint256",
          "name": "internalTokenId",
          "type": "uint256"
        }
      ],
      "name": "AlreadyAttempted",
      "type": "error"
    },
    {
      "inputs": [
        {
          "internalType": "address",
          "name": "sender",
          "type": "address"
        },
        {
          "internalType": "uint256",
          "name": "balance",
          "type": "uint256"
        },
        {
          "internalType": "uint256",
          "name": "needed",
          "type": "uint256"
        },
        {
          "internalType": "uint256",
          "name": "tokenId",
          "type": "uint256"
        }
      ],
      "name": "ERC1155InsufficientBalance",
      "type": "error"
    },
    {
      "inputs": [
        {
          "internalType": "address",
          "name": "approver",
          "type": "address"
        }
      ],
      "name": "ERC1155InvalidApprover",
      "type": "error"
    },
    {
      "inputs": [
        {
          "internalType": "uint256",
          "name": "idsLength",
          "type": "uint256"
        },
        {
          "internalType": "uint256",
          "name": "valuesLength",
          "type": "uint256"
        }
      ],
      "name": "ERC1155InvalidArrayLength",
      "type": "error"
    },
    {
      "inputs": [
        {
          "internalType": "address",
          "name": "operator",
          "type": "address"
        }
      ],
      "name": "ERC1155InvalidOperator",
      "type": "error"
    },
    {
      "inputs": [
        {
          "internalType": "address",
          "name": "receiver",
          "type": "address"
        }
      ],
      "name": "ERC1155InvalidReceiver",
      "type": "error"
    },
    {
      "inputs": [
        {
          "internalType": "address",
          "name": "sender",
          "type": "address"
        }
      ],
      "name": "ERC1155InvalidSender",
      "type": "error"
    },
    {
      "inputs": [
        {
          "internalType": "address",
          "name": "operator",
          "type": "address"
        },
        {
          "internalType": "address",
          "name": "owner",
          "type": "address"
        }
      ],
      "name": "ERC1155MissingApprovalForAll",
      "type": "error"
    },
    {
      "inputs": [
        {
          "internalType": "string",
          "name": "s",
          "type": "string"
        }
      ],
      "name": "FENCannotBeEmpty",
      "type": "error"
    },
    {
      "inputs": [
        {
          "internalType": "uint256",
          "name": "internalTokenId",
          "type": "uint256"
        },
        {
          "internalType": "uint256",
          "name": "metadata",
          "type": "uint256"
        }
      ],
      "name": "InvalidMetadata",
      "type": "error"
    },
    {
      "inputs": [
        {
          "internalType": "uint256",
          "name": "internalTokenId",
          "type": "uint256"
        }
      ],
      "name": "InvalidPuzzle",
      "type": "error"
    },
    {
      "inputs": [
        {
          "internalType": "uint256",
          "name": "amountSent",
          "type": "uint256"
        },
        {
          "internalType": "uint256",
          "name": "requiredAmount",
          "type": "uint256"
        }
      ],
      "name": "NotEnoughEtherSent",
      "type": "error"
    },
    {
      "inputs": [
        {
          "internalType": "address",
          "name": "owner",
          "type": "address"
        }
      ],
      "name": "OwnableInvalidOwner",
      "type": "error"
    },
    {
      "inputs": [
        {
          "internalType": "address",
          "name": "account",
          "type": "address"
        }
      ],
      "name": "OwnableUnauthorizedAccount",
      "type": "error"
    },
    {
      "inputs": [
        {
          "internalType": "uint256",
          "name": "internalTokenId",
          "type": "uint256"
        }
      ],
      "name": "PuzzleNotSolved",
      "type": "error"
    },
    {
      "inputs": [
        {
          "internalType": "bytes32",
          "name": "b",
          "type": "bytes32"
        }
      ],
      "name": "SolutionCannotBeEmpty",
      "type": "error"
    },
    {
      "inputs": [
        {
          "internalType": "uint256",
          "name": "tokenId",
          "type": "uint256"
        }
      ],
      "name": "TokenDoesNotExist",
      "type": "error"
    },
    {
      "inputs": [
        {
          "internalType": "address",
          "name": "user",
          "type": "address"
        }
      ],
      "name": "UserNotAuthorized",
      "type": "error"
    },
    {
      "anonymous": false,
      "inputs": [
        {
          "indexed": true,
          "internalType": "address",
          "name": "account",
          "type": "address"
        },
        {
          "indexed": true,
          "internalType": "address",
          "name": "operator",
          "type": "address"
        },
        {
          "indexed": false,
          "internalType": "bool",
          "name": "approved",
          "type": "bool"
        }
      ],
      "name": "ApprovalForAll",
      "type": "event"
    },
    {
      "anonymous": false,
      "inputs": [
        {
          "indexed": true,
          "internalType": "address",
          "name": "previousOwner",
          "type": "address"
        },
        {
          "indexed": true,
          "internalType": "address",
          "name": "newOwner",
          "type": "address"
        }
      ],
      "name": "OwnershipTransferred",
      "type": "event"
    },
    {
      "anonymous": false,
      "inputs": [
        {
          "indexed": false,
          "internalType": "uint256",
          "name": "internalTokenId",
          "type": "uint256"
        },
        {
          "indexed": false,
          "internalType": "string",
          "name": "fen",
          "type": "string"
        },
        {
          "indexed": false,
          "internalType": "bytes32",
          "name": "solutionHash",
          "type": "bytes32"
        },
        {
          "indexed": false,
          "internalType": "uint256",
          "name": "board",
          "type": "uint256"
        },
        {
          "indexed": false,
          "internalType": "address",
          "name": "creator",
          "type": "address"
        }
      ],
      "name": "PuzzleAdded",
      "type": "event"
    },
    {
      "anonymous": false,
      "inputs": [
        {
          "indexed": false,
          "internalType": "uint256",
          "name": "internalTokenId",
          "type": "uint256"
        },
        {
          "indexed": false,
          "internalType": "address",
          "name": "user",
          "type": "address"
        },
        {
          "indexed": false,
          "internalType": "bytes",
          "name": "solutionSubmission",
          "type": "bytes"
        }
      ],
      "name": "PuzzleAttempted",
      "type": "event"
    },
    {
      "anonymous": false,
      "inputs": [
        {
          "indexed": false,
          "internalType": "uint256",
          "name": "internalTokenId",
          "type": "uint256"
        },
        {
          "indexed": false,
          "internalType": "uint256",
          "name": "newPuzzleRating",
          "type": "uint256"
        }
      ],
      "name": "PuzzleRatingChanged",
      "type": "event"
    },
    {
      "anonymous": false,
      "inputs": [
        {
          "indexed": false,
          "internalType": "uint256",
          "name": "internalTokenId",
          "type": "uint256"
        },
        {
          "indexed": false,
          "internalType": "address",
          "name": "user",
          "type": "address"
        }
      ],
      "name": "PuzzleSolved",
      "type": "event"
    },
    {
      "anonymous": false,
      "inputs": [
        {
          "indexed": false,
          "internalType": "uint256",
          "name": "internalTokenId",
          "type": "uint256"
        },
        {
          "indexed": false,
          "internalType": "address",
          "name": "solver",
          "type": "address"
        }
      ],
      "name": "TokenMinted",
      "type": "event"
    },
    {
      "anonymous": false,
      "inputs": [
        {
          "indexed": true,
          "internalType": "address",
          "name": "operator",
          "type": "address"
        },
        {
          "indexed": true,
          "internalType": "address",
          "name": "from",
          "type": "address"
        },
        {
          "indexed": true,
          "internalType": "address",
          "name": "to",
          "type": "address"
        },
        {
          "indexed": false,
          "internalType": "uint256[]",
          "name": "ids",
          "type": "uint256[]"
        },
        {
          "indexed": false,
          "internalType": "uint256[]",
          "name": "values",
          "type": "uint256[]"
        }
      ],
      "name": "TransferBatch",
      "type": "event"
    },
    {
      "anonymous": false,
      "inputs": [
        {
          "indexed": true,
          "internalType": "address",
          "name": "operator",
          "type": "address"
        },
        {
          "indexed": true,
          "internalType": "address",
          "name": "from",
          "type": "address"
        },
        {
          "indexed": true,
          "internalType": "address",
          "name": "to",
          "type": "address"
        },
        {
          "indexed": false,
          "internalType": "uint256",
          "name": "id",
          "type": "uint256"
        },
        {
          "indexed": false,
          "internalType": "uint256",
          "name": "value",
          "type": "uint256"
        }
      ],
      "name": "TransferSingle",
      "type": "event"
    },
    {
      "anonymous": false,
      "inputs": [
        {
          "indexed": false,
          "internalType": "string",
          "name": "value",
          "type": "string"
        },
        {
          "indexed": true,
          "internalType": "uint256",
          "name": "id",
          "type": "uint256"
        }
      ],
      "name": "URI",
      "type": "event"
    },
    {
      "anonymous": false,
      "inputs": [
        {
          "indexed": false,
          "internalType": "address",
          "name": "user",
          "type": "address"
        },
        {
          "indexed": false,
          "internalType": "uint256",
          "name": "newUserRating",
          "type": "uint256"
        }
      ],
      "name": "UserRatingChanged",
      "type": "event"
    },
    {
      "anonymous": false,
      "inputs": [
        {
          "indexed": false,
          "internalType": "address",
          "name": "owner",
          "type": "address"
        },
        {
          "indexed": false,
          "internalType": "uint256",
          "name": "amount",
          "type": "uint256"
        }
      ],
      "name": "Withdraw",
      "type": "event"
    },
    {
      "inputs": [
        {
          "internalType": "string",
          "name": "fen",
          "type": "string"
        },
        {
          "internalType": "bytes32",
          "name": "solution",
          "type": "bytes32"
        },
        {
          "internalType": "uint256",
          "name": "metadata",
          "type": "uint256"
        },
        {
          "internalType": "string",
          "name": "description",
          "type": "string"
        },
        {
          "internalType": "bytes32[]",
          "name": "proof",
          "type": "bytes32[]"
        }
      ],
      "name": "addPuzzle",
      "outputs": [],
      "stateMutability": "nonpayable",
      "type": "function"
    },
    {
      "inputs": [
        {
          "internalType": "address",
          "name": "account",
          "type": "address"
        },
        {
          "internalType": "uint256",
          "name": "id",
          "type": "uint256"
        }
      ],
      "name": "balanceOf",
      "outputs": [
        {
          "internalType": "uint256",
          "name": "",
          "type": "uint256"
        }
      ],
      "stateMutability": "view",
      "type": "function"
    },
    {
      "inputs": [
        {
          "internalType": "address[]",
          "name": "accounts",
          "type": "address[]"
        },
        {
          "internalType": "uint256[]",
          "name": "ids",
          "type": "uint256[]"
        }
      ],
      "name": "balanceOfBatch",
      "outputs": [
        {
          "internalType": "uint256[]",
          "name": "",
          "type": "uint256[]"
        }
      ],
      "stateMutability": "view",
      "type": "function"
    },
    {
      "inputs": [],
      "name": "internalTokenCounter",
      "outputs": [
        {
          "internalType": "uint256",
          "name": "",
          "type": "uint256"
        }
      ],
      "stateMutability": "view",
      "type": "function"
    },
    {
      "inputs": [
        {
          "internalType": "address",
          "name": "account",
          "type": "address"
        },
        {
          "internalType": "address",
          "name": "operator",
          "type": "address"
        }
      ],
      "name": "isApprovedForAll",
      "outputs": [
        {
          "internalType": "bool",
          "name": "",
          "type": "bool"
        }
      ],
      "stateMutability": "view",
      "type": "function"
    },
    {
      "inputs": [
        {
          "internalType": "address",
          "name": "user",
          "type": "address"
        },
        {
          "internalType": "bytes32[]",
          "name": "proof",
          "type": "bytes32[]"
        }
      ],
      "name": "isWhitelisted",
      "outputs": [
        {
          "internalType": "bool",
          "name": "",
          "type": "bool"
        }
      ],
      "stateMutability": "view",
      "type": "function"
    },
    {
      "inputs": [],
      "name": "kFactor",
      "outputs": [
        {
          "internalType": "uint256",
          "name": "",
          "type": "uint256"
        }
      ],
      "stateMutability": "view",
      "type": "function"
    },
    {
      "inputs": [],
      "name": "merkleRoot",
      "outputs": [
        {
          "internalType": "bytes32",
          "name": "",
          "type": "bytes32"
        }
      ],
      "stateMutability": "view",
      "type": "function"
    },
    {
      "inputs": [
        {
          "internalType": "uint256",
          "name": "internalTokenId",
          "type": "uint256"
        }
      ],
      "name": "mint",
      "outputs": [],
      "stateMutability": "payable",
      "type": "function"
    },
    {
      "inputs": [],
      "name": "owner",
      "outputs": [
        {
          "internalType": "address",
          "name": "",
          "type": "address"
        }
      ],
      "stateMutability": "view",
      "type": "function"
    },
    {
      "inputs": [],
      "name": "platformFee",
      "outputs": [
        {
          "internalType": "uint256",
          "name": "",
          "type": "uint256"
        }
      ],
      "stateMutability": "view",
      "type": "function"
    },
    {
      "inputs": [
        {
          "internalType": "uint256",
          "name": "",
          "type": "uint256"
        }
      ],
      "name": "puzzlesById",
      "outputs": [
        {
          "internalType": "string",
          "name": "fen",
          "type": "string"
        },
        {
          "internalType": "bytes32",
          "name": "solution",
          "type": "bytes32"
        },
        {
          "internalType": "uint256",
          "name": "rating",
          "type": "uint256"
        },
        {
          "internalType": "uint256",
          "name": "metadata",
          "type": "uint256"
        },
        {
          "internalType": "address",
          "name": "creator",
          "type": "address"
        },
        {
          "internalType": "string",
          "name": "description",
          "type": "string"
        }
      ],
      "stateMutability": "view",
      "type": "function"
    },
    {
      "inputs": [],
      "name": "renounceOwnership",
      "outputs": [],
      "stateMutability": "nonpayable",
      "type": "function"
    },
    {
      "inputs": [
        {
          "internalType": "address",
          "name": "from",
          "type": "address"
        },
        {
          "internalType": "address",
          "name": "to",
          "type": "address"
        },
        {
          "internalType": "uint256[]",
          "name": "ids",
          "type": "uint256[]"
        },
        {
          "internalType": "uint256[]",
          "name": "values",
          "type": "uint256[]"
        },
        {
          "internalType": "bytes",
          "name": "data",
          "type": "bytes"
        }
      ],
      "name": "safeBatchTransferFrom",
      "outputs": [],
      "stateMutability": "nonpayable",
      "type": "function"
    },
    {
      "inputs": [
        {
          "internalType": "address",
          "name": "from",
          "type": "address"
        },
        {
          "internalType": "address",
          "name": "to",
          "type": "address"
        },
        {
          "internalType": "uint256",
          "name": "id",
          "type": "uint256"
        },
        {
          "internalType": "uint256",
          "name": "value",
          "type": "uint256"
        },
        {
          "internalType": "bytes",
          "name": "data",
          "type": "bytes"
        }
      ],
      "name": "safeTransferFrom",
      "outputs": [],
      "stateMutability": "nonpayable",
      "type": "function"
    },
    {
      "inputs": [
        {
          "internalType": "address",
          "name": "operator",
          "type": "address"
        },
        {
          "internalType": "bool",
          "name": "approved",
          "type": "bool"
        }
      ],
      "name": "setApprovalForAll",
      "outputs": [],
      "stateMutability": "nonpayable",
      "type": "function"
    },
    {
      "inputs": [
        {
          "internalType": "uint256",
          "name": "_kFactor",
          "type": "uint256"
        }
      ],
      "name": "setKFactor",
      "outputs": [],
      "stateMutability": "nonpayable",
      "type": "function"
    },
    {
      "inputs": [
        {
          "internalType": "bytes32",
          "name": "_merkleRoot",
          "type": "bytes32"
        }
      ],
      "name": "setMerkleRoot",
      "outputs": [],
      "stateMutability": "nonpayable",
      "type": "function"
    },
    {
      "inputs": [
        {
          "internalType": "uint256",
          "name": "_fee",
          "type": "uint256"
        }
      ],
      "name": "setPlatformFee",
      "outputs": [],
      "stateMutability": "nonpayable",
      "type": "function"
    },
    {
      "inputs": [
        {
          "internalType": "uint256",
          "name": "_price",
          "type": "uint256"
        }
      ],
      "name": "setTokenMintPrice",
      "outputs": [],
      "stateMutability": "nonpayable",
      "type": "function"
    },
    {
      "inputs": [
        {
          "internalType": "uint256",
          "name": "internalTokenId",
          "type": "uint256"
        },
        {
          "internalType": "bytes",
          "name": "solution",
          "type": "bytes"
        }
      ],
      "name": "submitSolution",
      "outputs": [
        {
          "internalType": "bool",
          "name": "",
          "type": "bool"
        }
      ],
      "stateMutability": "nonpayable",
      "type": "function"
    },
    {
      "inputs": [
        {
          "internalType": "bytes4",
          "name": "interfaceId",
          "type": "bytes4"
        }
      ],
      "name": "supportsInterface",
      "outputs": [
        {
          "internalType": "bool",
          "name": "",
          "type": "bool"
        }
      ],
      "stateMutability": "view",
      "type": "function"
    },
    {
      "inputs": [],
      "name": "tokenMintPrice",
      "outputs": [
        {
          "internalType": "uint256",
          "name": "",
          "type": "uint256"
        }
      ],
      "stateMutability": "view",
      "type": "function"
    },
    {
      "inputs": [
        {
          "internalType": "address",
          "name": "newOwner",
          "type": "address"
        }
      ],
      "name": "transferOwnership",
      "outputs": [],
      "stateMutability": "nonpayable",
      "type": "function"
    },
    {
      "inputs": [
        {
          "internalType": "uint256",
          "name": "internalTokenId",
          "type": "uint256"
        }
      ],
      "name": "uri",
      "outputs": [
        {
          "internalType": "string",
          "name": "",
          "type": "string"
        }
      ],
      "stateMutability": "view",
      "type": "function"
    },
    {
      "inputs": [
        {
          "internalType": "uint256",
          "name": "internalTokenId",
          "type": "uint256"
        },
        {
          "internalType": "address",
          "name": "user",
          "type": "address"
        }
      ],
      "name": "userHasAttemptedPuzzle",
      "outputs": [
        {
          "internalType": "bool",
          "name": "",
          "type": "bool"
        }
      ],
      "stateMutability": "view",
      "type": "function"
    },
    {
      "inputs": [
        {
          "internalType": "uint256",
          "name": "internalTokenId",
          "type": "uint256"
        },
        {
          "internalType": "address",
          "name": "user",
          "type": "address"
        }
      ],
      "name": "userHasSolvedPuzzle",
      "outputs": [
        {
          "internalType": "bool",
          "name": "",
          "type": "bool"
        }
      ],
      "stateMutability": "view",
      "type": "function"
    },
    {
      "inputs": [
        {
          "internalType": "address",
          "name": "",
          "type": "address"
        }
      ],
      "name": "userRatings",
      "outputs": [
        {
          "internalType": "uint256",
          "name": "",
          "type": "uint256"
        }
      ],
      "stateMutability": "view",
      "type": "function"
    },
    {
      "inputs": [],
      "name": "withdraw",
      "outputs": [],
      "stateMutability": "nonpayable",
      "type": "function"
    }
  ],
  "transactionHash": "0x66d4ab455e6d6b123a207230223f33cb495ea8bc4816a60ac243be1b1935fb66",
  "args": [
    "0x4489C7836eBE6aBf8a95Ad87877E8123e5F20A25"
  ],
  "numDeployments": 1,
  "solcInputHash": "654b112c2657dcf5f3c7bb4c9efde911",
  "bytecode": "0x60806040523480156200001157600080fd5b5060405162004cc938038062004cc9833981016040819052620000349162000111565b60408051602081019091526000815281906200005081620000ad565b506001600160a01b0381166200008057604051631e4fbdf760e01b81526000600482015260240160405180910390fd5b6200008b81620000bf565b505066071afd498d0000600555603260065560286007556000600855620002b4565b6002620000bb8282620001e8565b5050565b600380546001600160a01b038381166001600160a01b0319831681179093556040519116919082907f8be0079c531659141344cd1fd0a4f28419497f9722a3daafe3b4186f6b6457e090600090a35050565b6000602082840312156200012457600080fd5b81516001600160a01b03811681146200013c57600080fd5b9392505050565b634e487b7160e01b600052604160045260246000fd5b600181811c908216806200016e57607f821691505b6020821081036200018f57634e487b7160e01b600052602260045260246000fd5b50919050565b601f821115620001e357600081815260208120601f850160051c81016020861015620001be5750805b601f850160051c820191505b81811015620001df57828155600101620001ca565b5050505b505050565b81516001600160401b0381111562000204576200020462000143565b6200021c8162000215845462000159565b8462000195565b602080601f8311600181146200025457600084156200023b5750858301515b600019600386901b1c1916600185901b178555620001df565b600085815260208120601f198616915b82811015620002855788860151825594840194600190910190840162000264565b5085821015620002a45787850151600019600388901b60f8161c191681555b5050505050600190811b01905550565b614a0580620002c46000396000f3fe6080604052600436106101c15760003560e01c806363a86201116100f7578063a22cb46511610095578063e985e9c511610064578063e985e9c514610521578063f242432a14610541578063f2fde38b14610561578063f844bb2a1461058157600080fd5b8063a22cb465146104a1578063a2dfe7b5146104c1578063c1fa6478146104e1578063e84dee6b1461050157600080fd5b80638a062ab7116100d15780638a062ab7146104195780638da5cb5b14610439578063900f58fc14610461578063a0712d681461048e57600080fd5b806363a862011461039a578063715018a6146103e45780637cb64759146103f957600080fd5b80632eb4a7ab116101645780633ccfd60b1161013e5780633ccfd60b1461032257806349aeaf16146103375780634e1273f41461034d5780635a23dd991461037a57600080fd5b80632eb4a7ab146102e0578063342e4cbf146102f65780633924727d1461030c57600080fd5b80630e89341c116101a05780630e89341c1461025b57806312e8e2c31461028857806326232a2e146102aa5780632eb2c2d6146102c057600080fd5b8062fdd58e146101c657806301ffc9a7146101f9578063031fc54014610229575b600080fd5b3480156101d257600080fd5b506101e66101e136600461305a565b6105cb565b6040519081526020015b60405180910390f35b34801561020557600080fd5b5061021961021436600461309a565b6105f3565b60405190151581526020016101f0565b34801561023557600080fd5b506102496102443660046130b7565b610643565b6040516101f096959493929190613120565b34801561026757600080fd5b5061027b6102763660046130b7565b610795565b6040516101f09190613176565b34801561029457600080fd5b506102a86102a33660046130b7565b6107b5565b005b3480156102b657600080fd5b506101e660075481565b3480156102cc57600080fd5b506102a86102db3660046132cc565b6107c2565b3480156102ec57600080fd5b506101e660085481565b34801561030257600080fd5b506101e660065481565b34801561031857600080fd5b506101e660045481565b34801561032e57600080fd5b506102a861082e565b34801561034357600080fd5b506101e660055481565b34801561035957600080fd5b5061036d610368366004613375565b6108ac565b6040516101f0919061346f565b34801561038657600080fd5b506102196103953660046134cd565b610980565b3480156103a657600080fd5b506102196103b536600461351f565b60008281526009602090815260408083206001600160a01b038516845260020190915290205460ff1692915050565b3480156103f057600080fd5b506102a8610a04565b34801561040557600080fd5b506102a86104143660046130b7565b610a18565b34801561042557600080fd5b506102a86104343660046130b7565b610a25565b34801561044557600080fd5b506003546040516001600160a01b0390911681526020016101f0565b34801561046d57600080fd5b506101e661047c36600461354b565b600a6020526000908152604090205481565b6102a861049c3660046130b7565b610a32565b3480156104ad57600080fd5b506102a86104bc366004613566565b610b60565b3480156104cd57600080fd5b506102a86104dc3660046130b7565b610b6f565b3480156104ed57600080fd5b506102a86104fc3660046135e3565b610b7c565b34801561050d57600080fd5b5061021961051c36600461368f565b610cbb565b34801561052d57600080fd5b5061021961053c3660046136cb565b610e0f565b34801561054d57600080fd5b506102a861055c3660046136f5565b610e3d565b34801561056d57600080fd5b506102a861057c36600461354b565b610e9c565b34801561058d57600080fd5b5061021961059c36600461351f565b60008281526009602090815260408083206001600160a01b038516845260030190915290205460ff1692915050565b6000818152602081815260408083206001600160a01b03861684529091529020545b92915050565b60006001600160e01b03198216636cdb3d1360e11b148061062457506001600160e01b031982166303a24d0760e21b145b806105ed57506301ffc9a760e01b6001600160e01b03198316146105ed565b60096020526000908152604090208054819061065e90613759565b80601f016020809104026020016040519081016040528092919081815260200182805461068a90613759565b80156106d75780601f106106ac576101008083540402835291602001916106d7565b820191906000526020600020905b8154815290600101906020018083116106ba57829003601f168201915b5050506001840154600485015460058601546006870154600788018054979894979396509194506001600160a01b0316929161071290613759565b80601f016020809104026020016040519081016040528092919081815260200182805461073e90613759565b801561078b5780601f106107605761010080835404028352916020019161078b565b820191906000526020600020905b81548152906001019060200180831161076e57829003601f168201915b5050505050905086565b6000818152600960205260409020600501546060906105ed908390610eda565b6107bd610fd4565b600755565b336001600160a01b03861681148015906107e357506107e18682610e0f565b155b156108195760405163711bec9160e11b81526001600160a01b038083166004830152871660248201526044015b60405180910390fd5b6108268686868686611001565b505050505050565b610836610fd4565b6040514790339082156108fc029083906000818181858888f19350505050158015610865573d6000803e3d6000fd5b507f884edad9ce6fa2440d8a54cc123490eb96d2768479d49ff9c7366125a942436433604080516001600160a01b039092168252602082018490520160405180910390a150565b606081518351146108dd5781518351604051635b05999160e01b815260048101929092526024820152604401610810565b600083516001600160401b038111156108f8576108f8613189565b604051908082528060200260200182016040528015610921578160200160208202803683370190505b50905060005b84518110156109785760208082028601015161094b906020808402870101516105cb565b82828151811061095d5761095d613793565b6020908102919091010152610971816137bf565b9050610927565b509392505050565b6008546040516bffffffffffffffffffffffff19606086901b1660208201526000916109fc91603401604051602081830303815290604052805190602001208585808060200260200160405190810160405280939291908181526020018383602002808284376000920191909152509294939250506110689050565b949350505050565b610a0c610fd4565b610a16600061107e565b565b610a20610fd4565b600855565b610a2d610fd4565b600655565b600554341015610a625760055460405163f9309a0960e01b81523460048201526024810191909152604401610810565b6000818152600960209081526040808320338452600281019092529091205460ff16610aa45760405163f88c066b60e01b815260048101839052602401610810565b610ac033836001604051806020016040528060008152506110d0565b6040805183815233602082015281517f3a5398bda6f1f57d6c96834fa9bf02b5517bdc847d14312015a917ba421c31c9929181900390910190a160068101546007546001600160a01b03909116906108fc90606490610b1f90826137d8565b610b2990346137eb565b610b339190613818565b6040518115909202916000818181858888f19350505050158015610b5b573d6000803e3d6000fd5b505050565b610b6b33838361112d565b5050565b610b77610fd4565b600555565b610b87338383610980565b610ba6576040516310f8e8d760e31b8152336004820152602401610810565b6000879003610bcc5787876040516368cd81e760e01b8152600401610810929190613863565b84600003610bf85760048054604051636316501d60e11b81529182015260248101869052604401610810565b610c0460045486610eda565b50600454600081815260096020526040902080610c228a8c836138bd565b50600181018890556006810180546001600160a01b031916331790556103e8600482015560078101610c558688836138bd565b5060058101879055600454610c6b90600161397c565b6004557fa6e71fb039b9c89d5faacf005220199fe3fe392f87cadf25b757f7e7a0817bf6828b8b8b8b33604051610ca79695949392919061398f565b60405180910390a150505050505050505050565b60006004548310610ce1576040516255ac0b60e31b815260048101849052602401610810565b6000838152600960209081526040808320338452600381019092529091205460ff1615610d2457604051636ab2c49160e01b815260048101859052602401610810565b33600081815260038301602052604090819020805460ff19166001179055517f712c1b1ad89e8e16ccdc5cec4c1b22713e1d68a25e895b87e30db54bf197f7ce91610d739187919087906139d0565b60405180910390a182516020840120600182015403610dfa573360009081526002820160205260409020805460ff19166001908117909155610db69085906111c3565b6040805185815233602082015281517ff7c67880b72ec988961e570ae4e849eb4fd9d5ba0ab550624ac429ef6d41880c929181900390910190a160019150506105ed565b610e058460006111c3565b60009150506105ed565b6001600160a01b03918216600090815260016020908152604080832093909416825291909152205460ff1690565b336001600160a01b0386168114801590610e5e5750610e5c8682610e0f565b155b15610e8f5760405163711bec9160e11b81526001600160a01b03808316600483015287166024820152604401610810565b610826868686868661134f565b610ea4610fd4565b6001600160a01b038116610ece57604051631e4fbdf760e01b815260006004820152602401610810565b610ed78161107e565b50565b606080606080600060089050600087604051602001610efb91815260200190565b6040516020818303038152906040528051906020012060001c9050610f218783836113dd565b9094509250610f339150869050611f4e565b604051602001610f439190613a1f565b6040516020818303038152906040529250610faa610f64608088901c6120a9565b610f7f886fffffffffffffffffffffffffffffffff166120a9565b858585604051602001610f96959493929190613a4e565b60405160208183030381529060405261213b565b604051602001610fba9190613b6b565b604051602081830303815290604052935050505092915050565b6003546001600160a01b03163314610a165760405163118cdaa760e01b8152336004820152602401610810565b6001600160a01b03841661102b57604051632bfa23e760e11b815260006004820152602401610810565b6001600160a01b03851661105457604051626a0d4560e21b815260006004820152602401610810565b611061858585858561229a565b5050505050565b60008261107585846122ed565b14949350505050565b600380546001600160a01b038381166001600160a01b0319831681179093556040519116919082907f8be0079c531659141344cd1fd0a4f28419497f9722a3daafe3b4186f6b6457e090600090a35050565b6001600160a01b0384166110fa57604051632bfa23e760e11b815260006004820152602401610810565b6040805160018082526020820186905281830190815260608201859052608082019092529061082660008784848761229a565b6001600160a01b0382166111565760405162ced3e160e81b815260006004820152602401610810565b6001600160a01b03838116600081815260016020908152604080832094871680845294825291829020805460ff191686151590811790915591519182527f17307eab39ab6107e8899845ad3d59bd9653f200f220920489ca2b5937696c31910160405180910390a3505050565b60008281526009602090815260408083206004810154338552600a9093529083205490928190036112065750336000908152600a602052604090206103e8908190555b60008061122883858861121a57600061121d565b60645b60ff16600654612332565b9092509050611238606483613818565b9150801561128557336000908152600a60205260408120805484929061125f9084906137d8565b925050819055508185600401600082825461127a919061397c565b909155506112c59050565b336000908152600a6020526040812080548492906112a490849061397c565b92505081905550818560040160008282546112bf91906137d8565b90915550505b60408051888152602081018690527fedf7d7629bae89d536e79c07544cf71dc20f2e5a6c44820bc95943ae5d392e8f910160405180910390a1336000818152600a6020908152604091829020548251938452908301527f7c9d26a9c3f761e124a1b3f4aaf8fe9deeffa947fbdabd8b085dab884a2a04be910160405180910390a150505050505050565b6001600160a01b03841661137957604051632bfa23e760e11b815260006004820152602401610810565b6001600160a01b0385166113a257604051626a0d4560e21b815260006004820152602401610810565b604080516001808252602082018690528183019081526060820185905260808201909252906113d4878784848761229a565b50505050505050565b60608060006113eb856120a9565b6113f4866120a9565b604051602001611405929190613bb0565b60405160208183030381529060405290506000611421866120a9565b6040516020016114319190613c33565b60408051601f198184030181528282019091526001808352600360fc1b602084015290925060609190881461159a57600487600f1610156114a757505060408051808201825260048152634e6f6e6560e01b602080830191909152825180840190935260018352600360fc1b9083015290611575565b600d87600f1610156114f057505060408051808201825260068152654e6172726f7760d01b602080830191909152825180840190935260018352601960f91b9083015290611575565b600f87600f16101561153857505060408051808201825260048152635769646560e01b60208083019190915282518084019093526002835261189960f11b9083015290611575565b50506040805180820182526009815268556c7472617769646560b81b602080830191909152825180840190935260028352610c8d60f21b90830152905b8382604051602001611588929190613c87565b60405160208183030381529060405293505b82816040516020016115ad929190613cee565b60405160208183030381529060405292505050600485901c9450606080600187603f1610156116125750506040805180820182526005815264506c616e6560d81b602080830191909152825180840190935260018352600760fb1b9083015290611728565b600b87603f16101561165957505060408051808201825260038152620c4bcd60ea1b60208083019190915282518084019093526002835261072760f31b9083015290611728565b601587603f1610156116a157505060408051808201825260038082526218979960e91b60208084019190915283518085019094529083526231393760e81b9083015290611728565b603387603f1610156116ea57505060408051808201825260048152634375626560e01b602080830191909152825180840190935260038352620cce4d60ea1b9083015290611728565b50506040805180820182526008815267496e66696e69746560c01b602080830191909152825180840190935260048352630313030360e41b90830152905b838260405160200161173b929190613d2f565b6040516020818303038152906040529350828160405160200161175f929190613da1565b60405160208183030381529060405292505050600685901c945060606000601987601f161015611a22575062ffffff600587901c168361179e826120a9565b6040516020016117af929190613dde565b6040516020818303038152906040529350600787601f1610156118195760405180604001604052806007815260200166556e69666f726d60c81b81525091506117fa8162ffffff0390565b601882901b603083901b604884901b606085901b171717179050611c64565b600e87601f1610156118c9576040518060400160405280600681526020016553686164657360d01b81525091506118528162ffffff0390565b601882901b603062010000600160fe1b03600285901c908116613f00821617603f90911617901b604862010000600160ff1b03600186901c908116617f00821617607f90911617901b606062010000600160fd1b03600387901c908116611f00821617601f909116175b901b171717179050611c64565b601587601f16101561197e576040518060400160405280600581526020016454696e747360d81b81525091506119018162ffffff0390565b601882901b601083811c60ff908103600281811c8303841b600888811c8516850380841c8603821b92909217858a1686039384901c86031760301b95600185811c8703821b84821c8803841b179085901c87031760481b95606095600390811c820390921b93821c810390921b929092179290911c9003176118bc565b601887601f1610156119d9576040518060400160405280600781526020016645636c6970736560c81b81525091506119b88162ffffff0390565b601882901b606083901b6bffffff0000000000000000001717179050611c64565b60405180604001604052806004815260200163159bda5960e21b8152509150611a048162ffffff0390565b601882901b6060611a178462ffffff0390565b901b17179050611c64565b60408051808201825260078082526610dd5c985d195960ca1b6020808401919091528351610140810185526004610100820181815263139bdc9960e21b610120840152825285518087018752600380825262422f5760e81b828601528385019190915286518088018852600981526821b0b7323cb1b7b93760b91b818601528388015286518088018852908152622923a160e91b818501526060830152855180870187526006808252655653436f646560d01b82860152608084019190915286518088018852828152632732b7b760e11b8186015260a084015286518088018852908152654a756e676c6560d01b8185015260c0830152855180870190965285526321b7b93760e11b9185019190915260e081019390935260059990991c98909350859190891660088110611b5957611b59613793565b6020020151604051602001611b6f929190613e52565b60408051601f198184030181526080830182527d8fbcbbebcb8bd087705e81acb48ead000000ffffffffffffffffff00000083527d0d3b66f4d35eee964bfaf0caf95738ffff0000ff000000ffff0000ffff0060208401527d1e1e1e569cd6d2d1a2ba7fb54dc4ac00ffffffff000000ff00ff00ff00ff918301919091527dbe3400015045020d22eabaacbe3400f9c233705860211a28346830f9c233606083015294506003600189901c1660048110611c2b57611c2b613793565b60200201516001600160f01b031690506001871615611c5b57806effffffffffffffffffffffffffffff16611c61565b607881901c5b90505b8382604051602001611c77929190613ec9565b604051602081830303815290604052935082611c96606083901c612478565b611ca8604884901c62ffffff16612478565b611cba603085901c62ffffff16612478565b611ccc601886901c62ffffff16612478565b611cda8662ffffff16612478565b604051602001611cef96959493929190613f45565b60408051601f198184030181526103e083019091526103c0808352909450606093508492506146106020830139611d2f611d2a8a6010613818565b6120a9565b611d3d611d2a8b6010613818565b604051602001611d50949392919061401a565b604051602081830303815290604052915086601014611dae576040518060400160405280600581526020016446616c736560d81b81525090508281604051602001611d9c9291906140e6565b60405160208183030381529060405292505b5060005b601f811015611e6d5781611dc5826120a9565b611dce836120a9565b611dd7846120a9565b600f8510611dfe57604051806040016040528060018152602001602b60f81b815250611e19565b604051806040016040528060018152602001602d60f81b8152505b600f8610611e3257611e2d600f87036120a9565b611e3e565b611e3e86600f036120a9565b604051602001611e539695949392919061415c565b60408051601f198184030181529190529150600101611db2565b50606060005b60018089901b03811015611f2957600060018903821115611ea05781600260018b901b0303600f03611ea5565b81600f035b9050805b60018a03831115611ec957600183600260018d901b0303901b8201611ed1565b600183901b82015b8111611f1f5783611ef48c8c601081611eec57611eec613802565b0486856125f5565b604051602001611f05929190614284565b60408051601f198184030181529190529350600201611ea9565b5050600101611e73565b50611f408282604051602001610f969291906142b3565b989297509195505050505050565b6040805180820190915260058152643030302e3760d91b6020820152606090603f5b8015612080578082600780831614611f975760405180602001604052806000815250611fc9565b611fa9611d2a600384901c600161397c565b604051602001611fb99190614316565b6040516020818303038152906040525b611fdc600284901b88901c600f166127a5565b60078416158015611fec57508315155b61202c578360000361200d5760405180602001604052806000815250612048565b604051806040016040528060018152602001600160fd1b815250612048565b604051806040016040528060028152602001612e3760f11b8152505b60405160200161205b949392919061433b565b604051602081830303815290604052925050808061207890614392565b915050611f70565b508060405160200161209291906143a9565b60408051601f198184030181529190529392505050565b606060006120b683612999565b60010190506000816001600160401b038111156120d5576120d5613189565b6040519080825280601f01601f1916602001820160405280156120ff576020820181803683370190505b5090508181016020015b600019016f181899199a1a9b1b9c1cb0b131b232b360811b600a86061a8153600a850494508461210957509392505050565b6060815160000361215a57505060408051602081019091526000815290565b60006040518060600160405280604081526020016145d06040913990506000600260038551600261218b919061397c565b6121959190613818565b901b905060006121a682602061397c565b6001600160401b038111156121bd576121bd613189565b6040519080825280601f01601f1916602001820160405280156121e7576020820181803683370190505b509050818152600183018586518101602084015b818310156122555760039283018051603f601282901c811687015160f890811b8552600c83901c8216880151811b6001860152600683901c8216880151811b60028601529116860151901b938201939093526004016121fb565b60038951066001811461226f57600281146122805761228c565b613d3d60f01b60011983015261228c565b603d60f81b6000198301525b509398975050505050505050565b6122a685858585612a71565b6001600160a01b0384161561106157825133906001036122df57602084810151908401516122d8838989858589612c8e565b5050610826565b610826818787878787612db2565b600081815b84518110156109785761231e8286838151811061231157612311613793565b6020026020010151612e9b565b91508061232a816137bf565b9150506122f2565b6000806127108302868610828161234b5788880361234f565b8789035b905061046681106123a25760405162461bcd60e51b815260206004820152601b60248201527f526174696e6720646966666572656e636520746f6f206c6172676500000000006044820152606401610810565b81156123f95761032081106123f95760405162461bcd60e51b815260206004820152601b60248201527f526174696e6720646966666572656e636520746f6f206c6172676500000000006044820152606401610810565b600080600080600086612410578561032001612416565b85610320035b9450612428600a601987046001612ecd565b935061243384612f8a565b925082606401888161244757612447613802565b0491508b8b02905081811098508861246157818103612465565b8082035b9950505050505050505094509492505050565b60606f181899199a1a9b1b9c1ca0a121a222a360811b601483901c600f16602081106124a6576124a6613793565b1a60f81b6f181899199a1a9b1b9c1ca0a121a222a360811b601084901c600f16602081106124d6576124d6613793565b1a60f81b6f181899199a1a9b1b9c1ca0a121a222a360811b600c85901c600f166020811061250657612506613793565b1a60f81b6f181899199a1a9b1b9c1ca0a121a222a360811b600886901c600f166020811061253657612536613793565b1a60f81b6f181899199a1a9b1b9c1ca0a121a222a360811b600487901c600f166020811061256657612566613793565b1a60f81b6f181899199a1a9b1b9c1ca0a121a222a360811b87600f166020811061259257612592613793565b604051602360f81b60208201526001600160f81b0319978816602182015295871660228701529386166023860152918516602485015284166025840152901a60f81b90911660268201526027016040516020818303038152906040529050919050565b60606000612602846120a9565b61260b846120a9565b60405160200161261c9291906143ea565b60408051601f19818403018152919052905060008080808789026000198a0160011b015b60018a038a8a0201811061277557600091506000600f89111561266d5783600f8a038c02600f0101612679565b8389600f038c02600f03015b9050805b8b8260010103811061275557600184840382600f0103901c600f03965060018484830103901c601603955087600187600116901b600289600116901b60d8901c901c600316600260018a901c60018a901c60080201901b8f901c901c60011660001461270257604051806040016040528060018152602001606960f81b81525061271d565b604051806040016040528060018152602001600d60fb1b8152505b60405160200161272e92919061446d565b60408051601f1981840301815291905297506001909301928015612755576000190161267d565b50600190930192600082900361276b5750612775565b5060001901612640565b508460405160200161278791906144c6565b60405160208183030381529060405295505050505050949350505050565b6060816001036127ce575050604080518082019091526003815262e2999f60e81b602082015290565b816002036127f5575050604080518082019091526003815262e2999d60e81b602082015290565b8160030361281c57505060408051808201909152600381526238a66760ea1b602082015290565b81600403612843575050604080518082019091526003815262714ccf60e91b602082015290565b8160050361286a575050604080518082019091526003815262e2999b60e81b602082015290565b81600603612891575050604080518082019091526003815262714ccd60e91b602082015290565b816009036128b8575050604080518082019091526003815262e2999960e81b602082015290565b81600a036128df575050604080518082019091526003815262e2999760e81b602082015290565b81600b03612906575050604080518082019091526003815262714ccb60e91b602082015290565b81600c0361292d5750506040805180820190915260038152621c533360eb1b602082015290565b81600d03612954575050604080518082019091526003815262e2999560e81b602082015290565b81600e0361297b57505060408051808201909152600381526238a66560ea1b602082015290565b5050604080518082019091526002815261c2b760f01b602082015290565b60008072184f03e93ff9f4daa797ed6e38ed64bf6a1f0160401b83106129d85772184f03e93ff9f4daa797ed6e38ed64bf6a1f0160401b830492506040015b6d04ee2d6d415b85acef81000000008310612a04576d04ee2d6d415b85acef8100000000830492506020015b662386f26fc100008310612a2257662386f26fc10000830492506010015b6305f5e1008310612a3a576305f5e100830492506008015b6127108310612a4e57612710830492506004015b60648310612a60576064830492506002015b600a83106105ed5760010192915050565b8051825114612aa05781518151604051635b05999160e01b815260048101929092526024820152604401610810565b3360005b8351811015612baf576020818102858101820151908501909101516001600160a01b03881615612b57576000828152602081815260408083206001600160a01b038c16845290915290205481811015612b30576040516303dee4c560e01b81526001600160a01b038a166004820152602481018290526044810183905260648101849052608401610810565b6000838152602081815260408083206001600160a01b038d16845290915290209082900390555b6001600160a01b03871615612b9c576000828152602081815260408083206001600160a01b038b16845290915281208054839290612b9690849061397c565b90915550505b505080612ba8906137bf565b9050612aa4565b508251600103612c305760208301516000906020840151909150856001600160a01b0316876001600160a01b0316846001600160a01b03167fc3d58168c5ae7397731d063d5bbf3d657854427343f4c083240f7aacaa2d0f628585604051612c21929190918252602082015260400190565b60405180910390a45050611061565b836001600160a01b0316856001600160a01b0316826001600160a01b03167f4a39dc06d4c0dbc64b70af90fd698a233a518aa5d07e595d983b8c0526c8f7fb8686604051612c7f9291906144f6565b60405180910390a45050505050565b6001600160a01b0384163b156108265760405163f23a6e6160e01b81526001600160a01b0385169063f23a6e6190612cd2908990899088908890889060040161451b565b6020604051808303816000875af1925050508015612d0d575060408051601f3d908101601f19168201909252612d0a91810190614560565b60015b612d76573d808015612d3b576040519150601f19603f3d011682016040523d82523d6000602084013e612d40565b606091505b508051600003612d6e57604051632bfa23e760e11b81526001600160a01b0386166004820152602401610810565b805181602001fd5b6001600160e01b0319811663f23a6e6160e01b146113d457604051632bfa23e760e11b81526001600160a01b0386166004820152602401610810565b6001600160a01b0384163b156108265760405163bc197c8160e01b81526001600160a01b0385169063bc197c8190612df6908990899088908890889060040161457d565b6020604051808303816000875af1925050508015612e31575060408051601f3d908101601f19168201909252612e2e91810190614560565b60015b612e5f573d808015612d3b576040519150601f19603f3d011682016040523d82523d6000602084013e612d40565b6001600160e01b0319811663bc197c8160e01b146113d457604051632bfa23e760e11b81526001600160a01b0386166004820152602401610810565b6000818310612eb7576000828152602084905260409020612ec6565b60008381526020839052604090205b9392505050565b6000838015612f6d57600184168015612ee857859250612eec565b8392505b508260011c8460011c94505b8415612f67578560801c15612f0c57600080fd5b85860281810181811015612f1f57600080fd5b8590049650506001851615612f5c578583028387820414612f45578615612f4557600080fd5b81810181811015612f5557600080fd5b8590049350505b8460011c9450612ef8565b50610978565b838015612f7d5760009250612f81565b8392505b50509392505050565b60006105ed612f9a612f9a612f9a855b60b581600160881b8110612fb35760409190911b9060801c5b69010000000000000000008110612fcf5760209190911b9060401c5b650100000000008110612fe75760109190911b9060201c5b63010000008110612ffd5760089190911b9060101c5b62010000010260121c80820401600190811c80830401811c80830401811c80830401811c80830401811c80830401811c80830401901c908190048111900390565b80356001600160a01b038116811461305557600080fd5b919050565b6000806040838503121561306d57600080fd5b6130768361303e565b946020939093013593505050565b6001600160e01b031981168114610ed757600080fd5b6000602082840312156130ac57600080fd5b8135612ec681613084565b6000602082840312156130c957600080fd5b5035919050565b60005b838110156130eb5781810151838201526020016130d3565b50506000910152565b6000815180845261310c8160208601602086016130d0565b601f01601f19169290920160200192915050565b60c08152600061313360c08301896130f4565b6020830188905260408301879052606083018690526001600160a01b038516608084015282810360a084015261316981856130f4565b9998505050505050505050565b602081526000612ec660208301846130f4565b634e487b7160e01b600052604160045260246000fd5b604051601f8201601f191681016001600160401b03811182821017156131c7576131c7613189565b604052919050565b60006001600160401b038211156131e8576131e8613189565b5060051b60200190565b600082601f83011261320357600080fd5b81356020613218613213836131cf565b61319f565b82815260059290921b8401810191818101908684111561323757600080fd5b8286015b84811015613252578035835291830191830161323b565b509695505050505050565b600082601f83011261326e57600080fd5b81356001600160401b0381111561328757613287613189565b61329a601f8201601f191660200161319f565b8181528460208386010111156132af57600080fd5b816020850160208301376000918101602001919091529392505050565b600080600080600060a086880312156132e457600080fd5b6132ed8661303e565b94506132fb6020870161303e565b935060408601356001600160401b038082111561331757600080fd5b61332389838a016131f2565b9450606088013591508082111561333957600080fd5b61334589838a016131f2565b9350608088013591508082111561335b57600080fd5b506133688882890161325d565b9150509295509295909350565b6000806040838503121561338857600080fd5b82356001600160401b038082111561339f57600080fd5b818501915085601f8301126133b357600080fd5b813560206133c3613213836131cf565b82815260059290921b840181019181810190898411156133e257600080fd5b948201945b83861015613407576133f88661303e565b825294820194908201906133e7565b9650508601359250508082111561341d57600080fd5b5061342a858286016131f2565b9150509250929050565b600081518084526020808501945080840160005b8381101561346457815187529582019590820190600101613448565b509495945050505050565b602081526000612ec66020830184613434565b60008083601f84011261349457600080fd5b5081356001600160401b038111156134ab57600080fd5b6020830191508360208260051b85010111156134c657600080fd5b9250929050565b6000806000604084860312156134e257600080fd5b6134eb8461303e565b925060208401356001600160401b0381111561350657600080fd5b61351286828701613482565b9497909650939450505050565b6000806040838503121561353257600080fd5b823591506135426020840161303e565b90509250929050565b60006020828403121561355d57600080fd5b612ec68261303e565b6000806040838503121561357957600080fd5b6135828361303e565b91506020830135801515811461359757600080fd5b809150509250929050565b60008083601f8401126135b457600080fd5b5081356001600160401b038111156135cb57600080fd5b6020830191508360208285010111156134c657600080fd5b60008060008060008060008060a0898b0312156135ff57600080fd5b88356001600160401b038082111561361657600080fd5b6136228c838d016135a2565b909a50985060208b0135975060408b0135965060608b013591508082111561364957600080fd5b6136558c838d016135a2565b909650945060808b013591508082111561366e57600080fd5b5061367b8b828c01613482565b999c989b5096995094979396929594505050565b600080604083850312156136a257600080fd5b8235915060208301356001600160401b038111156136bf57600080fd5b61342a8582860161325d565b600080604083850312156136de57600080fd5b6136e78361303e565b91506135426020840161303e565b600080600080600060a0868803121561370d57600080fd5b6137168661303e565b94506137246020870161303e565b9350604086013592506060860135915060808601356001600160401b0381111561374d57600080fd5b6133688882890161325d565b600181811c9082168061376d57607f821691505b60208210810361378d57634e487b7160e01b600052602260045260246000fd5b50919050565b634e487b7160e01b600052603260045260246000fd5b634e487b7160e01b600052601160045260246000fd5b6000600182016137d1576137d16137a9565b5060010190565b818103818111156105ed576105ed6137a9565b80820281158282048414176105ed576105ed6137a9565b634e487b7160e01b600052601260045260246000fd5b60008261383557634e487b7160e01b600052601260045260246000fd5b500490565b81835281816020850137506000828201602090810191909152601f909101601f19169091010190565b6020815260006109fc60208301848661383a565b601f821115610b5b57600081815260208120601f850160051c8101602086101561389e5750805b601f850160051c820191505b81811015610826578281556001016138aa565b6001600160401b038311156138d4576138d4613189565b6138e8836138e28354613759565b83613877565b6000601f84116001811461391c57600085156139045750838201355b600019600387901b1c1916600186901b178355611061565b600083815260209020601f19861690835b8281101561394d578685013582556020948501946001909201910161392d565b508682101561396a5760001960f88860031b161c19848701351681555b505060018560011b0183555050505050565b808201808211156105ed576105ed6137a9565b86815260a0602082015260006139a960a08301878961383a565b60408301959095525060608101929092526001600160a01b03166080909101529392505050565b8381526001600160a01b03831660208201526060604082018190526000906139fa908301846130f4565b95945050505050565b60008151613a158185602086016130d0565b9290920192915050565b66169696ae372e3760c91b815260008251613a418160078501602087016130d0565b9190910160070192915050565b6e7b226e616d65223a2247616d65202360881b81528551600090613a7981600f850160208b016130d0565b672c204d6f7665202360c01b600f918401918201528651613aa1816017840160208b016130d0565b701116113232b9b1b934b83a34b7b7111d1160791b601792909101918201528551613ad3816028840160208a016130d0565b7f222c22616e696d6174696f6e5f75726c223a22646174613a746578742f68746d60289290910191820152681b0ed8985cd94d8d0b60ba1b60488201528451613b238160518401602089016130d0565b6f222c2261747472696275746573223a5b60801b60519290910191820152613b5f613b516061830186613a03565b615d7d60f01b815260020190565b98975050505050505050565b7f646174613a6170706c69636174696f6e2f6a736f6e3b6261736536342c000000815260008251613ba381601d8501602087016130d0565b91909101601d0192915050565b7f7b2274726169745f74797065223a2244696d656e73696f6e222c2276616c7565815262111d1160e91b602082015260008351613bf48160238501602088016130d0565b6301061cb960e51b6023918401918201528351613c188160278401602088016130d0565b61227d60f01b60279290910191820152602901949350505050565b7f3c7374796c653e3a726f6f747b2d2d613a3130303070783b2d2d623a00000000815260008251613c6b81601c8501602087016130d0565b641d9696b19d60d91b601c939091019283015250602101919050565b60008351613c998184602088016130d0565b7f2c7b2274726169745f74797065223a22476170222c2276616c7565223a2200009083019081528351613cd381601e8401602088016130d0565b61227d60f01b601e9290910191820152602001949350505050565b60008351613d008184602088016130d0565b835190830190613d148183602088016130d0565b66383c1d9696b21d60c91b9101908152600701949350505050565b60008351613d418184602088016130d0565b80830190507f2c7b2274726169745f74797065223a22486569676874222c2276616c7565223a8152601160f91b60208201528351613d868160218401602088016130d0565b61227d60f01b60219290910191820152602301949350505050565b60008351613db38184602088016130d0565b835190830190613dc78183602088016130d0565b6270783b60e81b9101908152600301949350505050565b60008351613df08184602088016130d0565b80830190507f2c7b2274726169745f74797065223a224261736520436f6c6f72222c2276616c8152633ab2911d60e11b60208201528351613e388160248401602088016130d0565b607d60f81b60249290910191820152602501949350505050565b60008351613e648184602088016130d0565b80830190507f2c7b2274726169745f74797065223a22436f6c6f72205468656d65222c227661815265363ab2911d1160d11b60208201528351613eae8160268401602088016130d0565b61227d60f01b60269290910191820152602801949350505050565b60008351613edb8184602088016130d0565b80830190507f2c7b2274726169745f74797065223a22436f6c6f722047656e65726174696f6e81526a1116113b30b63ab2911d1160a91b60208201528351613f2a81602b8401602088016130d0565b61227d60f01b602b9290910191820152602d01949350505050565b60008751613f57818460208c016130d0565b631696b29d60e11b9083019081528751613f78816004840160208c016130d0565b641d9696b31d60d91b600492909101918201528651613f9e816009840160208b016130d0565b641d9696b39d60d91b600992909101918201528551613fc481600e840160208a016130d0565b641d9696b41d60d91b600e92909101918201528451613fea8160138401602089016130d0565b641d9696b49d60d91b6013929091019182015261316961400d6018830186613a03565b603b60f81b815260010190565b60008551602061402d8285838b016130d0565b8651918401916140408184848b016130d0565b86519201916140528184848a016130d0565b7f2c316672293b677269642d74656d706c6174652d726f77733a7265706561742892019182528451614089818385018489016130d0565b7f2c316672293b7472616e73666f726d3a726f746174652832313064656729736b9201908101919091527f6577282d3330646567297363616c655928302e383634297d000000000000000060408201526058019695505050505050565b600083516140f88184602088016130d0565b80830190507f2c7b2274726169745f74797065223a2242697420426f72646572222c2276616c8152643ab2911d1160d91b602082015283516141418160258401602088016130d0565b61227d60f01b60259290910191820152602701949350505050565b6000875161416e818460208c016130d0565b61173960f11b908301908152875161418d816002840160208c016130d0565b7403dba37b81d31b0b631943b30b9141696b79490159605d1b6002929091019182015286516141c3816017840160208b016130d0565b7f2a28766172282d2d6e292f32202b20766172282d2d632929297d2e6300000000601792909101918201528551614201816033840160208a016130d0565b7303db632b33a1d31b0b631943b30b9141696b814960651b6033929091019182015284516142368160478401602089016130d0565b661018171c1b1b1560c91b6047929091019182015261316961425b604e830186613a03565b7f2a28766172282d2d6e29202b20766172282d2d632929297d0000000000000000815260180190565b600083516142968184602088016130d0565b8351908301906142aa8183602088016130d0565b01949350505050565b600083516142c58184602088016130d0565b701e17b9ba3cb6329f1e39b2b1ba34b7b71f60791b90830190815283516142f38160118401602088016130d0565b691e17b9b2b1ba34b7b71f60b11b60119290910191820152601b01949350505050565b600082516143288184602087016130d0565b600160fd1b920191825250600101919050565b6000855161434d818460208a016130d0565b855190830190614361818360208a016130d0565b85519101906143748183602089016130d0565b84519101906143878183602088016130d0565b019695505050505050565b6000816143a1576143a16137a9565b506000190190565b600082516143bb8184602087016130d0565b7f5c6e20206120622063206420652066206720685c6e6060600000000000000000920191825250601801919050565b6e1e3234bb1031b630b9b99e9131903960891b8152825160009061441581600f8501602088016130d0565b61206360f01b600f9184019182015283516144378160118401602088016130d0565b7f223e3c6469763e3c2f6469763e3c6469763e3c2f6469763e3c6469763e00000060119290910191820152602e01949350505050565b6000835161447f8184602088016130d0565b681e3234bb1034b21e9160b91b90830190815283516144a58160098401602088016130d0565b67111f1e17b234bb1f60c11b60099290910191820152601101949350505050565b600082516144d88184602087016130d0565b6b1e17b234bb1f1e17b234bb1f60a11b920191825250600c01919050565b6040815260006145096040830185613434565b82810360208401526139fa8185613434565b6001600160a01b03868116825285166020820152604081018490526060810183905260a060808201819052600090614555908301846130f4565b979650505050505050565b60006020828403121561457257600080fd5b8151612ec681613084565b6001600160a01b0386811682528516602082015260a0604082018190526000906145a990830186613434565b82810360608401526145bb8186613434565b90508281036080840152613b5f81856130f456fe4142434445464748494a4b4c4d4e4f505152535455565758595a6162636465666768696a6b6c6d6e6f707172737475767778797a303132333435363738392b2f2d2d6e3a63616c6328283339347078202d2028766172282d2d6229202d2031292a766172282d2d6329292f766172282d2d6229293b2d2d6f3a63616c63283130367078202b20766172282d2d6e29293b2d2d703a63616c6328766172282d2d61292f32297d73656374696f6e7b6865696768743a766172282d2d61293b77696474683a766172282d2d61293b6261636b67726f756e643a766172282d2d65293b706f736974696f6e3a6162736f6c7574653b6c6566743a303b746f703a303b72696768743a303b626f74746f6d3a303b6f766572666c6f773a68696464656e7d2e637b6865696768743a303b77696474683a303b706f736974696f6e3a6162736f6c7574653b7472616e736974696f6e3a302e3235737d2e633a686f7665727b7472616e73666f726d3a7472616e736c617465283070782c2d36347078293b7472616e736974696f6e3a302e3235737d2e633e2a7b6865696768743a766172282d2d6e293b77696474683a766172282d2d6e293b626f726465722d626f74746f6d3a34707820736f6c696420626c61636b3b626f726465722d72696768743a34707820736f6c696420626c61636b3b626f726465722d6c6566743a31707820736f6c696420626c61636b3b626f726465722d746f703a31707820736f6c696420626c61636b3b7472616e73666f726d2d6f726967696e3a3020303b706f736974696f6e3a72656c61746976653b626f782d73697a696e673a626f726465722d626f787d2e633e2a3a6e74682d6368696c642831297b77696474683a766172282d2d64293b6261636b67726f756e642d636f6c6f723a766172282d2d66293b7472616e73666f726d3a726f7461746528393064656729736b657758282d3330646567297363616c655928302e383634297d2e633e2a3a6e74682d6368696c642832297b6865696768743a766172282d2d64293b626f74746f6d3a766172282d2d6e293b6261636b67726f756e642d636f6c6f723a766172282d2d67293b7472616e73666f726d3a726f74617465282d333064656729736b657758282d3330646567297363616c655928302e383634297d23687b6261636b67726f756e642d636f6c6f723a766172282d2d68297d23697b6261636b67726f756e642d636f6c6f723a766172282d2d69297d2e633e2a3a6e74682d6368696c642833297b626f74746f6d3a63616c6328766172282d2d6429202b20766172282d2d6e29293b6261636b67726f756e642d636f6c6f723a766172282d2d68293b646973706c61793a677269643b677269642d74656d706c6174652d636f6c756d6e733a72657065617428a2646970667358221220f3caff0113c4ed1bb73b81fd12a7a44dbf7d5257994fcfa83136002ed498135664736f6c63430008140033",
  "devdoc": {
    "errors": {
      "ERC1155InsufficientBalance(address,uint256,uint256,uint256)": [
        {
          "details": "Indicates an error related to the current `balance` of a `sender`. Used in transfers.",
          "params": {
            "balance": "Current balance for the interacting account.",
            "needed": "Minimum amount required to perform a transfer.",
            "sender": "Address whose tokens are being transferred.",
            "tokenId": "Identifier number of a token."
          }
        }
      ],
      "ERC1155InvalidApprover(address)": [
        {
          "details": "Indicates a failure with the `approver` of a token to be approved. Used in approvals.",
          "params": {
            "approver": "Address initiating an approval operation."
          }
        }
      ],
      "ERC1155InvalidArrayLength(uint256,uint256)": [
        {
          "details": "Indicates an array length mismatch between ids and values in a safeBatchTransferFrom operation. Used in batch transfers.",
          "params": {
            "idsLength": "Length of the array of token identifiers",
            "valuesLength": "Length of the array of token amounts"
          }
        }
      ],
      "ERC1155InvalidOperator(address)": [
        {
          "details": "Indicates a failure with the `operator` to be approved. Used in approvals.",
          "params": {
            "operator": "Address that may be allowed to operate on tokens without being their owner."
          }
        }
      ],
      "ERC1155InvalidReceiver(address)": [
        {
          "details": "Indicates a failure with the token `receiver`. Used in transfers.",
          "params": {
            "receiver": "Address to which tokens are being transferred."
          }
        }
      ],
      "ERC1155InvalidSender(address)": [
        {
          "details": "Indicates a failure with the token `sender`. Used in transfers.",
          "params": {
            "sender": "Address whose tokens are being transferred."
          }
        }
      ],
      "ERC1155MissingApprovalForAll(address,address)": [
        {
          "details": "Indicates a failure with the `operator`s approval. Used in transfers.",
          "params": {
            "operator": "Address that may be allowed to operate on tokens without being their owner.",
            "owner": "Address of the current owner of a token."
          }
        }
      ],
      "OwnableInvalidOwner(address)": [
        {
          "details": "The owner is not a valid owner account. (eg. `address(0)`)"
        }
      ],
      "OwnableUnauthorizedAccount(address)": [
        {
          "details": "The caller account is not authorized to perform an operation."
        }
      ]
    },
    "events": {
      "ApprovalForAll(address,address,bool)": {
        "details": "Emitted when `account` grants or revokes permission to `operator` to transfer their tokens, according to `approved`."
      },
      "TransferBatch(address,address,address,uint256[],uint256[])": {
        "details": "Equivalent to multiple {TransferSingle} events, where `operator`, `from` and `to` are the same for all transfers."
      },
      "TransferSingle(address,address,address,uint256,uint256)": {
        "details": "Emitted when `value` amount of tokens of type `id` are transferred from `from` to `to` by `operator`."
      },
      "URI(string,uint256)": {
        "details": "Emitted when the URI for token type `id` changes to `value`, if it is a non-programmatic URI. If an {URI} event was emitted for `id`, the standard https://eips.ethereum.org/EIPS/eip-1155#metadata-extensions[guarantees] that `value` will equal the value returned by {IERC1155MetadataURI-uri}."
      }
    },
    "kind": "dev",
    "methods": {
      "balanceOf(address,uint256)": {
        "details": "See {IERC1155-balanceOf}."
      },
      "balanceOfBatch(address[],uint256[])": {
        "details": "See {IERC1155-balanceOfBatch}. Requirements: - `accounts` and `ids` must have the same length."
      },
      "isApprovedForAll(address,address)": {
        "details": "See {IERC1155-isApprovedForAll}."
      },
      "owner()": {
        "details": "Returns the address of the current owner."
      },
      "renounceOwnership()": {
        "details": "Leaves the contract without owner. It will not be possible to call `onlyOwner` functions. Can only be called by the current owner. NOTE: Renouncing ownership will leave the contract without an owner, thereby disabling any functionality that is only available to the owner."
      },
      "safeBatchTransferFrom(address,address,uint256[],uint256[],bytes)": {
        "details": "See {IERC1155-safeBatchTransferFrom}."
      },
      "safeTransferFrom(address,address,uint256,uint256,bytes)": {
        "details": "See {IERC1155-safeTransferFrom}."
      },
      "setApprovalForAll(address,bool)": {
        "details": "See {IERC1155-setApprovalForAll}."
      },
      "supportsInterface(bytes4)": {
        "details": "See {IERC165-supportsInterface}."
      },
      "transferOwnership(address)": {
        "details": "Transfers ownership of the contract to a new account (`newOwner`). Can only be called by the current owner."
      }
    },
    "version": 1
  },
  "userdoc": {
    "kind": "user",
    "methods": {},
    "version": 1
  },
  "storageLayout": {
    "storage": [
      {
        "astId": 326,
        "contract": "contracts/DChess.sol:DChess",
        "label": "_balances",
        "offset": 0,
        "slot": "0",
        "type": "t_mapping(t_uint256,t_mapping(t_address,t_uint256))"
      },
      {
        "astId": 332,
        "contract": "contracts/DChess.sol:DChess",
        "label": "_operatorApprovals",
        "offset": 0,
        "slot": "1",
        "type": "t_mapping(t_address,t_mapping(t_address,t_bool))"
      },
      {
        "astId": 334,
        "contract": "contracts/DChess.sol:DChess",
        "label": "_uri",
        "offset": 0,
        "slot": "2",
        "type": "t_string_storage"
      },
      {
        "astId": 8,
        "contract": "contracts/DChess.sol:DChess",
        "label": "_owner",
        "offset": 0,
        "slot": "3",
        "type": "t_address"
      },
      {
        "astId": 5028,
        "contract": "contracts/DChess.sol:DChess",
        "label": "internalTokenCounter",
        "offset": 0,
        "slot": "4",
        "type": "t_uint256"
      },
      {
        "astId": 5030,
        "contract": "contracts/DChess.sol:DChess",
        "label": "tokenMintPrice",
        "offset": 0,
        "slot": "5",
        "type": "t_uint256"
      },
      {
        "astId": 5032,
        "contract": "contracts/DChess.sol:DChess",
        "label": "kFactor",
        "offset": 0,
        "slot": "6",
        "type": "t_uint256"
      },
      {
        "astId": 5034,
        "contract": "contracts/DChess.sol:DChess",
        "label": "platformFee",
        "offset": 0,
        "slot": "7",
        "type": "t_uint256"
      },
      {
        "astId": 5036,
        "contract": "contracts/DChess.sol:DChess",
        "label": "merkleRoot",
        "offset": 0,
        "slot": "8",
        "type": "t_bytes32"
      },
      {
        "astId": 5062,
        "contract": "contracts/DChess.sol:DChess",
        "label": "puzzlesById",
        "offset": 0,
        "slot": "9",
        "type": "t_mapping(t_uint256,t_struct(Puzzle)5057_storage)"
      },
      {
        "astId": 5066,
        "contract": "contracts/DChess.sol:DChess",
        "label": "userRatings",
        "offset": 0,
        "slot": "10",
        "type": "t_mapping(t_address,t_uint256)"
      }
    ],
    "types": {
      "t_address": {
        "encoding": "inplace",
        "label": "address",
        "numberOfBytes": "20"
      },
      "t_bool": {
        "encoding": "inplace",
        "label": "bool",
        "numberOfBytes": "1"
      },
      "t_bytes32": {
        "encoding": "inplace",
        "label": "bytes32",
        "numberOfBytes": "32"
      },
      "t_mapping(t_address,t_bool)": {
        "encoding": "mapping",
        "key": "t_address",
        "label": "mapping(address => bool)",
        "numberOfBytes": "32",
        "value": "t_bool"
      },
      "t_mapping(t_address,t_mapping(t_address,t_bool))": {
        "encoding": "mapping",
        "key": "t_address",
        "label": "mapping(address => mapping(address => bool))",
        "numberOfBytes": "32",
        "value": "t_mapping(t_address,t_bool)"
      },
      "t_mapping(t_address,t_uint256)": {
        "encoding": "mapping",
        "key": "t_address",
        "label": "mapping(address => uint256)",
        "numberOfBytes": "32",
        "value": "t_uint256"
      },
      "t_mapping(t_uint256,t_mapping(t_address,t_uint256))": {
        "encoding": "mapping",
        "key": "t_uint256",
        "label": "mapping(uint256 => mapping(address => uint256))",
        "numberOfBytes": "32",
        "value": "t_mapping(t_address,t_uint256)"
      },
      "t_mapping(t_uint256,t_struct(Puzzle)5057_storage)": {
        "encoding": "mapping",
        "key": "t_uint256",
        "label": "mapping(uint256 => struct DChess.Puzzle)",
        "numberOfBytes": "32",
        "value": "t_struct(Puzzle)5057_storage"
      },
      "t_string_storage": {
        "encoding": "bytes",
        "label": "string",
        "numberOfBytes": "32"
      },
      "t_struct(Puzzle)5057_storage": {
        "encoding": "inplace",
        "label": "struct DChess.Puzzle",
        "members": [
          {
            "astId": 5038,
            "contract": "contracts/DChess.sol:DChess",
            "label": "fen",
            "offset": 0,
            "slot": "0",
            "type": "t_string_storage"
          },
          {
            "astId": 5040,
            "contract": "contracts/DChess.sol:DChess",
            "label": "solution",
            "offset": 0,
            "slot": "1",
            "type": "t_bytes32"
          },
          {
            "astId": 5044,
            "contract": "contracts/DChess.sol:DChess",
            "label": "userHasSolved",
            "offset": 0,
            "slot": "2",
            "type": "t_mapping(t_address,t_bool)"
          },
          {
            "astId": 5048,
            "contract": "contracts/DChess.sol:DChess",
            "label": "userHasAttempted",
            "offset": 0,
            "slot": "3",
            "type": "t_mapping(t_address,t_bool)"
          },
          {
            "astId": 5050,
            "contract": "contracts/DChess.sol:DChess",
            "label": "rating",
            "offset": 0,
            "slot": "4",
            "type": "t_uint256"
          },
          {
            "astId": 5052,
            "contract": "contracts/DChess.sol:DChess",
            "label": "metadata",
            "offset": 0,
            "slot": "5",
            "type": "t_uint256"
          },
          {
            "astId": 5054,
            "contract": "contracts/DChess.sol:DChess",
            "label": "creator",
            "offset": 0,
            "slot": "6",
            "type": "t_address"
          },
          {
            "astId": 5056,
            "contract": "contracts/DChess.sol:DChess",
            "label": "description",
            "offset": 0,
            "slot": "7",
            "type": "t_string_storage"
          }
        ],
        "numberOfBytes": "256"
      },
      "t_uint256": {
        "encoding": "inplace",
        "label": "uint256",
        "numberOfBytes": "32"
      }
    }
  }
}