{
  "address": "0x97bC171F5CAA24781324423b4e562e2CbccE5988",
  "abi": [
    {
      "inputs": [
        {
          "internalType": "address",
          "name": "initialOwner",
          "type": "address"
        },
        {
          "internalType": "address",
          "name": "artAddr",
          "type": "address"
        }
      ],
      "stateMutability": "nonpayable",
      "type": "constructor"
    },
    {
      "inputs": [
        {
          "internalType": "uint256",
          "name": "internalTokenId",
          "type": "uint256"
        }
      ],
      "name": "AlreadyAttempted",
      "type": "error"
    },
    {
      "inputs": [
        {
          "internalType": "address",
          "name": "sender",
          "type": "address"
        },
        {
          "internalType": "uint256",
          "name": "balance",
          "type": "uint256"
        },
        {
          "internalType": "uint256",
          "name": "needed",
          "type": "uint256"
        },
        {
          "internalType": "uint256",
          "name": "tokenId",
          "type": "uint256"
        }
      ],
      "name": "ERC1155InsufficientBalance",
      "type": "error"
    },
    {
      "inputs": [
        {
          "internalType": "address",
          "name": "approver",
          "type": "address"
        }
      ],
      "name": "ERC1155InvalidApprover",
      "type": "error"
    },
    {
      "inputs": [
        {
          "internalType": "uint256",
          "name": "idsLength",
          "type": "uint256"
        },
        {
          "internalType": "uint256",
          "name": "valuesLength",
          "type": "uint256"
        }
      ],
      "name": "ERC1155InvalidArrayLength",
      "type": "error"
    },
    {
      "inputs": [
        {
          "internalType": "address",
          "name": "operator",
          "type": "address"
        }
      ],
      "name": "ERC1155InvalidOperator",
      "type": "error"
    },
    {
      "inputs": [
        {
          "internalType": "address",
          "name": "receiver",
          "type": "address"
        }
      ],
      "name": "ERC1155InvalidReceiver",
      "type": "error"
    },
    {
      "inputs": [
        {
          "internalType": "address",
          "name": "sender",
          "type": "address"
        }
      ],
      "name": "ERC1155InvalidSender",
      "type": "error"
    },
    {
      "inputs": [
        {
          "internalType": "address",
          "name": "operator",
          "type": "address"
        },
        {
          "internalType": "address",
          "name": "owner",
          "type": "address"
        }
      ],
      "name": "ERC1155MissingApprovalForAll",
      "type": "error"
    },
    {
      "inputs": [
        {
          "internalType": "string",
          "name": "s",
          "type": "string"
        }
      ],
      "name": "FENCannotBeEmpty",
      "type": "error"
    },
    {
      "inputs": [
        {
          "internalType": "uint256",
          "name": "amountSent",
          "type": "uint256"
        },
        {
          "internalType": "uint256",
          "name": "requiredAmount",
          "type": "uint256"
        }
      ],
      "name": "IncorrectMessageValue",
      "type": "error"
    },
    {
      "inputs": [
        {
          "internalType": "uint256",
          "name": "internalTokenId",
          "type": "uint256"
        },
        {
          "internalType": "uint256",
          "name": "metadata",
          "type": "uint256"
        }
      ],
      "name": "InvalidMetadata",
      "type": "error"
    },
    {
      "inputs": [
        {
          "internalType": "uint256",
          "name": "internalTokenId",
          "type": "uint256"
        }
      ],
      "name": "InvalidPuzzle",
      "type": "error"
    },
    {
      "inputs": [
        {
          "internalType": "address",
          "name": "owner",
          "type": "address"
        }
      ],
      "name": "OwnableInvalidOwner",
      "type": "error"
    },
    {
      "inputs": [
        {
          "internalType": "address",
          "name": "account",
          "type": "address"
        }
      ],
      "name": "OwnableUnauthorizedAccount",
      "type": "error"
    },
    {
      "inputs": [
        {
          "internalType": "uint256",
          "name": "internalTokenId",
          "type": "uint256"
        }
      ],
      "name": "PuzzleNotSolved",
      "type": "error"
    },
    {
      "inputs": [
        {
          "internalType": "bytes32",
          "name": "b",
          "type": "bytes32"
        }
      ],
      "name": "SolutionCannotBeEmpty",
      "type": "error"
    },
    {
      "inputs": [
        {
          "internalType": "uint256",
          "name": "tokenId",
          "type": "uint256"
        }
      ],
      "name": "TokenDoesNotExist",
      "type": "error"
    },
    {
      "inputs": [
        {
          "internalType": "address",
          "name": "user",
          "type": "address"
        }
      ],
      "name": "UserNotAuthorized",
      "type": "error"
    },
    {
      "anonymous": false,
      "inputs": [
        {
          "indexed": true,
          "internalType": "address",
          "name": "account",
          "type": "address"
        },
        {
          "indexed": true,
          "internalType": "address",
          "name": "operator",
          "type": "address"
        },
        {
          "indexed": false,
          "internalType": "bool",
          "name": "approved",
          "type": "bool"
        }
      ],
      "name": "ApprovalForAll",
      "type": "event"
    },
    {
      "anonymous": false,
      "inputs": [
        {
          "indexed": true,
          "internalType": "address",
          "name": "previousOwner",
          "type": "address"
        },
        {
          "indexed": true,
          "internalType": "address",
          "name": "newOwner",
          "type": "address"
        }
      ],
      "name": "OwnershipTransferred",
      "type": "event"
    },
    {
      "anonymous": false,
      "inputs": [
        {
          "indexed": false,
          "internalType": "uint256",
          "name": "internalTokenId",
          "type": "uint256"
        },
        {
          "indexed": false,
          "internalType": "string",
          "name": "fen",
          "type": "string"
        },
        {
          "indexed": false,
          "internalType": "bytes32",
          "name": "solutionHash",
          "type": "bytes32"
        },
        {
          "indexed": false,
          "internalType": "uint256",
          "name": "board",
          "type": "uint256"
        },
        {
          "indexed": false,
          "internalType": "address",
          "name": "creator",
          "type": "address"
        },
        {
          "indexed": false,
          "internalType": "string",
          "name": "description",
          "type": "string"
        }
      ],
      "name": "PuzzleAdded",
      "type": "event"
    },
    {
      "anonymous": false,
      "inputs": [
        {
          "indexed": false,
          "internalType": "uint256",
          "name": "internalTokenId",
          "type": "uint256"
        },
        {
          "indexed": false,
          "internalType": "address",
          "name": "user",
          "type": "address"
        },
        {
          "indexed": false,
          "internalType": "bytes",
          "name": "solutionSubmission",
          "type": "bytes"
        }
      ],
      "name": "PuzzleAttempted",
      "type": "event"
    },
    {
      "anonymous": false,
      "inputs": [
        {
          "indexed": false,
          "internalType": "uint256",
          "name": "internalTokenId",
          "type": "uint256"
        },
        {
          "indexed": false,
          "internalType": "uint256",
          "name": "newPuzzleRating",
          "type": "uint256"
        }
      ],
      "name": "PuzzleRatingChanged",
      "type": "event"
    },
    {
      "anonymous": false,
      "inputs": [
        {
          "indexed": false,
          "internalType": "uint256",
          "name": "internalTokenId",
          "type": "uint256"
        },
        {
          "indexed": false,
          "internalType": "address",
          "name": "user",
          "type": "address"
        }
      ],
      "name": "PuzzleSolved",
      "type": "event"
    },
    {
      "anonymous": false,
      "inputs": [
        {
          "indexed": false,
          "internalType": "uint256",
          "name": "internalTokenId",
          "type": "uint256"
        },
        {
          "indexed": false,
          "internalType": "address",
          "name": "solver",
          "type": "address"
        }
      ],
      "name": "TokenMinted",
      "type": "event"
    },
    {
      "anonymous": false,
      "inputs": [
        {
          "indexed": true,
          "internalType": "address",
          "name": "operator",
          "type": "address"
        },
        {
          "indexed": true,
          "internalType": "address",
          "name": "from",
          "type": "address"
        },
        {
          "indexed": true,
          "internalType": "address",
          "name": "to",
          "type": "address"
        },
        {
          "indexed": false,
          "internalType": "uint256[]",
          "name": "ids",
          "type": "uint256[]"
        },
        {
          "indexed": false,
          "internalType": "uint256[]",
          "name": "values",
          "type": "uint256[]"
        }
      ],
      "name": "TransferBatch",
      "type": "event"
    },
    {
      "anonymous": false,
      "inputs": [
        {
          "indexed": true,
          "internalType": "address",
          "name": "operator",
          "type": "address"
        },
        {
          "indexed": true,
          "internalType": "address",
          "name": "from",
          "type": "address"
        },
        {
          "indexed": true,
          "internalType": "address",
          "name": "to",
          "type": "address"
        },
        {
          "indexed": false,
          "internalType": "uint256",
          "name": "id",
          "type": "uint256"
        },
        {
          "indexed": false,
          "internalType": "uint256",
          "name": "value",
          "type": "uint256"
        }
      ],
      "name": "TransferSingle",
      "type": "event"
    },
    {
      "anonymous": false,
      "inputs": [
        {
          "indexed": false,
          "internalType": "string",
          "name": "value",
          "type": "string"
        },
        {
          "indexed": true,
          "internalType": "uint256",
          "name": "id",
          "type": "uint256"
        }
      ],
      "name": "URI",
      "type": "event"
    },
    {
      "anonymous": false,
      "inputs": [
        {
          "indexed": false,
          "internalType": "address",
          "name": "user",
          "type": "address"
        },
        {
          "indexed": false,
          "internalType": "uint256",
          "name": "newUserRating",
          "type": "uint256"
        }
      ],
      "name": "UserRatingChanged",
      "type": "event"
    },
    {
      "anonymous": false,
      "inputs": [
        {
          "indexed": false,
          "internalType": "uint256",
          "name": "amount",
          "type": "uint256"
        }
      ],
      "name": "WithdrawAll",
      "type": "event"
    },
    {
      "inputs": [
        {
          "internalType": "string",
          "name": "fen",
          "type": "string"
        },
        {
          "internalType": "bytes32",
          "name": "solution",
          "type": "bytes32"
        },
        {
          "internalType": "uint256",
          "name": "metadata",
          "type": "uint256"
        },
        {
          "internalType": "string",
          "name": "description",
          "type": "string"
        },
        {
          "internalType": "bytes32[]",
          "name": "proof",
          "type": "bytes32[]"
        }
      ],
      "name": "addPuzzle",
      "outputs": [],
      "stateMutability": "nonpayable",
      "type": "function"
    },
    {
      "inputs": [
        {
          "internalType": "address",
          "name": "account",
          "type": "address"
        },
        {
          "internalType": "uint256",
          "name": "id",
          "type": "uint256"
        }
      ],
      "name": "balanceOf",
      "outputs": [
        {
          "internalType": "uint256",
          "name": "",
          "type": "uint256"
        }
      ],
      "stateMutability": "view",
      "type": "function"
    },
    {
      "inputs": [
        {
          "internalType": "address[]",
          "name": "accounts",
          "type": "address[]"
        },
        {
          "internalType": "uint256[]",
          "name": "ids",
          "type": "uint256[]"
        }
      ],
      "name": "balanceOfBatch",
      "outputs": [
        {
          "internalType": "uint256[]",
          "name": "",
          "type": "uint256[]"
        }
      ],
      "stateMutability": "view",
      "type": "function"
    },
    {
      "inputs": [],
      "name": "internalTokenCounter",
      "outputs": [
        {
          "internalType": "uint256",
          "name": "",
          "type": "uint256"
        }
      ],
      "stateMutability": "view",
      "type": "function"
    },
    {
      "inputs": [
        {
          "internalType": "address",
          "name": "account",
          "type": "address"
        },
        {
          "internalType": "address",
          "name": "operator",
          "type": "address"
        }
      ],
      "name": "isApprovedForAll",
      "outputs": [
        {
          "internalType": "bool",
          "name": "",
          "type": "bool"
        }
      ],
      "stateMutability": "view",
      "type": "function"
    },
    {
      "inputs": [
        {
          "internalType": "address",
          "name": "user",
          "type": "address"
        },
        {
          "internalType": "bytes32[]",
          "name": "proof",
          "type": "bytes32[]"
        }
      ],
      "name": "isWhitelisted",
      "outputs": [
        {
          "internalType": "bool",
          "name": "",
          "type": "bool"
        }
      ],
      "stateMutability": "view",
      "type": "function"
    },
    {
      "inputs": [],
      "name": "kFactor",
      "outputs": [
        {
          "internalType": "uint256",
          "name": "",
          "type": "uint256"
        }
      ],
      "stateMutability": "view",
      "type": "function"
    },
    {
      "inputs": [],
      "name": "merkleRoot",
      "outputs": [
        {
          "internalType": "bytes32",
          "name": "",
          "type": "bytes32"
        }
      ],
      "stateMutability": "view",
      "type": "function"
    },
    {
      "inputs": [
        {
          "internalType": "uint256",
          "name": "internalTokenId",
          "type": "uint256"
        },
        {
          "internalType": "uint256",
          "name": "count",
          "type": "uint256"
        }
      ],
      "name": "mint",
      "outputs": [],
      "stateMutability": "payable",
      "type": "function"
    },
    {
      "inputs": [],
      "name": "owner",
      "outputs": [
        {
          "internalType": "address",
          "name": "",
          "type": "address"
        }
      ],
      "stateMutability": "view",
      "type": "function"
    },
    {
      "inputs": [],
      "name": "platformFee",
      "outputs": [
        {
          "internalType": "uint256",
          "name": "",
          "type": "uint256"
        }
      ],
      "stateMutability": "view",
      "type": "function"
    },
    {
      "inputs": [
        {
          "internalType": "uint256",
          "name": "",
          "type": "uint256"
        }
      ],
      "name": "puzzlesById",
      "outputs": [
        {
          "internalType": "string",
          "name": "fen",
          "type": "string"
        },
        {
          "internalType": "bytes32",
          "name": "solution",
          "type": "bytes32"
        },
        {
          "internalType": "uint256",
          "name": "rating",
          "type": "uint256"
        },
        {
          "internalType": "uint256",
          "name": "metadata",
          "type": "uint256"
        },
        {
          "internalType": "address",
          "name": "creator",
          "type": "address"
        },
        {
          "internalType": "string",
          "name": "description",
          "type": "string"
        }
      ],
      "stateMutability": "view",
      "type": "function"
    },
    {
      "inputs": [],
      "name": "renounceOwnership",
      "outputs": [],
      "stateMutability": "nonpayable",
      "type": "function"
    },
    {
      "inputs": [
        {
          "internalType": "address",
          "name": "from",
          "type": "address"
        },
        {
          "internalType": "address",
          "name": "to",
          "type": "address"
        },
        {
          "internalType": "uint256[]",
          "name": "ids",
          "type": "uint256[]"
        },
        {
          "internalType": "uint256[]",
          "name": "values",
          "type": "uint256[]"
        },
        {
          "internalType": "bytes",
          "name": "data",
          "type": "bytes"
        }
      ],
      "name": "safeBatchTransferFrom",
      "outputs": [],
      "stateMutability": "nonpayable",
      "type": "function"
    },
    {
      "inputs": [
        {
          "internalType": "address",
          "name": "from",
          "type": "address"
        },
        {
          "internalType": "address",
          "name": "to",
          "type": "address"
        },
        {
          "internalType": "uint256",
          "name": "id",
          "type": "uint256"
        },
        {
          "internalType": "uint256",
          "name": "value",
          "type": "uint256"
        },
        {
          "internalType": "bytes",
          "name": "data",
          "type": "bytes"
        }
      ],
      "name": "safeTransferFrom",
      "outputs": [],
      "stateMutability": "nonpayable",
      "type": "function"
    },
    {
      "inputs": [
        {
          "internalType": "address",
          "name": "operator",
          "type": "address"
        },
        {
          "internalType": "bool",
          "name": "approved",
          "type": "bool"
        }
      ],
      "name": "setApprovalForAll",
      "outputs": [],
      "stateMutability": "nonpayable",
      "type": "function"
    },
    {
      "inputs": [
        {
          "internalType": "uint256",
          "name": "_kFactor",
          "type": "uint256"
        }
      ],
      "name": "setKFactor",
      "outputs": [],
      "stateMutability": "nonpayable",
      "type": "function"
    },
    {
      "inputs": [
        {
          "internalType": "bytes32",
          "name": "_merkleRoot",
          "type": "bytes32"
        }
      ],
      "name": "setMerkleRoot",
      "outputs": [],
      "stateMutability": "nonpayable",
      "type": "function"
    },
    {
      "inputs": [
        {
          "internalType": "uint256",
          "name": "_fee",
          "type": "uint256"
        }
      ],
      "name": "setPlatformFee",
      "outputs": [],
      "stateMutability": "nonpayable",
      "type": "function"
    },
    {
      "inputs": [
        {
          "internalType": "uint256",
          "name": "_price",
          "type": "uint256"
        }
      ],
      "name": "setTokenMintPrice",
      "outputs": [],
      "stateMutability": "nonpayable",
      "type": "function"
    },
    {
      "inputs": [
        {
          "internalType": "uint256",
          "name": "internalTokenId",
          "type": "uint256"
        },
        {
          "internalType": "bytes",
          "name": "solution",
          "type": "bytes"
        }
      ],
      "name": "submitSolution",
      "outputs": [
        {
          "internalType": "bool",
          "name": "",
          "type": "bool"
        }
      ],
      "stateMutability": "nonpayable",
      "type": "function"
    },
    {
      "inputs": [
        {
          "internalType": "bytes4",
          "name": "interfaceId",
          "type": "bytes4"
        }
      ],
      "name": "supportsInterface",
      "outputs": [
        {
          "internalType": "bool",
          "name": "",
          "type": "bool"
        }
      ],
      "stateMutability": "view",
      "type": "function"
    },
    {
      "inputs": [],
      "name": "tokenMintPrice",
      "outputs": [
        {
          "internalType": "uint256",
          "name": "",
          "type": "uint256"
        }
      ],
      "stateMutability": "view",
      "type": "function"
    },
    {
      "inputs": [
        {
          "internalType": "address",
          "name": "newOwner",
          "type": "address"
        }
      ],
      "name": "transferOwnership",
      "outputs": [],
      "stateMutability": "nonpayable",
      "type": "function"
    },
    {
      "inputs": [
        {
          "internalType": "uint256",
          "name": "internalTokenId",
          "type": "uint256"
        }
      ],
      "name": "uri",
      "outputs": [
        {
          "internalType": "string",
          "name": "",
          "type": "string"
        }
      ],
      "stateMutability": "view",
      "type": "function"
    },
    {
      "inputs": [
        {
          "internalType": "uint256",
          "name": "internalTokenId",
          "type": "uint256"
        },
        {
          "internalType": "address",
          "name": "user",
          "type": "address"
        }
      ],
      "name": "userHasAttemptedPuzzle",
      "outputs": [
        {
          "internalType": "bool",
          "name": "",
          "type": "bool"
        }
      ],
      "stateMutability": "view",
      "type": "function"
    },
    {
      "inputs": [
        {
          "internalType": "uint256",
          "name": "internalTokenId",
          "type": "uint256"
        },
        {
          "internalType": "address",
          "name": "user",
          "type": "address"
        }
      ],
      "name": "userHasSolvedPuzzle",
      "outputs": [
        {
          "internalType": "bool",
          "name": "",
          "type": "bool"
        }
      ],
      "stateMutability": "view",
      "type": "function"
    },
    {
      "inputs": [
        {
          "internalType": "address",
          "name": "",
          "type": "address"
        }
      ],
      "name": "userRatings",
      "outputs": [
        {
          "internalType": "uint256",
          "name": "",
          "type": "uint256"
        }
      ],
      "stateMutability": "view",
      "type": "function"
    },
    {
      "inputs": [],
      "name": "withdrawAll",
      "outputs": [],
      "stateMutability": "nonpayable",
      "type": "function"
    }
  ],
  "transactionHash": "0x38e96e9fc33ebf42f9628102c5782ee4932eb5b772394b322ffab7b1552ba4dc",
  "args": [
    "0x4489C7836eBE6aBf8a95Ad87877E8123e5F20A25",
    "0xF88d1A613f5608020AE28f85c9E21bb6bcf58E7C"
  ],
  "numDeployments": 1,
  "solcInputHash": "469717d1252555ed291e6e2ba7dfd062",
  "bytecode": "0x608034620001c0576001600160401b0390620025df90601f38839003908101601f191682019084821183831017620001aa5780839160409586948552833981010312620001c0576200005f60206200005783620001c5565b9201620001c5565b8251936020850190811185821017620001aa57835260008094526002546001908181811c911680156200019f575b60208210146200018b57601f811162000141575b505060028490556001600160a01b039182169384156200012a57600380546001600160a01b03198082168817909255945195909484167f8be0079c531659141344cd1fd0a4f28419497f9722a3daafe3b4186f6b6457e08380a366071afd498d000060055560326006556028600755600855169060095416176009556124049081620001db8239f35b602490845190631e4fbdf760e01b82526004820152fd5b60028652601f0160051c7f405787fa12a823e0f2b7631cc41b3ba8828b3321ca811111fa75cd3aa3bb5ace908101905b818110620001805750620000a1565b868155820162000171565b634e487b7160e01b86526022600452602486fd5b90607f16906200008d565b634e487b7160e01b600052604160045260246000fd5b600080fd5b51906001600160a01b0382168203620001c05756fe6080604052600436101561001257600080fd5b60003560e01c8062fdd58e146101e657806301ffc9a7146101e1578063031fc540146101dc5780630e89341c146101d757806312e8e2c3146101d25780631b2ef1ca146101cd57806326232a2e146101c85780632eb2c2d6146101c35780632eb4a7ab146101be578063342e4cbf146101b95780633924727d146101b457806349aeaf16146101af5780634e1273f4146101aa5780635a23dd99146101a557806363a86201146101a0578063715018a61461019b5780637cb6475914610196578063853828b6146101915780638a062ab71461018c5780638da5cb5b14610187578063900f58fc14610182578063a22cb4651461017d578063a2dfe7b514610178578063c1fa647814610173578063e84dee6b1461016e578063e985e9c514610169578063f242432a14610164578063f2fde38b1461015f5763f844bb2a1461015a57600080fd5b611280565b6111f2565b6110d5565b611084565b611047565b610ebb565b610e6d565b610db1565b610d77565b610d4e565b610d2d565b610cc5565b610ca4565b610c46565b610bf1565b610ba3565b610aba565b610a57565b610a39565b610a1b565b6109fd565b6108d5565b6107e0565b61064d565b61062c565b610526565b61047c565b61028f565b610230565b600435906001600160a01b038216820361020157565b600080fd5b602435906001600160a01b038216820361020157565b35906001600160a01b038216820361020157565b3461020157604036600319011261020157602061027461024e6101eb565b6024356000526000835260406000209060018060a01b0316600052602052604060002090565b54604051908152f35b6001600160e01b031981160361020157565b346102015760203660031901126102015760206004356102ae8161027d565b63ffffffff60e01b16636cdb3d1360e11b81149081156102ec575b81156102db575b506040519015158152f35b6301ffc9a760e01b149050386102d0565b6303a24d0760e21b811491506102c9565b90600182811c9216801561032d575b602083101461031757565b634e487b7160e01b600052602260045260246000fd5b91607f169161030c565b634e487b7160e01b600052604160045260246000fd5b604081019081106001600160401b0382111761036857604052565b610337565b90601f801991011681019081106001600160401b0382111761036857604052565b90604051918260008254926103a2846102fd565b90818452600194858116908160001461041157506001146103ce575b50506103cc9250038361036d565b565b9093915060005260209081600020936000915b8183106103f95750506103cc935082010138806103be565b855488840185015294850194879450918301916103e1565b9150506103cc94506020925060ff191682840152151560051b82010138806103be565b60005b8381106104475750506000910152565b8181015183820152602001610437565b9060209161047081518092818552858086019101610434565b601f01601f1916010190565b3461020157602036600319011261020157600435600052600a6020526104ec604060002061050e6104ac8261038e565b9160018101549060048101549060058101546104d7600760018060a01b03600685015416930161038e565b9260405197889760c0895260c0890190610457565b94602088015260408701526060860152608085015283820360a0850152610457565b0390f35b906020610523928181520190610457565b90565b346102015760208060031936011261020157600954600480356000818152600a85526040808220600501549051631d1dfbe960e21b815293840192909252602483019190915292918390829060449082906001600160a01b03165afa91821561062757839261059e575b6040518061050e8582610512565b9091503d8084843e6105b0818461036d565b820191818184031261061f578051906001600160401b03821161062357019082601f8301121561061f578151936105e685610873565b936105f4604051958661036d565b85855282868501011161061c575092610615918461050e9585019101610434565b3880610590565b80fd5b8380fd5b8480fd5b6116e5565b34610201576020366003190112610201576106456112c9565b600435600755005b6040366003190112610201576004356024359060055461066d8382611cc0565b34036107ae57506001821061078e5761069081600052600a602052604060002090565b33600090815260028201602052604090209092906106b8906106b4905b5460ff1690565b1590565b61077157600061073961072d61072d600684977f3a5398bda6f1f57d6c96834fa9bf02b5517bdc847d14312015a917ba421c31c961071c8799610706899a6106fe6116f1565b908333611d0e565b6040805191825233602083015290918291820190565b0390a101546001600160a01b031690565b6001600160a01b031690565b61075761075061074a600754611cd3565b34611cc0565b6064900490565b90828215610768575bf11561062757005b506108fc610760565b60405163f88c066b60e01b815260048101839052602490fd5b0390fd5b604051631d35f4cf60e31b81526000600482018190526024820152604490fd5b6107bb8361078a92611cc0565b604051631d35f4cf60e31b815234600482015260248101919091529081906044820190565b34610201576000366003190112610201576020600754604051908152f35b6001600160401b0381116103685760051b60200190565b81601f820112156102015780359161082c836107fe565b9261083a604051948561036d565b808452602092838086019260051b820101928311610201578301905b828210610864575050505090565b81358152908301908301610856565b6001600160401b03811161036857601f01601f191660200190565b81601f82011215610201578035906108a582610873565b926108b3604051948561036d565b8284526020838301011161020157816000926020809301838601378301015290565b346102015760a0366003190112610201576108ee6101eb565b6108f6610206565b90604435916001600160401b03908184116102015761091a60049436908601610815565b90606435838111610201576109329036908701610815565b926084359081116102015761094a903690870161088e565b936001600160a01b038082169033821415806109d9575b6109ac57831615610994571561097d5761097b955061140e565b005b604051626a0d4560e21b8152600081880152602490fd5b604051632bfa23e760e11b8152600081890152602490fd5b6040805163711bec9160e11b815233818b019081526001600160a01b038616602082015290918291010390fd5b50600082815260016020908152604080832033845290915290205460ff1615610961565b34610201576000366003190112610201576020600854604051908152f35b34610201576000366003190112610201576020600654604051908152f35b34610201576000366003190112610201576020600454604051908152f35b34610201576000366003190112610201576020600554604051908152f35b90815180825260208080930193019160005b828110610a95575050505090565b835185529381019392810192600101610a87565b906020610523928181520190610a75565b34610201576040366003190112610201576004356001600160401b038082116102015736602383011215610201578160040135610af6816107fe565b92610b04604051948561036d565b81845260209160248386019160051b8301019136831161020157602401905b828210610b5c57856024358681116102015761050e91610b4a610b50923690600401610815565b90611349565b60405191829182610aa9565b838091610b688461021c565b815201910190610b23565b9181601f84011215610201578235916001600160401b038311610201576020808501948460051b01011161020157565b3461020157604036600319011261020157610bbc6101eb565b6024356001600160401b03811161020157602091610be1610be7923690600401610b73565b91611e54565b6040519015158152f35b3461020157604036600319011261020157602060ff610c3a610c11610206565b600435600052600a845260026040600020019060018060a01b0316600052602052604060002090565b54166040519015158152f35b346102015760008060031936011261061c57610c606112c9565b600380546001600160a01b0319811690915581906001600160a01b03167f8be0079c531659141344cd1fd0a4f28419497f9722a3daafe3b4186f6b6457e08280a380f35b3461020157602036600319011261020157610cbd6112c9565b600435600855005b346102015760008060031936011261061c5747818080808460018060a01b0360035416828215610d24575bf1156106275760207f3d5a341dc6a12221fcf31279cef3771f8fad757b2d9261f97605ccc17c25742491604051908152a180f35b506108fc610cf0565b3461020157602036600319011261020157610d466112c9565b600435600655005b34610201576000366003190112610201576003546040516001600160a01b039091168152602090f35b34610201576020366003190112610201576001600160a01b03610d986101eb565b16600052600b6020526020604060002054604051908152f35b3461020157604036600319011261020157610dca6101eb565b6024359081151590818303610201576001600160a01b038116928315610e5557610e16610e279233600052600160205260406000209060018060a01b0316600052602052604060002090565b9060ff801983541691151516179055565b6040519081527f17307eab39ab6107e8899845ad3d59bd9653f200f220920489ca2b5937696c3160203392a3005b60405162ced3e160e81b815260006004820152602490fd5b3461020157602036600319011261020157610e866112c9565b600435600555005b9181601f84011215610201578235916001600160401b038311610201576020838186019501011161020157565b346102015760a0366003190112610201576001600160401b036004803582811161020157610eec9036908301610e8e565b91602435936044359460643582811161020157610f0c9036908501610e8e565b939092608435908111610201576106b4610f2c610f339236908501610b73565b9033611e54565b61102957851561100c578615610fe85786610fe3949392610fd5610fd0847f3b225aacde4bd45cee181b834a54e02b46c031b9505b7f8a6179ca01cc2244a19b60058b610f988e995499610f918b600052600a602052604060002090565b9283611a47565b600181018790556006810180546001600160a01b031916331790556103e881850155610fc88b8b60078401611a47565b01555461162c565b600455565b604051978897339489611b0e565b0390a1005b805460408051636316501d60e11b8152928301918252602082018990528291010390fd5b849061078a876040519384936368cd81e760e01b855284016119e2565b6040516310f8e8d760e31b8152339181019182529081906020010390fd5b34610201576040366003190112610201576024356001600160401b03811161020157610be761107c602092369060040161088e565b600435611b80565b3461020157604036600319011261020157602060ff610c3a6110a46101eb565b6110ac610206565b6001600160a01b0391821660009081526001865260408082209290931681526020919091522090565b346102015760a0366003190112610201576110ee6101eb565b6110f6610206565b6084356001600160401b0381116102015761111590369060040161088e565b906001600160a01b038381169033821415806111ce575b6111a75782161561118e57156111765761097b9261116e6064356044359160405192600184526020840152604083019160018352606084015260808301604052565b92909161140e565b604051626a0d4560e21b815260006004820152602490fd5b604051632bfa23e760e11b815260006004820152602490fd5b60405163711bec9160e11b81523360048201526001600160a01b0386166024820152604490fd5b50600082815260016020908152604080832033845290915290205460ff161561112c565b346102015760203660031901126102015761120b6101eb565b6112136112c9565b6001600160a01b0390811690811561126757600354826bffffffffffffffffffffffff60a01b821617600355167f8be0079c531659141344cd1fd0a4f28419497f9722a3daafe3b4186f6b6457e0600080a3005b604051631e4fbdf760e01b815260006004820152602490fd5b3461020157604036600319011261020157602060ff610c3a6112a0610206565b600435600052600a845260036040600020019060018060a01b0316600052602052604060002090565b6003546001600160a01b031633036112dd57565b60405163118cdaa760e01b8152336004820152602490fd5b634e487b7160e01b600052601160045260246000fd5b600019811461131a5760010190565b6112f5565b80518210156113335760209160051b010190565b634e487b7160e01b600052603260045260246000fd5b919091805183518082036113ec575050805190611365826107fe565b91611373604051938461036d565b808352611382601f19916107fe565b0190602091368385013760005b81518110156113e457600581901b8281018401519087018401516000908152602081815260408083206001600160a01b03909416835292905220546113df91906113d9828761131f565b5261130b565b61138f565b509193505050565b604051635b05999160e01b815260048101919091526024810191909152604490fd5b9491909181518451908181036113ec57505060005b825181101561153657600581901b83810160209081015191870101516001600160a01b03929186908a85166114af575b61146694821661146b575b50505061130b565b611423565b6114a59161148661149d926000526000602052604060002090565b9060018060a01b0316600052602052604060002090565b91825461163a565b905538858161145e565b91929390506114cc8a611486846000526000602052604060002090565b548381106114ff5791879184611466969594036114f78d611486856000526000602052604060002090565b559450611453565b6040516303dee4c560e01b81526001600160a01b038c16600482015260248101919091526044810184905260648101839052608490fd5b5094919392909360018551146000146115e1576020858101518382015160408051928352928201526001600160a01b03838116929086169133917fc3d58168c5ae7397731d063d5bbf3d657854427343f4c083240f7aacaa2d0f6291a45b6001600160a01b0381166115aa575b5050505050565b84516001036115d0576020806115c6960151920151923361183e565b38808080806115a3565b6115dc9491923361198a565b6115c6565b6040516001600160a01b03828116919085169033907f4a39dc06d4c0dbc64b70af90fd698a233a518aa5d07e595d983b8c0526c8f7fb9080611624888c83611647565b0390a4611594565b906001820180921161131a57565b9190820180921161131a57565b909161165e61052393604084526040840190610a75565b916020818403910152610a75565b9081602091031261020157516105238161027d565b909260a0926105239594600180861b0316835260006020840152604083015260608201528160808201520190610457565b919261052395949160a094600180871b038092168552166020840152604083015260608201528160808201520190610457565b6040513d6000823e3d90fd5b60405190602082018281106001600160401b038211176103685760405260008252565b3d1561173f573d9061172582610873565b91611733604051938461036d565b82523d6000602084013e565b606090565b9293919093843b611756575050505050565b602091611779604051948593849363f23a6e6160e01b9889865260048601611681565b038160006001600160a01b0388165af16000918161180e575b506117d157826117a0611714565b80519190826117ca57604051632bfa23e760e11b81526001600160a01b0383166004820152602490fd5b9050602001fd5b6001600160e01b031916036117eb575038808080806115a3565b604051632bfa23e760e11b81526001600160a01b03919091166004820152602490fd5b61183091925060203d8111611837575b611828818361036d565b81019061166c565b9038611792565b503d61181e565b939290949194853b611853575b505050505050565b611876602093604051958694859463f23a6e6160e01b998a8752600487016116b2565b038160006001600160a01b0388165af1600091816118b8575b5061189d57826117a0611714565b6001600160e01b031916036117eb575038808080808061184b565b6118d191925060203d811161183757611828818361036d565b903861188f565b9261190761052395936119159360018060a01b031686526000602087015260a0604087015260a0860190610a75565b908482036060860152610a75565b916080818403910152610457565b93906105239593611907916119159460018060a01b03809216885216602087015260a0604087015260a0860190610a75565b9293919093843b611967575050505050565b602091611779604051948593849363bc197c8160e01b98898652600486016118d8565b939290949194853b61199e57505050505050565b611876602093604051958694859463bc197c8160e01b998a875260048701611923565b908060209392818452848401376000828201840152601f01601f1916010190565b9160206105239381815201916119c1565b90601f8111611a0157505050565b600091825260208220906020601f850160051c83019410611a3d575b601f0160051c01915b828110611a3257505050565b818155600101611a26565b9092508290611a1d565b9092916001600160401b03811161036857611a6c81611a6684546102fd565b846119f3565b6000601f8211600114611aa65781929394600092611a9b575b50508160011b916000199060031b1c1916179055565b013590503880611a85565b601f19821694611abb84600052602060002090565b91805b878110611af6575083600195969710611adc575b505050811b019055565b0135600019600384901b60f8161c19169055388080611ad2565b90926020600181928686013581550194019101611abe565b93969491610523989693611b2f92865260c0602087015260c08601916119c1565b604084019690965260608301526001600160a01b0316608082015280840360a0909101526119c1565b9081526001600160a01b03909116602082015260606040820181905261052392910190610457565b90600454821015611ca857611b9f82600052600a602052604060002090565b3360009081526003820160208190526040909120919291611bbf906106ad565b611c8f5733600090815260209190915260409020611be5905b805460ff19166001179055565b7f712c1b1ad89e8e16ccdc5cec4c1b22713e1d68a25e895b87e30db54bf197f7ce60405180611c1684338884611b58565b0390a16001820154906020815191012014600014611c80573360009081526002909101602052604090207ff7c67880b72ec988961e570ae4e849eb4fd9d5ba0ab550624ac429ef6d41880c91611c7891611c6f90611bd8565b6107068161206d565b0390a1600190565b50611c8a90611f2e565b600090565b604051636ab2c49160e01b815260048101859052602490fd5b6040516255ac0b60e31b815260048101839052602490fd5b8181029291811591840414171561131a57565b606403906064821161131a57565b9190820391821161131a57565b8115611cf8570490565b634e487b7160e01b600052601260045260246000fd5b6001600160a01b0381169392909190841561118e57611d4a60405192600184526020840152604083019160018352606084015260808301604052565b9281518451908181036113ec57505060005b8251811015611da15780611d9c9160051b611d9561149d87611486602080868b010151958c010151946000526000602052604060002090565b905561130b565b611d5c565b509291936001825114600014611e185760208281015184820151604080519283529282015260009133917fc3d58168c5ae7397731d063d5bbf3d657854427343f4c083240f7aacaa2d0f629190a45b8051600103611e0e57906020806103cc959301519101519133611744565b6103cc9333611955565b60006040517f4a39dc06d4c0dbc64b70af90fd698a233a518aa5d07e595d983b8c0526c8f7fb339180611e4c888883611647565b0390a4611df0565b9192611e5f846107fe565b93604092611e6f8451968761036d565b8186526020918287019060051b820191368311610201578390915b838310611f1e5750505050600854938351828101916bffffffffffffffffffffffff199060601b16825260148152611ec18161034d565b519020916000925b8651841015611f1457611edc848861131f565b519085600083831015611f045750506000528252611efe846000205b9361130b565b92611ec9565b9091611efe938252855220611ef8565b9350945050501490565b8235815291810191849101611e8a565b7fedf7d7629bae89d536e79c07544cf71dc20f2e5a6c44820bc95943ae5d392e8f906004611f6682600052600a602052604060002090565b018054336000908152600b60205260409020606491611f919154908115612048575b6006549161213e565b919004901561201957336000908152600b60205260409020611fc29190611fb9828254611ce1565b9055825461163a565b81555b5460408051928352602083019190915290a1336000818152600b6020908152604091829020548251938452908301527f7c9d26a9c3f761e124a1b3f4aaf8fe9deeffa947fbdabd8b085dab884a2a04be91a1565b336000908152600b60205260409020612041919061203882825461163a565b90558254611ce1565b8155611fc5565b336000908152600b602052604090206103e89250612068905b6103e89055565b611f88565b7fedf7d7629bae89d536e79c07544cf71dc20f2e5a6c44820bc95943ae5d392e8f9060046120a582600052600a602052604060002090565b018054336000908152600b60205260409020606491611f9191549081156120d0575b6006549161222a565b336000908152600b602052604090206103e892506120ed90612061565b6120c7565b156120f957565b60405162461bcd60e51b815260206004820152601b60248201527f526174696e6720646966666572656e636520746f6f206c6172676500000000006044820152606490fd5b6019918181109182156122225703905b8061215c61046684106120f2565b612210575b1561220757610320035b04600a6001808316156122005781925b811c91825b6121c557505050906127106121a56121a06121a06121a06121af96612310565b612310565b6064019102611cee565b801515906000826000146121c1575091565b0391565b8060801c610201578002918181166121e1575b811c9182612180565b9282810290838204036121f5575b926121d8565b82156121ef57600080fd5b809261217b565b6103200161216b565b61221d61032083106120f2565b612161565b90039061214e565b6019918181109182156123085703905b8061224861046684106120f2565b6122f6575b156122ed57610320035b04600a6001808316156122e65781925b811c91825b6122ab5750505061229661228a6121a06121a06121a0606495612310565b82016127108402611cee565b91028181109182156122a6570391565b900391565b8060801c610201578002918181166122c7575b811c918261226c565b9282810290838204036122db575b926122be565b82156122d557600080fd5b8092612267565b61032001612257565b61230361032083106120f2565b61224d565b90039061223a565b60b581600160881b8110156123b7575b806901000000000000000000620100009210156123aa575b6501000000000081101561239d575b6301000000811015612390575b010260121c60019080830401811c80830401811c80830401811c80830401811c80830401811c80830401811c80830401901c8080920410900390565b60101c9160081b91612354565b60201c9160101b91612347565b60401c9160201b91612338565b5068b500000000000000009050608082901c61232056fea264697066735822122016daef1e7fa2f9969ad8f4b715e62039a7bb4822e5fdaef560777316eaa5bfe364736f6c63430008140033",
  "devdoc": {
    "errors": {
      "ERC1155InsufficientBalance(address,uint256,uint256,uint256)": [
        {
          "details": "Indicates an error related to the current `balance` of a `sender`. Used in transfers.",
          "params": {
            "balance": "Current balance for the interacting account.",
            "needed": "Minimum amount required to perform a transfer.",
            "sender": "Address whose tokens are being transferred.",
            "tokenId": "Identifier number of a token."
          }
        }
      ],
      "ERC1155InvalidApprover(address)": [
        {
          "details": "Indicates a failure with the `approver` of a token to be approved. Used in approvals.",
          "params": {
            "approver": "Address initiating an approval operation."
          }
        }
      ],
      "ERC1155InvalidArrayLength(uint256,uint256)": [
        {
          "details": "Indicates an array length mismatch between ids and values in a safeBatchTransferFrom operation. Used in batch transfers.",
          "params": {
            "idsLength": "Length of the array of token identifiers",
            "valuesLength": "Length of the array of token amounts"
          }
        }
      ],
      "ERC1155InvalidOperator(address)": [
        {
          "details": "Indicates a failure with the `operator` to be approved. Used in approvals.",
          "params": {
            "operator": "Address that may be allowed to operate on tokens without being their owner."
          }
        }
      ],
      "ERC1155InvalidReceiver(address)": [
        {
          "details": "Indicates a failure with the token `receiver`. Used in transfers.",
          "params": {
            "receiver": "Address to which tokens are being transferred."
          }
        }
      ],
      "ERC1155InvalidSender(address)": [
        {
          "details": "Indicates a failure with the token `sender`. Used in transfers.",
          "params": {
            "sender": "Address whose tokens are being transferred."
          }
        }
      ],
      "ERC1155MissingApprovalForAll(address,address)": [
        {
          "details": "Indicates a failure with the `operator`s approval. Used in transfers.",
          "params": {
            "operator": "Address that may be allowed to operate on tokens without being their owner.",
            "owner": "Address of the current owner of a token."
          }
        }
      ],
      "OwnableInvalidOwner(address)": [
        {
          "details": "The owner is not a valid owner account. (eg. `address(0)`)"
        }
      ],
      "OwnableUnauthorizedAccount(address)": [
        {
          "details": "The caller account is not authorized to perform an operation."
        }
      ]
    },
    "events": {
      "ApprovalForAll(address,address,bool)": {
        "details": "Emitted when `account` grants or revokes permission to `operator` to transfer their tokens, according to `approved`."
      },
      "TransferBatch(address,address,address,uint256[],uint256[])": {
        "details": "Equivalent to multiple {TransferSingle} events, where `operator`, `from` and `to` are the same for all transfers."
      },
      "TransferSingle(address,address,address,uint256,uint256)": {
        "details": "Emitted when `value` amount of tokens of type `id` are transferred from `from` to `to` by `operator`."
      },
      "URI(string,uint256)": {
        "details": "Emitted when the URI for token type `id` changes to `value`, if it is a non-programmatic URI. If an {URI} event was emitted for `id`, the standard https://eips.ethereum.org/EIPS/eip-1155#metadata-extensions[guarantees] that `value` will equal the value returned by {IERC1155MetadataURI-uri}."
      }
    },
    "kind": "dev",
    "methods": {
      "balanceOf(address,uint256)": {
        "details": "See {IERC1155-balanceOf}."
      },
      "balanceOfBatch(address[],uint256[])": {
        "details": "See {IERC1155-balanceOfBatch}. Requirements: - `accounts` and `ids` must have the same length."
      },
      "isApprovedForAll(address,address)": {
        "details": "See {IERC1155-isApprovedForAll}."
      },
      "owner()": {
        "details": "Returns the address of the current owner."
      },
      "renounceOwnership()": {
        "details": "Leaves the contract without owner. It will not be possible to call `onlyOwner` functions. Can only be called by the current owner. NOTE: Renouncing ownership will leave the contract without an owner, thereby disabling any functionality that is only available to the owner."
      },
      "safeBatchTransferFrom(address,address,uint256[],uint256[],bytes)": {
        "details": "See {IERC1155-safeBatchTransferFrom}."
      },
      "safeTransferFrom(address,address,uint256,uint256,bytes)": {
        "details": "See {IERC1155-safeTransferFrom}."
      },
      "setApprovalForAll(address,bool)": {
        "details": "See {IERC1155-setApprovalForAll}."
      },
      "supportsInterface(bytes4)": {
        "details": "See {IERC165-supportsInterface}."
      },
      "transferOwnership(address)": {
        "details": "Transfers ownership of the contract to a new account (`newOwner`). Can only be called by the current owner."
      }
    },
    "version": 1
  },
  "userdoc": {
    "kind": "user",
    "methods": {},
    "version": 1
  },
  "storageLayout": {
    "storage": [
      {
        "astId": 326,
        "contract": "contracts/DChess.sol:DChess",
        "label": "_balances",
        "offset": 0,
        "slot": "0",
        "type": "t_mapping(t_uint256,t_mapping(t_address,t_uint256))"
      },
      {
        "astId": 332,
        "contract": "contracts/DChess.sol:DChess",
        "label": "_operatorApprovals",
        "offset": 0,
        "slot": "1",
        "type": "t_mapping(t_address,t_mapping(t_address,t_bool))"
      },
      {
        "astId": 334,
        "contract": "contracts/DChess.sol:DChess",
        "label": "_uri",
        "offset": 0,
        "slot": "2",
        "type": "t_string_storage"
      },
      {
        "astId": 8,
        "contract": "contracts/DChess.sol:DChess",
        "label": "_owner",
        "offset": 0,
        "slot": "3",
        "type": "t_address"
      },
      {
        "astId": 5028,
        "contract": "contracts/DChess.sol:DChess",
        "label": "internalTokenCounter",
        "offset": 0,
        "slot": "4",
        "type": "t_uint256"
      },
      {
        "astId": 5030,
        "contract": "contracts/DChess.sol:DChess",
        "label": "tokenMintPrice",
        "offset": 0,
        "slot": "5",
        "type": "t_uint256"
      },
      {
        "astId": 5032,
        "contract": "contracts/DChess.sol:DChess",
        "label": "kFactor",
        "offset": 0,
        "slot": "6",
        "type": "t_uint256"
      },
      {
        "astId": 5034,
        "contract": "contracts/DChess.sol:DChess",
        "label": "platformFee",
        "offset": 0,
        "slot": "7",
        "type": "t_uint256"
      },
      {
        "astId": 5036,
        "contract": "contracts/DChess.sol:DChess",
        "label": "merkleRoot",
        "offset": 0,
        "slot": "8",
        "type": "t_bytes32"
      },
      {
        "astId": 5039,
        "contract": "contracts/DChess.sol:DChess",
        "label": "art",
        "offset": 0,
        "slot": "9",
        "type": "t_contract(IThreeOutOfNineART)7800"
      },
      {
        "astId": 5065,
        "contract": "contracts/DChess.sol:DChess",
        "label": "puzzlesById",
        "offset": 0,
        "slot": "10",
        "type": "t_mapping(t_uint256,t_struct(Puzzle)5060_storage)"
      },
      {
        "astId": 5069,
        "contract": "contracts/DChess.sol:DChess",
        "label": "userRatings",
        "offset": 0,
        "slot": "11",
        "type": "t_mapping(t_address,t_uint256)"
      }
    ],
    "types": {
      "t_address": {
        "encoding": "inplace",
        "label": "address",
        "numberOfBytes": "20"
      },
      "t_bool": {
        "encoding": "inplace",
        "label": "bool",
        "numberOfBytes": "1"
      },
      "t_bytes32": {
        "encoding": "inplace",
        "label": "bytes32",
        "numberOfBytes": "32"
      },
      "t_contract(IThreeOutOfNineART)7800": {
        "encoding": "inplace",
        "label": "contract IThreeOutOfNineART",
        "numberOfBytes": "20"
      },
      "t_mapping(t_address,t_bool)": {
        "encoding": "mapping",
        "key": "t_address",
        "label": "mapping(address => bool)",
        "numberOfBytes": "32",
        "value": "t_bool"
      },
      "t_mapping(t_address,t_mapping(t_address,t_bool))": {
        "encoding": "mapping",
        "key": "t_address",
        "label": "mapping(address => mapping(address => bool))",
        "numberOfBytes": "32",
        "value": "t_mapping(t_address,t_bool)"
      },
      "t_mapping(t_address,t_uint256)": {
        "encoding": "mapping",
        "key": "t_address",
        "label": "mapping(address => uint256)",
        "numberOfBytes": "32",
        "value": "t_uint256"
      },
      "t_mapping(t_uint256,t_mapping(t_address,t_uint256))": {
        "encoding": "mapping",
        "key": "t_uint256",
        "label": "mapping(uint256 => mapping(address => uint256))",
        "numberOfBytes": "32",
        "value": "t_mapping(t_address,t_uint256)"
      },
      "t_mapping(t_uint256,t_struct(Puzzle)5060_storage)": {
        "encoding": "mapping",
        "key": "t_uint256",
        "label": "mapping(uint256 => struct DChess.Puzzle)",
        "numberOfBytes": "32",
        "value": "t_struct(Puzzle)5060_storage"
      },
      "t_string_storage": {
        "encoding": "bytes",
        "label": "string",
        "numberOfBytes": "32"
      },
      "t_struct(Puzzle)5060_storage": {
        "encoding": "inplace",
        "label": "struct DChess.Puzzle",
        "members": [
          {
            "astId": 5041,
            "contract": "contracts/DChess.sol:DChess",
            "label": "fen",
            "offset": 0,
            "slot": "0",
            "type": "t_string_storage"
          },
          {
            "astId": 5043,
            "contract": "contracts/DChess.sol:DChess",
            "label": "solution",
            "offset": 0,
            "slot": "1",
            "type": "t_bytes32"
          },
          {
            "astId": 5047,
            "contract": "contracts/DChess.sol:DChess",
            "label": "userHasSolved",
            "offset": 0,
            "slot": "2",
            "type": "t_mapping(t_address,t_bool)"
          },
          {
            "astId": 5051,
            "contract": "contracts/DChess.sol:DChess",
            "label": "userHasAttempted",
            "offset": 0,
            "slot": "3",
            "type": "t_mapping(t_address,t_bool)"
          },
          {
            "astId": 5053,
            "contract": "contracts/DChess.sol:DChess",
            "label": "rating",
            "offset": 0,
            "slot": "4",
            "type": "t_uint256"
          },
          {
            "astId": 5055,
            "contract": "contracts/DChess.sol:DChess",
            "label": "metadata",
            "offset": 0,
            "slot": "5",
            "type": "t_uint256"
          },
          {
            "astId": 5057,
            "contract": "contracts/DChess.sol:DChess",
            "label": "creator",
            "offset": 0,
            "slot": "6",
            "type": "t_address"
          },
          {
            "astId": 5059,
            "contract": "contracts/DChess.sol:DChess",
            "label": "description",
            "offset": 0,
            "slot": "7",
            "type": "t_string_storage"
          }
        ],
        "numberOfBytes": "256"
      },
      "t_uint256": {
        "encoding": "inplace",
        "label": "uint256",
        "numberOfBytes": "32"
      }
    }
  }
}