{
  "address": "0x7BFED9c6cE5A9c425799f7737fa597F84B9CB18c",
  "abi": [
    {
      "inputs": [
        {
          "internalType": "address",
          "name": "initialOwner",
          "type": "address"
        }
      ],
      "stateMutability": "nonpayable",
      "type": "constructor"
    },
    {
      "inputs": [
        {
          "internalType": "uint16",
          "name": "puzzleId",
          "type": "uint16"
        }
      ],
      "name": "AlreadyAttempted",
      "type": "error"
    },
    {
      "inputs": [
        {
          "internalType": "bytes32",
          "name": "b",
          "type": "bytes32"
        }
      ],
      "name": "BytesCannotBeEmpty",
      "type": "error"
    },
    {
      "inputs": [
        {
          "internalType": "address",
          "name": "sender",
          "type": "address"
        },
        {
          "internalType": "uint256",
          "name": "balance",
          "type": "uint256"
        },
        {
          "internalType": "uint256",
          "name": "needed",
          "type": "uint256"
        },
        {
          "internalType": "uint256",
          "name": "tokenId",
          "type": "uint256"
        }
      ],
      "name": "ERC1155InsufficientBalance",
      "type": "error"
    },
    {
      "inputs": [
        {
          "internalType": "address",
          "name": "approver",
          "type": "address"
        }
      ],
      "name": "ERC1155InvalidApprover",
      "type": "error"
    },
    {
      "inputs": [
        {
          "internalType": "uint256",
          "name": "idsLength",
          "type": "uint256"
        },
        {
          "internalType": "uint256",
          "name": "valuesLength",
          "type": "uint256"
        }
      ],
      "name": "ERC1155InvalidArrayLength",
      "type": "error"
    },
    {
      "inputs": [
        {
          "internalType": "address",
          "name": "operator",
          "type": "address"
        }
      ],
      "name": "ERC1155InvalidOperator",
      "type": "error"
    },
    {
      "inputs": [
        {
          "internalType": "address",
          "name": "receiver",
          "type": "address"
        }
      ],
      "name": "ERC1155InvalidReceiver",
      "type": "error"
    },
    {
      "inputs": [
        {
          "internalType": "address",
          "name": "sender",
          "type": "address"
        }
      ],
      "name": "ERC1155InvalidSender",
      "type": "error"
    },
    {
      "inputs": [
        {
          "internalType": "address",
          "name": "operator",
          "type": "address"
        },
        {
          "internalType": "address",
          "name": "owner",
          "type": "address"
        }
      ],
      "name": "ERC1155MissingApprovalForAll",
      "type": "error"
    },
    {
      "inputs": [
        {
          "internalType": "uint16",
          "name": "puzzleId",
          "type": "uint16"
        }
      ],
      "name": "InvalidPuzzle",
      "type": "error"
    },
    {
      "inputs": [
        {
          "internalType": "uint16",
          "name": "puzzleId",
          "type": "uint16"
        }
      ],
      "name": "InvalidPuzzleMove",
      "type": "error"
    },
    {
      "inputs": [
        {
          "internalType": "uint256",
          "name": "amountSent",
          "type": "uint256"
        },
        {
          "internalType": "uint256",
          "name": "requiredAmount",
          "type": "uint256"
        }
      ],
      "name": "NotEnoughEtherSent",
      "type": "error"
    },
    {
      "inputs": [
        {
          "internalType": "address",
          "name": "owner",
          "type": "address"
        }
      ],
      "name": "OwnableInvalidOwner",
      "type": "error"
    },
    {
      "inputs": [
        {
          "internalType": "address",
          "name": "account",
          "type": "address"
        }
      ],
      "name": "OwnableUnauthorizedAccount",
      "type": "error"
    },
    {
      "inputs": [
        {
          "internalType": "uint256",
          "name": "x",
          "type": "uint256"
        }
      ],
      "name": "PRBMathUD60x18__Exp2InputTooBig",
      "type": "error"
    },
    {
      "inputs": [
        {
          "internalType": "uint256",
          "name": "x",
          "type": "uint256"
        }
      ],
      "name": "PRBMathUD60x18__LogInputTooSmall",
      "type": "error"
    },
    {
      "inputs": [
        {
          "internalType": "uint256",
          "name": "prod1",
          "type": "uint256"
        }
      ],
      "name": "PRBMath__MulDivFixedPointOverflow",
      "type": "error"
    },
    {
      "inputs": [
        {
          "internalType": "uint256",
          "name": "prod1",
          "type": "uint256"
        },
        {
          "internalType": "uint256",
          "name": "denominator",
          "type": "uint256"
        }
      ],
      "name": "PRBMath__MulDivOverflow",
      "type": "error"
    },
    {
      "inputs": [
        {
          "internalType": "uint16",
          "name": "puzzleId",
          "type": "uint16"
        }
      ],
      "name": "PuzzleNotSolved",
      "type": "error"
    },
    {
      "inputs": [
        {
          "internalType": "string",
          "name": "s",
          "type": "string"
        }
      ],
      "name": "StringCannotBeEmpty",
      "type": "error"
    },
    {
      "inputs": [
        {
          "internalType": "uint256",
          "name": "tokenId",
          "type": "uint256"
        }
      ],
      "name": "TokenDoesNotExist",
      "type": "error"
    },
    {
      "anonymous": false,
      "inputs": [
        {
          "indexed": true,
          "internalType": "address",
          "name": "account",
          "type": "address"
        },
        {
          "indexed": true,
          "internalType": "address",
          "name": "operator",
          "type": "address"
        },
        {
          "indexed": false,
          "internalType": "bool",
          "name": "approved",
          "type": "bool"
        }
      ],
      "name": "ApprovalForAll",
      "type": "event"
    },
    {
      "anonymous": false,
      "inputs": [
        {
          "indexed": true,
          "internalType": "address",
          "name": "previousOwner",
          "type": "address"
        },
        {
          "indexed": true,
          "internalType": "address",
          "name": "newOwner",
          "type": "address"
        }
      ],
      "name": "OwnershipTransferred",
      "type": "event"
    },
    {
      "anonymous": false,
      "inputs": [
        {
          "indexed": false,
          "internalType": "uint16",
          "name": "puzzleId",
          "type": "uint16"
        },
        {
          "indexed": false,
          "internalType": "string",
          "name": "fen",
          "type": "string"
        },
        {
          "indexed": false,
          "internalType": "bytes32",
          "name": "solutionHash",
          "type": "bytes32"
        },
        {
          "indexed": false,
          "internalType": "uint256",
          "name": "board",
          "type": "uint256"
        },
        {
          "indexed": false,
          "internalType": "uint256",
          "name": "metadata",
          "type": "uint256"
        },
        {
          "indexed": false,
          "internalType": "address",
          "name": "creator",
          "type": "address"
        }
      ],
      "name": "PuzzleAdded",
      "type": "event"
    },
    {
      "anonymous": false,
      "inputs": [
        {
          "indexed": false,
          "internalType": "uint16",
          "name": "puzzleId",
          "type": "uint16"
        },
        {
          "indexed": false,
          "internalType": "address",
          "name": "user",
          "type": "address"
        },
        {
          "indexed": false,
          "internalType": "bytes",
          "name": "solutionSubmission",
          "type": "bytes"
        }
      ],
      "name": "PuzzleAttempted",
      "type": "event"
    },
    {
      "anonymous": false,
      "inputs": [
        {
          "indexed": false,
          "internalType": "uint16",
          "name": "puzzleId",
          "type": "uint16"
        },
        {
          "indexed": false,
          "internalType": "uint256",
          "name": "newPuzzleRating",
          "type": "uint256"
        }
      ],
      "name": "PuzzleRatingChanged",
      "type": "event"
    },
    {
      "anonymous": false,
      "inputs": [
        {
          "indexed": false,
          "internalType": "uint16",
          "name": "puzzleId",
          "type": "uint16"
        },
        {
          "indexed": false,
          "internalType": "address",
          "name": "user",
          "type": "address"
        }
      ],
      "name": "PuzzleSolved",
      "type": "event"
    },
    {
      "anonymous": false,
      "inputs": [
        {
          "indexed": false,
          "internalType": "uint16",
          "name": "puzzleId",
          "type": "uint16"
        },
        {
          "indexed": false,
          "internalType": "address",
          "name": "solver",
          "type": "address"
        },
        {
          "indexed": false,
          "internalType": "uint256",
          "name": "tokenId",
          "type": "uint256"
        }
      ],
      "name": "TokenMinted",
      "type": "event"
    },
    {
      "anonymous": false,
      "inputs": [
        {
          "indexed": true,
          "internalType": "address",
          "name": "operator",
          "type": "address"
        },
        {
          "indexed": true,
          "internalType": "address",
          "name": "from",
          "type": "address"
        },
        {
          "indexed": true,
          "internalType": "address",
          "name": "to",
          "type": "address"
        },
        {
          "indexed": false,
          "internalType": "uint256[]",
          "name": "ids",
          "type": "uint256[]"
        },
        {
          "indexed": false,
          "internalType": "uint256[]",
          "name": "values",
          "type": "uint256[]"
        }
      ],
      "name": "TransferBatch",
      "type": "event"
    },
    {
      "anonymous": false,
      "inputs": [
        {
          "indexed": true,
          "internalType": "address",
          "name": "operator",
          "type": "address"
        },
        {
          "indexed": true,
          "internalType": "address",
          "name": "from",
          "type": "address"
        },
        {
          "indexed": true,
          "internalType": "address",
          "name": "to",
          "type": "address"
        },
        {
          "indexed": false,
          "internalType": "uint256",
          "name": "id",
          "type": "uint256"
        },
        {
          "indexed": false,
          "internalType": "uint256",
          "name": "value",
          "type": "uint256"
        }
      ],
      "name": "TransferSingle",
      "type": "event"
    },
    {
      "anonymous": false,
      "inputs": [
        {
          "indexed": false,
          "internalType": "string",
          "name": "value",
          "type": "string"
        },
        {
          "indexed": true,
          "internalType": "uint256",
          "name": "id",
          "type": "uint256"
        }
      ],
      "name": "URI",
      "type": "event"
    },
    {
      "anonymous": false,
      "inputs": [
        {
          "indexed": false,
          "internalType": "address",
          "name": "user",
          "type": "address"
        },
        {
          "indexed": false,
          "internalType": "uint256",
          "name": "newUserRating",
          "type": "uint256"
        }
      ],
      "name": "UserRatingChanged",
      "type": "event"
    },
    {
      "anonymous": false,
      "inputs": [
        {
          "indexed": false,
          "internalType": "address",
          "name": "owner",
          "type": "address"
        },
        {
          "indexed": false,
          "internalType": "uint256",
          "name": "amount",
          "type": "uint256"
        }
      ],
      "name": "Withdraw",
      "type": "event"
    },
    {
      "inputs": [
        {
          "internalType": "string",
          "name": "fen",
          "type": "string"
        },
        {
          "internalType": "bytes32",
          "name": "solutionHash",
          "type": "bytes32"
        },
        {
          "components": [
            {
              "internalType": "uint256",
              "name": "board",
              "type": "uint256"
            },
            {
              "internalType": "uint256",
              "name": "metadata",
              "type": "uint256"
            }
          ],
          "internalType": "struct Chess.Move",
          "name": "move",
          "type": "tuple"
        }
      ],
      "name": "addPuzzle",
      "outputs": [],
      "stateMutability": "nonpayable",
      "type": "function"
    },
    {
      "inputs": [
        {
          "internalType": "address",
          "name": "account",
          "type": "address"
        },
        {
          "internalType": "uint256",
          "name": "id",
          "type": "uint256"
        }
      ],
      "name": "balanceOf",
      "outputs": [
        {
          "internalType": "uint256",
          "name": "",
          "type": "uint256"
        }
      ],
      "stateMutability": "view",
      "type": "function"
    },
    {
      "inputs": [
        {
          "internalType": "address[]",
          "name": "accounts",
          "type": "address[]"
        },
        {
          "internalType": "uint256[]",
          "name": "ids",
          "type": "uint256[]"
        }
      ],
      "name": "balanceOfBatch",
      "outputs": [
        {
          "internalType": "uint256[]",
          "name": "",
          "type": "uint256[]"
        }
      ],
      "stateMutability": "view",
      "type": "function"
    },
    {
      "inputs": [
        {
          "internalType": "address",
          "name": "account",
          "type": "address"
        },
        {
          "internalType": "address",
          "name": "operator",
          "type": "address"
        }
      ],
      "name": "isApprovedForAll",
      "outputs": [
        {
          "internalType": "bool",
          "name": "",
          "type": "bool"
        }
      ],
      "stateMutability": "view",
      "type": "function"
    },
    {
      "inputs": [
        {
          "internalType": "uint16",
          "name": "puzzleId",
          "type": "uint16"
        }
      ],
      "name": "mint",
      "outputs": [],
      "stateMutability": "payable",
      "type": "function"
    },
    {
      "inputs": [],
      "name": "owner",
      "outputs": [
        {
          "internalType": "address",
          "name": "",
          "type": "address"
        }
      ],
      "stateMutability": "view",
      "type": "function"
    },
    {
      "inputs": [],
      "name": "puzzleCounter",
      "outputs": [
        {
          "internalType": "uint16",
          "name": "",
          "type": "uint16"
        }
      ],
      "stateMutability": "view",
      "type": "function"
    },
    {
      "inputs": [
        {
          "internalType": "uint16",
          "name": "",
          "type": "uint16"
        }
      ],
      "name": "puzzlesById",
      "outputs": [
        {
          "internalType": "string",
          "name": "fen",
          "type": "string"
        },
        {
          "internalType": "bytes32",
          "name": "solutionHash",
          "type": "bytes32"
        },
        {
          "internalType": "uint256",
          "name": "solveCount",
          "type": "uint256"
        },
        {
          "internalType": "uint256",
          "name": "attemptCount",
          "type": "uint256"
        },
        {
          "internalType": "uint256",
          "name": "rating",
          "type": "uint256"
        },
        {
          "components": [
            {
              "internalType": "uint256",
              "name": "board",
              "type": "uint256"
            },
            {
              "internalType": "uint256",
              "name": "metadata",
              "type": "uint256"
            }
          ],
          "internalType": "struct Chess.Move",
          "name": "move",
          "type": "tuple"
        },
        {
          "internalType": "address",
          "name": "creator",
          "type": "address"
        }
      ],
      "stateMutability": "view",
      "type": "function"
    },
    {
      "inputs": [],
      "name": "renounceOwnership",
      "outputs": [],
      "stateMutability": "nonpayable",
      "type": "function"
    },
    {
      "inputs": [
        {
          "internalType": "address",
          "name": "from",
          "type": "address"
        },
        {
          "internalType": "address",
          "name": "to",
          "type": "address"
        },
        {
          "internalType": "uint256[]",
          "name": "ids",
          "type": "uint256[]"
        },
        {
          "internalType": "uint256[]",
          "name": "values",
          "type": "uint256[]"
        },
        {
          "internalType": "bytes",
          "name": "data",
          "type": "bytes"
        }
      ],
      "name": "safeBatchTransferFrom",
      "outputs": [],
      "stateMutability": "nonpayable",
      "type": "function"
    },
    {
      "inputs": [
        {
          "internalType": "address",
          "name": "from",
          "type": "address"
        },
        {
          "internalType": "address",
          "name": "to",
          "type": "address"
        },
        {
          "internalType": "uint256",
          "name": "id",
          "type": "uint256"
        },
        {
          "internalType": "uint256",
          "name": "value",
          "type": "uint256"
        },
        {
          "internalType": "bytes",
          "name": "data",
          "type": "bytes"
        }
      ],
      "name": "safeTransferFrom",
      "outputs": [],
      "stateMutability": "nonpayable",
      "type": "function"
    },
    {
      "inputs": [
        {
          "internalType": "address",
          "name": "operator",
          "type": "address"
        },
        {
          "internalType": "bool",
          "name": "approved",
          "type": "bool"
        }
      ],
      "name": "setApprovalForAll",
      "outputs": [],
      "stateMutability": "nonpayable",
      "type": "function"
    },
    {
      "inputs": [
        {
          "internalType": "uint16",
          "name": "puzzleId",
          "type": "uint16"
        },
        {
          "internalType": "bytes",
          "name": "solution",
          "type": "bytes"
        }
      ],
      "name": "submitSolution",
      "outputs": [
        {
          "internalType": "bool",
          "name": "",
          "type": "bool"
        }
      ],
      "stateMutability": "nonpayable",
      "type": "function"
    },
    {
      "inputs": [
        {
          "internalType": "bytes4",
          "name": "interfaceId",
          "type": "bytes4"
        }
      ],
      "name": "supportsInterface",
      "outputs": [
        {
          "internalType": "bool",
          "name": "",
          "type": "bool"
        }
      ],
      "stateMutability": "view",
      "type": "function"
    },
    {
      "inputs": [],
      "name": "tokenCount",
      "outputs": [
        {
          "internalType": "uint256",
          "name": "",
          "type": "uint256"
        }
      ],
      "stateMutability": "view",
      "type": "function"
    },
    {
      "inputs": [
        {
          "internalType": "uint256",
          "name": "",
          "type": "uint256"
        }
      ],
      "name": "tokenIdToPuzzleId",
      "outputs": [
        {
          "internalType": "uint16",
          "name": "",
          "type": "uint16"
        }
      ],
      "stateMutability": "view",
      "type": "function"
    },
    {
      "inputs": [
        {
          "internalType": "address",
          "name": "newOwner",
          "type": "address"
        }
      ],
      "name": "transferOwnership",
      "outputs": [],
      "stateMutability": "nonpayable",
      "type": "function"
    },
    {
      "inputs": [
        {
          "internalType": "uint256",
          "name": "_tokenId",
          "type": "uint256"
        }
      ],
      "name": "uri",
      "outputs": [
        {
          "internalType": "string",
          "name": "",
          "type": "string"
        }
      ],
      "stateMutability": "view",
      "type": "function"
    },
    {
      "inputs": [
        {
          "internalType": "uint16",
          "name": "puzzleId",
          "type": "uint16"
        },
        {
          "internalType": "address",
          "name": "user",
          "type": "address"
        }
      ],
      "name": "userHasSolvedPuzzle",
      "outputs": [
        {
          "internalType": "bool",
          "name": "",
          "type": "bool"
        }
      ],
      "stateMutability": "view",
      "type": "function"
    },
    {
      "inputs": [
        {
          "internalType": "address",
          "name": "",
          "type": "address"
        }
      ],
      "name": "userRatings",
      "outputs": [
        {
          "internalType": "uint256",
          "name": "",
          "type": "uint256"
        }
      ],
      "stateMutability": "view",
      "type": "function"
    },
    {
      "inputs": [],
      "name": "withdraw",
      "outputs": [],
      "stateMutability": "nonpayable",
      "type": "function"
    }
  ],
  "transactionHash": "0x19f47ade1cfc9860e816bcad7277d971585e8e622f9c1ee6a104e4532acdcf4c",
  "args": [
    "0x5F5dc98B9A8a61C048133dCa5718CEc577F90b89"
  ],
  "numDeployments": 1,
  "solcInputHash": "613c761a44e59c2e2c5b7040342776c3",
  "bytecode": "0x60806040523480156200001157600080fd5b5060405162005138380380620051388339810160408190526200003491620000f7565b6040805160208101909152600081528190620000508162000093565b506001600160a01b0381166200008057604051631e4fbdf760e01b81526000600482015260240160405180910390fd5b6200008b81620000a5565b50506200029a565b6002620000a18282620001ce565b5050565b600380546001600160a01b038381166001600160a01b0319831681179093556040519116919082907f8be0079c531659141344cd1fd0a4f28419497f9722a3daafe3b4186f6b6457e090600090a35050565b6000602082840312156200010a57600080fd5b81516001600160a01b03811681146200012257600080fd5b9392505050565b634e487b7160e01b600052604160045260246000fd5b600181811c908216806200015457607f821691505b6020821081036200017557634e487b7160e01b600052602260045260246000fd5b50919050565b601f821115620001c957600081815260208120601f850160051c81016020861015620001a45750805b601f850160051c820191505b81811015620001c557828155600101620001b0565b5050505b505050565b81516001600160401b03811115620001ea57620001ea62000129565b6200020281620001fb84546200013f565b846200017b565b602080601f8311600181146200023a5760008415620002215750858301515b600019600386901b1c1916600185901b178555620001c5565b600085815260208120601f198616915b828110156200026b578886015182559484019460019091019084016200024a565b50858210156200028a5787850151600019600388901b60f8161c191681555b5050505050600190811b01905550565b614e8e80620002aa6000396000f3fe6080604052600436106101295760003560e01c80636b750d20116100ab578063a225fa0e1161006f578063a225fa0e14610388578063a22cb465146103aa578063e985e9c5146103ca578063f242432a146103ea578063f2fde38b1461040a578063f70226b11461042a57600080fd5b80636b750d20146102b9578063715018a6146103085780638da5cb5b1461031d578063900f58fc146103455780639f181b5e1461037257600080fd5b80632eb2c2d6116100f25780632eb2c2d6146101f35780633ccfd60b146102135780633f0a32d0146102285780634e1273f41461026c578063654b04681461029957600080fd5b8062fdd58e1461012e57806301ffc9a71461016157806307a79081146101915780630e89341c146101b357806323cf0a22146101e0575b600080fd5b34801561013a57600080fd5b5061014e6101493660046135da565b61045d565b6040519081526020015b60405180910390f35b34801561016d57600080fd5b5061018161017c36600461361a565b610485565b6040519015158152602001610158565b34801561019d57600080fd5b506101b16101ac3660046136d6565b6104d5565b005b3480156101bf57600080fd5b506101d36101ce36600461377f565b61064a565b60405161015891906137e8565b6101b16101ee36600461380d565b6106bc565b3480156101ff57600080fd5b506101b161020e3660046138d7565b610824565b34801561021f57600080fd5b506101b161088b565b34801561023457600080fd5b5061025961024336600461377f565b60076020526000908152604090205461ffff1681565b60405161ffff9091168152602001610158565b34801561027857600080fd5b5061028c610287366004613981565b610909565b6040516101589190613a7c565b3480156102a557600080fd5b506101816102b4366004613a8f565b6109de565b3480156102c557600080fd5b506101816102d4366004613ad3565b61ffff821660009081526005602090815260408083206001600160a01b038516845260040190915290205460ff1692915050565b34801561031457600080fd5b506101b1610e4e565b34801561032957600080fd5b506003546040516001600160a01b039091168152602001610158565b34801561035157600080fd5b5061014e610360366004613b06565b60066020526000908152604090205481565b34801561037e57600080fd5b5061014e60045481565b34801561039457600080fd5b5060035461025990600160a01b900461ffff1681565b3480156103b657600080fd5b506101b16103c5366004613b21565b610e62565b3480156103d657600080fd5b506101816103e5366004613b5d565b610e71565b3480156103f657600080fd5b506101b1610405366004613b79565b610e9f565b34801561041657600080fd5b506101b1610425366004613b06565b610efe565b34801561043657600080fd5b5061044a61044536600461380d565b610f3c565b6040516101589796959493929190613bde565b6000818152602081815260408083206001600160a01b03861684529091529020545b92915050565b60006001600160e01b03198216636cdb3d1360e11b14806104b657506001600160e01b031982166303a24d0760e21b145b8061047f57506301ffc9a760e01b6001600160e01b031983161461047f565b8251600003610502578260405163328f847b60e21b81526004016104f991906137e8565b60405180910390fd5b8051158061051257506020810151155b156105405760035460405163072c061560e41b8152600160a01b90910461ffff1660048201526024016104f9565b60035461055890600160a01b900461ffff1682611020565b50600354600160a01b900461ffff166000818152600560205260409020806105808682613cbd565b506001818101859055600982018054336001600160a01b0319909116179055683635c9adc5dea00000600683015583516007830155602084015160088301556003546105d891600160a01b90910461ffff1690613d93565b600360146101000a81548161ffff021916908361ffff1602179055507f639561b9f5e12f699f692e2c8cc09a327ed8bd5e900ef29772da83ff7e22c888828686866000015187602001516106293390565b60405161063b96959493929190613db5565b60405180910390a15050505050565b606060045482106106715760405163c927e5bf60e01b8152600481018390526024016104f9565b60008281526007602081815260408084205461ffff1680855260058352938190208151808301909252928301548152600890920154908201526106b5908290611020565b9392505050565b66470de4df8200003410156106f35760405163f9309a0960e01b815234600482015266470de4df82000060248201526044016104f9565b61ffff81166000908152600560209081526040808320338452600481019092529091205460ff1661073d57604051632ee8c14360e21b815261ffff831660048201526024016104f9565b6004546000818152600760205260409020805461ffff191661ffff8516179055610768816001613e00565b60045561078b338461ffff1660016040518060200160405280600081525061113b565b6040805161ffff8516815233602082015280820183905290517f929a0234701deda6818d9f2e31098229505c101dc6e0de484a49507c6f309d709181900360600190a160098201546001600160a01b03166108fc60646107ec600f34613e13565b6107f69190613e40565b6040518115909202916000818181858888f1935050505015801561081e573d6000803e3d6000fd5b50505050565b336001600160a01b038616811480159061084557506108438682610e71565b155b156108765760405163711bec9160e11b81526001600160a01b038083166004830152871660248201526044016104f9565b6108838686868686611198565b505050505050565b6108936111ff565b6040514790339082156108fc029083906000818181858888f193505050501580156108c2573d6000803e3d6000fd5b507f884edad9ce6fa2440d8a54cc123490eb96d2768479d49ff9c7366125a942436433604080516001600160a01b039092168252602082018490520160405180910390a150565b6060815183511461093a5781518351604051635b05999160e01b8152600481019290925260248201526044016104f9565b6000835167ffffffffffffffff81111561095657610956613637565b60405190808252806020026020018201604052801561097f578160200160208202803683370190505b50905060005b84518110156109d6576020808202860101516109a99060208084028701015161045d565b8282815181106109bb576109bb613e62565b60209081029190910101526109cf81613e78565b9050610985565b509392505050565b60035460009061ffff600160a01b909104811690841610610a18576040516352648ae360e11b815261ffff841660048201526024016104f9565b61ffff831660009081526005602081815260408084203385529283019091529091205460ff1615610a6257604051631a125fb560e31b815261ffff851660048201526024016104f9565b7f3bc786627964681fbbc2172168162ca45bb5d68e96db44f855a3a6a987798783843385604051610a9593929190613e91565b60405180910390a13360009081526005820160205260408120805460ff1916600190811790915560038301805491929091610ad1908490613e00565b90915550503360009081526006602052604090205480610afa57683635c9adc5dea00000610afc565b805b6006830154855160208701206001850154929350909103610ced573360009081526004840160205260408120805460ff1916600190811790915560028501805491929091610b4b908490613e00565b9091555060009050610b708383670de0b6b3a764000068015af1d78b58c4000061122c565b509050610b7d8184613e00565b33600090815260066020526040902055610ba08168056bc75e2d63100000613e00565b821115610c0457610bb18183613ec8565b60068501557f923f8849d819a2fa106e36b1ee5e33d99a39982cd41e48bbcaf44f069f35e35c87610be28385613ec8565b6040805161ffff909316835260208301919091520160405180910390a1610c54565b68056bc75e2d63100000600685018190556040805161ffff8a16815260208101929092527f923f8849d819a2fa106e36b1ee5e33d99a39982cd41e48bbcaf44f069f35e35c910160405180910390a15b6040805161ffff8916815233602082015281517f7eee44fa2b2cdc0957ce53fe87745683fbde0414d60c0d1dab04a285742c0b91929181900390910190a17f7c9d26a9c3f761e124a1b3f4aaf8fe9deeffa947fbdabd8b085dab884a2a04be33610cbe8385613e00565b604080516001600160a01b03909316835260208301919091520160405180910390a1600194505050505061047f565b6000610d058383600068015af1d78b58c4000061122c565b509050610d128183613e00565b6006850155610d2a8168056bc75e2d63100000613e00565b831115610da157610d3b8184613ec8565b336000818152600660205260409020919091557f7c9d26a9c3f761e124a1b3f4aaf8fe9deeffa947fbdabd8b085dab884a2a04be90610d7a8385613ec8565b604080516001600160a01b03909316835260208301919091520160405180910390a1610df8565b3360008181526006602090815260409182902068056bc75e2d631000009081905582519384529083015280517f7c9d26a9c3f761e124a1b3f4aaf8fe9deeffa947fbdabd8b085dab884a2a04be9281900390910190a15b7f923f8849d819a2fa106e36b1ee5e33d99a39982cd41e48bbcaf44f069f35e35c87610e248385613e00565b6040805161ffff909316835260208301919091520160405180910390a1600094505050505061047f565b610e566111ff565b610e606000611318565b565b610e6d33838361136a565b5050565b6001600160a01b03918216600090815260016020908152604080832093909416825291909152205460ff1690565b336001600160a01b0386168114801590610ec05750610ebe8682610e71565b155b15610ef15760405163711bec9160e11b81526001600160a01b038083166004830152871660248201526044016104f9565b6108838686868686611400565b610f066111ff565b6001600160a01b038116610f3057604051631e4fbdf760e01b8152600060048201526024016104f9565b610f3981611318565b50565b600560205260009081526040902080548190610f5790613c38565b80601f0160208091040260200160405190810160405280929190818152602001828054610f8390613c38565b8015610fd05780601f10610fa557610100808354040283529160200191610fd0565b820191906000526020600020905b815481529060010190602001808311610fb357829003601f168201915b50505060018401546002850154600386015460068701546040805180820190915260078901548152600889015460208201526009909801549697939692955090935091906001600160a01b031687565b606080606080600080600080600080600060188c60200151901c905060006006905060008e868f6020015160405160200161106e939291909283526020830191909152604082015260600190565b6040516020818303038152906040528051906020012060001c90506110a18e600001518383888061109c5750875b61148e565b909b50995061110a91506110ba905060808f901c61204a565b6110d58f6fffffffffffffffffffffffffffffffff1661204a565b8c8c6110e08661204a565b8d6040516020016110f696959493929190613ef7565b6040516020818303038152906040526120dd565b60405160200161111a9190614057565b6040516020818303038152906040529a505050505050505050505092915050565b6001600160a01b03841661116557604051632bfa23e760e11b8152600060048201526024016104f9565b6040805160018082526020820186905281830190815260608201859052608082019092529061088360008784848761223d565b6001600160a01b0384166111c257604051632bfa23e760e11b8152600060048201526024016104f9565b6001600160a01b0385166111eb57604051626a0d4560e21b8152600060048201526024016104f9565b6111f8858585858561223d565b5050505050565b6003546001600160a01b03163314610e605760405163118cdaa760e01b81523360048201526024016104f9565b6000808085871080159061124b576112448789613ec8565b9150611258565b6112558888613ec8565b91505b6000816112815761127c678ac7230489e8000061127761019086613e40565b612290565b6112aa565b6112aa670de0b6b3a76400006112a5678ac7230489e8000061127761019088613e40565b6122d2565b905060006112c4670de0b6b3a76400006112a58482613e00565b9050808811156112f1576112e1876112dc838b613ec8565b6122e7565b95506001945061130f9350505050565b6112ff876112dc8a84613ec8565b95506000945061130f9350505050565b94509492505050565b600380546001600160a01b038381166001600160a01b0319831681179093556040519116919082907f8be0079c531659141344cd1fd0a4f28419497f9722a3daafe3b4186f6b6457e090600090a35050565b6001600160a01b0382166113935760405162ced3e160e81b8152600060048201526024016104f9565b6001600160a01b03838116600081815260016020908152604080832094871680845294825291829020805460ff191686151590811790915591519182527f17307eab39ab6107e8899845ad3d59bd9653f200f220920489ca2b5937696c31910160405180910390a3505050565b6001600160a01b03841661142a57604051632bfa23e760e11b8152600060048201526024016104f9565b6001600160a01b03851661145357604051626a0d4560e21b8152600060048201526024016104f9565b60408051600180825260208201869052818301908152606082018590526080820190925290611485878784848761223d565b50505050505050565b606080600061149c8661204a565b6114a58761204a565b6040516020016114b692919061409c565b604051602081830303815290604052905060006114d28761204a565b6040516020016114e2919061411f565b60408051601f198184030181528282019091526001808352600360fc1b602084015290925060609190891461164b57600488600f16101561155857505060408051808201825260048152634e6f6e6560e01b602080830191909152825180840190935260018352600360fc1b9083015290611626565b600d88600f1610156115a157505060408051808201825260068152654e6172726f7760d01b602080830191909152825180840190935260018352601960f91b9083015290611626565b600f88600f1610156115e957505060408051808201825260048152635769646560e01b60208083019190915282518084019093526002835261189960f11b9083015290611626565b50506040805180820182526009815268556c7472617769646560b81b602080830191909152825180840190935260028352610c8d60f21b90830152905b8382604051602001611639929190614173565b60405160208183030381529060405293505b828160405160200161165e9291906141da565b60405160208183030381529060405292505050600486901c9550606080600188603f1610156116c35750506040805180820182526005815264506c616e6560d81b602080830191909152825180840190935260018352600760fb1b90830152906117d9565b600b88603f16101561170a57505060408051808201825260038152620c4bcd60ea1b60208083019190915282518084019093526002835261072760f31b90830152906117d9565b601588603f16101561175257505060408051808201825260038082526218979960e91b60208084019190915283518085019094529083526231393760e81b90830152906117d9565b603388603f16101561179b57505060408051808201825260048152634375626560e01b602080830191909152825180840190935260038352620cce4d60ea1b90830152906117d9565b50506040805180820182526008815267496e66696e69746560c01b602080830191909152825180840190935260048352630313030360e41b90830152905b83826040516020016117ec92919061421b565b6040516020818303038152906040529350828160405160200161181092919061428d565b60405160208183030381529060405292505050600686901c955060606000601988601f161015611ad3575062ffffff600588901c168361184f8261204a565b6040516020016118609291906142ca565b6040516020818303038152906040529350600788601f1610156118ca5760405180604001604052806007815260200166556e69666f726d60c81b81525091506118ab8162ffffff0390565b601882901b603083901b604884901b606085901b171717179050611d15565b600e88601f16101561197a576040518060400160405280600681526020016553686164657360d01b81525091506119038162ffffff0390565b601882901b603062010000600160fe1b03600285901c908116613f00821617603f90911617901b604862010000600160ff1b03600186901c908116617f00821617607f90911617901b606062010000600160fd1b03600387901c908116611f00821617601f909116175b901b171717179050611d15565b601588601f161015611a2f576040518060400160405280600581526020016454696e747360d81b81525091506119b28162ffffff0390565b601882901b601083811c60ff908103600281811c8303841b600888811c8516850380841c8603821b92909217858a1686039384901c86031760301b95600185811c8703821b84821c8803841b179085901c87031760481b95606095600390811c820390921b93821c810390921b929092179290911c90031761196d565b601888601f161015611a8a576040518060400160405280600781526020016645636c6970736560c81b8152509150611a698162ffffff0390565b601882901b606083901b6bffffff0000000000000000001717179050611d15565b60405180604001604052806004815260200163159bda5960e21b8152509150611ab58162ffffff0390565b601882901b6060611ac88462ffffff0390565b901b17179050611d15565b60408051808201825260078082526610dd5c985d195960ca1b6020808401919091528351610140810185526004610100820181815263139bdc9960e21b610120840152825285518087018752600380825262422f5760e81b828601528385019190915286518088018852600981526821b0b7323cb1b7b93760b91b818601528388015286518088018852908152622923a160e91b818501526060830152855180870187526006808252655653436f646560d01b82860152608084019190915286518088018852828152632732b7b760e11b8186015260a084015286518088018852908152654a756e676c6560d01b8185015260c0830152855180870190965285526321b7b93760e11b9185019190915260e081019390935260059a909a1c999093508591908a1660088110611c0a57611c0a613e62565b6020020151604051602001611c2092919061433e565b60408051601f198184030181526080830182527d8fbcbbebcb8bd087705e81acb48ead000000ffffffffffffffffff00000083527d0d3b66f4d35eee964bfaf0caf95738ffff0000ff000000ffff0000ffff0060208401527d1e1e1e569cd6d2d1a2ba7fb54dc4ac00ffffffff000000ff00ff00ff00ff918301919091527dbe3400015045020d22eabaacbe3400f9c233705860211a28346830f9c23360608301529450600360018a901c1660048110611cdc57611cdc613e62565b60200201516001600160f01b031690506001881615611d0c57806effffffffffffffffffffffffffffff16611d12565b607881901c5b90505b8382604051602001611d289291906143b5565b604051602081830303815290604052935082611d47606083901c6122f3565b611d59604884901c62ffffff166122f3565b611d6b603085901c62ffffff166122f3565b611d7d601886901c62ffffff166122f3565b611d8b8662ffffff166122f3565b604051602001611da096959493929190614431565b60408051601f198184030181526103e083019091526103c080835290945060609350849250614a996020830139611de0611ddb8b600c613e40565b61204a565b611dee611ddb8c600c613e40565b604051602001611e019493929190614513565b604051602081830303815290604052915087600c14611ea9578515611e6657604051806040016040528060048152602001635472756560e01b815250905081604051602001611e5091906145df565b6040516020818303038152906040529150611e84565b5060408051808201909152600581526446616c736560d81b60208201525b8281604051602001611e97929190614637565b60405160208183030381529060405292505b5060005b6017811015611f685781611ec08261204a565b611ec98361204a565b611ed28461204a565b600b8510611ef957604051806040016040528060018152602001602b60f81b815250611f14565b604051806040016040528060018152602001602d60f81b8152505b600b8610611f2d57611f28600b870361204a565b611f39565b611f3986600b0361204a565b604051602001611f4e969594939291906146ad565b60408051601f198184030181529190529150600101611ead565b50606060005b6001808a901b0381101561202457600060018a03821115611f9b5781600260018c901b0303600b03611fa0565b81600b035b9050805b60018b03831115611fc457600183600260018e901b0303901b8201611fcc565b600183901b82015b811161201a5783611fef8d8d600c81611fe757611fe7613e2a565b048685612470565b6040516020016120009291906147d5565b60408051601f198184030181529190529350600201611fa4565b5050600101611f6e565b5061203b82826040516020016110f6929190614804565b99929850919650505050505050565b606060006120578361264e565b600101905060008167ffffffffffffffff81111561207757612077613637565b6040519080825280601f01601f1916602001820160405280156120a1576020820181803683370190505b5090508181016020015b600019016f181899199a1a9b1b9c1cb0b131b232b360811b600a86061a8153600a85049450846120ab57509392505050565b606081516000036120fc57505060408051602081019091526000815290565b6000604051806060016040528060408152602001614a596040913990506000600260038551600261212d9190613e00565b6121379190613e40565b901b90506000612148826020613e00565b67ffffffffffffffff81111561216057612160613637565b6040519080825280601f01601f19166020018201604052801561218a576020820181803683370190505b509050818152600183018586518101602084015b818310156121f85760039283018051603f601282901c811687015160f890811b8552600c83901c8216880151811b6001860152600683901c8216880151811b60028601529116860151901b9382019390935260040161219e565b60038951066001811461221257600281146122235761222f565b613d3d60f01b60011983015261222f565b603d60f81b6000198301525b509398975050505050505050565b61224985858585612726565b6001600160a01b038416156111f85782513390600103612282576020848101519084015161227b838989858589612943565b5050610883565b610883818787878787612a67565b6000826000036122b85781156122a75760006122b1565b670de0b6b3a76400005b905061047f565b6106b56122cd6122c785612b50565b846122e7565b612c06565b60006106b583670de0b6b3a764000084612c4c565b60006106b58383612d18565b60606f181899199a1a9b1b9c1ca0a121a222a360811b601483901c600f166020811061232157612321613e62565b1a60f81b6f181899199a1a9b1b9c1ca0a121a222a360811b601084901c600f166020811061235157612351613e62565b1a60f81b6f181899199a1a9b1b9c1ca0a121a222a360811b600c85901c600f166020811061238157612381613e62565b1a60f81b6f181899199a1a9b1b9c1ca0a121a222a360811b600886901c600f16602081106123b1576123b1613e62565b1a60f81b6f181899199a1a9b1b9c1ca0a121a222a360811b600487901c600f16602081106123e1576123e1613e62565b1a60f81b6f181899199a1a9b1b9c1ca0a121a222a360811b87600f166020811061240d5761240d613e62565b604051602360f81b60208201526001600160f81b0319978816602182015295871660228701529386166023860152918516602485015284166025840152901a60f81b90911660268201526027016040516020818303038152906040529050919050565b6060600061247d8461204a565b6124868461204a565b604051602001612497929190614867565b60408051601f19818403018152919052905060008080808789026000198a0160011b015b60018a038a8a0201811061261e57600091506000600b8911156124e85783600b8a038c02600b01016124f4565b8389600b038c02600b03015b9050805b8b826001010381106125fe57600184840382600b0103901c600b03965060018484830103901c601003955087600187600116901b600289600116901b60d8901c901c600316600261257b60018b901c60018b901c60060201603f7adb5d33cb1badb2baa99a59238a179d71b69959551349138d30b28960069092029190911c1690565b901b8f901c901c6001166000146125ab57604051806040016040528060018152602001606960f81b8152506125c6565b604051806040016040528060018152602001600d60fb1b8152505b6040516020016125d79291906148ea565b60408051601f19818403018152919052975060019093019280156125fe57600019016124f8565b506001909301926000829003612614575061261e565b50600019016124bb565b50846040516020016126309190614943565b60405160208183030381529060405295505050505050949350505050565b60008072184f03e93ff9f4daa797ed6e38ed64bf6a1f0160401b831061268d5772184f03e93ff9f4daa797ed6e38ed64bf6a1f0160401b830492506040015b6d04ee2d6d415b85acef810000000083106126b9576d04ee2d6d415b85acef8100000000830492506020015b662386f26fc1000083106126d757662386f26fc10000830492506010015b6305f5e10083106126ef576305f5e100830492506008015b612710831061270357612710830492506004015b60648310612715576064830492506002015b600a831061047f5760010192915050565b80518251146127555781518151604051635b05999160e01b8152600481019290925260248201526044016104f9565b3360005b8351811015612864576020818102858101820151908501909101516001600160a01b0388161561280c576000828152602081815260408083206001600160a01b038c168452909152902054818110156127e5576040516303dee4c560e01b81526001600160a01b038a1660048201526024810182905260448101839052606481018490526084016104f9565b6000838152602081815260408083206001600160a01b038d16845290915290209082900390555b6001600160a01b03871615612851576000828152602081815260408083206001600160a01b038b1684529091528120805483929061284b908490613e00565b90915550505b50508061285d90613e78565b9050612759565b5082516001036128e55760208301516000906020840151909150856001600160a01b0316876001600160a01b0316846001600160a01b03167fc3d58168c5ae7397731d063d5bbf3d657854427343f4c083240f7aacaa2d0f6285856040516128d6929190918252602082015260400190565b60405180910390a450506111f8565b836001600160a01b0316856001600160a01b0316826001600160a01b03167f4a39dc06d4c0dbc64b70af90fd698a233a518aa5d07e595d983b8c0526c8f7fb8686604051612934929190614973565b60405180910390a45050505050565b6001600160a01b0384163b156108835760405163f23a6e6160e01b81526001600160a01b0385169063f23a6e61906129879089908990889088908890600401614998565b6020604051808303816000875af19250505080156129c2575060408051601f3d908101601f191682019092526129bf918101906149dd565b60015b612a2b573d8080156129f0576040519150601f19603f3d011682016040523d82523d6000602084013e6129f5565b606091505b508051600003612a2357604051632bfa23e760e11b81526001600160a01b03861660048201526024016104f9565b805181602001fd5b6001600160e01b0319811663f23a6e6160e01b1461148557604051632bfa23e760e11b81526001600160a01b03861660048201526024016104f9565b6001600160a01b0384163b156108835760405163bc197c8160e01b81526001600160a01b0385169063bc197c8190612aab90899089908890889088906004016149fa565b6020604051808303816000875af1925050508015612ae6575060408051601f3d908101601f19168201909252612ae3918101906149dd565b60015b612b14573d8080156129f0576040519150601f19603f3d011682016040523d82523d6000602084013e6129f5565b6001600160e01b0319811663bc197c8160e01b1461148557604051632bfa23e760e11b81526001600160a01b03861660048201526024016104f9565b6000670de0b6b3a7640000821015612b7e57604051633621413760e21b8152600481018390526024016104f9565b6000612b93670de0b6b3a76400008404612dde565b670de0b6b3a764000081029250905082811c670de0b6b3a763ffff198101612bbc575050919050565b6706f05b59d3b200005b8015612bfe57670de0b6b3a7640000828002049150671bc16d674ec800008210612bf6579283019260019190911c905b60011c612bc6565b505050919050565b6000680a688906bd8b0000008210612c3457604051634a4f26f160e01b8152600481018390526024016104f9565b670de0b6b3a7640000604083901b046106b581612ec7565b6000808060001985870985870292508281108382030391505080600003612c8657838281612c7c57612c7c613e2a565b04925050506106b5565b838110612cb057604051631dcf306360e21b815260048101829052602481018590526044016104f9565b600084868809600260036001881981018916988990049182028318808302840302808302840302808302840302808302840302808302840302918202909203026000889003889004909101858311909403939093029303949094049190911702949350505050565b60008080600019848609848602925082811083820303915050670de0b6b3a76400008110612d5c5760405163698d9a0160e11b8152600481018290526024016104f9565b600080670de0b6b3a764000086880991506706f05b59d3b1ffff8211905082600003612d9a5780670de0b6b3a764000085040194505050505061047f565b620400008285030493909111909103600160ee1b02919091177faccb18165bd6fe31ae1cf318dc5b51eee0e1ba569b88cd74c1773b91fac106690201905092915050565b6000600160801b8210612dfe57608091821c91612dfb9082613e00565b90505b680100000000000000008210612e2157604091821c91612e1e9082613e00565b90505b6401000000008210612e4057602091821c91612e3d9082613e00565b90505b620100008210612e5d57601091821c91612e5a9082613e00565b90505b6101008210612e7957600891821c91612e769082613e00565b90505b60108210612e9457600491821c91612e919082613e00565b90505b60048210612eaf57600291821c91612eac9082613e00565b90505b60028210612ec25761047f600182613e00565b919050565b600160bf1b678000000000000000821615612eeb5768016a09e667f3bcc9090260401c5b674000000000000000821615612f0a576801306fe0a31b7152df0260401c5b672000000000000000821615612f29576801172b83c7d517adce0260401c5b671000000000000000821615612f485768010b5586cf9890f62a0260401c5b670800000000000000821615612f67576801059b0d31585743ae0260401c5b670400000000000000821615612f8657680102c9a3e778060ee70260401c5b670200000000000000821615612fa55768010163da9fb33356d80260401c5b670100000000000000821615612fc457680100b1afa5abcbed610260401c5b6680000000000000821615612fe25768010058c86da1c09ea20260401c5b6640000000000000821615613000576801002c605e2e8cec500260401c5b662000000000000082161561301e57680100162f3904051fa10260401c5b661000000000000082161561303c576801000b175effdc76ba0260401c5b660800000000000082161561305a57680100058ba01fb9f96d0260401c5b66040000000000008216156130785768010002c5cc37da94920260401c5b6602000000000000821615613096576801000162e525ee05470260401c5b66010000000000008216156130b45768010000b17255775c040260401c5b658000000000008216156130d1576801000058b91b5bc9ae0260401c5b654000000000008216156130ee57680100002c5c89d5ec6d0260401c5b6520000000000082161561310b5768010000162e43f4f8310260401c5b6510000000000082161561312857680100000b1721bcfc9a0260401c5b650800000000008216156131455768010000058b90cf1e6e0260401c5b65040000000000821615613162576801000002c5c863b73f0260401c5b6502000000000082161561317f57680100000162e430e5a20260401c5b6501000000000082161561319c576801000000b1721835510260401c5b6480000000008216156131b857680100000058b90c0b490260401c5b6440000000008216156131d45768010000002c5c8601cc0260401c5b6420000000008216156131f0576801000000162e42fff00260401c5b64100000000082161561320c5768010000000b17217fbb0260401c5b640800000000821615613228576801000000058b90bfce0260401c5b64040000000082161561324457680100000002c5c85fe30260401c5b6402000000008216156132605768010000000162e42ff10260401c5b64010000000082161561327c57680100000000b17217f80260401c5b63800000008216156132975768010000000058b90bfc0260401c5b63400000008216156132b2576801000000002c5c85fe0260401c5b63200000008216156132cd57680100000000162e42ff0260401c5b63100000008216156132e8576801000000000b17217f0260401c5b630800000082161561330357680100000000058b90c00260401c5b630400000082161561331e5768010000000002c5c8600260401c5b6302000000821615613339576801000000000162e4300260401c5b63010000008216156133545768010000000000b172180260401c5b6280000082161561336e576801000000000058b90c0260401c5b6240000082161561338857680100000000002c5c860260401c5b622000008216156133a25768010000000000162e430260401c5b621000008216156133bc57680100000000000b17210260401c5b620800008216156133d65768010000000000058b910260401c5b620400008216156133f0576801000000000002c5c80260401c5b6202000082161561340a57680100000000000162e40260401c5b62010000821615613424576801000000000000b1720260401c5b61800082161561343d57680100000000000058b90260401c5b6140008216156134565768010000000000002c5d0260401c5b61200082161561346f576801000000000000162e0260401c5b6110008216156134885768010000000000000b170260401c5b6108008216156134a1576801000000000000058c0260401c5b6104008216156134ba57680100000000000002c60260401c5b6102008216156134d357680100000000000001630260401c5b6101008216156134ec57680100000000000000b10260401c5b608082161561350457680100000000000000590260401c5b604082161561351c576801000000000000002c0260401c5b602082161561353457680100000000000000160260401c5b601082161561354c576801000000000000000b0260401c5b600882161561356457680100000000000000060260401c5b600482161561357c57680100000000000000030260401c5b600282161561359457680100000000000000010260401c5b60018216156135ac57680100000000000000010260401c5b670de0b6b3a76400000260409190911c60bf031c90565b80356001600160a01b0381168114612ec257600080fd5b600080604083850312156135ed57600080fd5b6135f6836135c3565b946020939093013593505050565b6001600160e01b031981168114610f3957600080fd5b60006020828403121561362c57600080fd5b81356106b581613604565b634e487b7160e01b600052604160045260246000fd5b604051601f8201601f1916810167ffffffffffffffff8111828210171561367657613676613637565b604052919050565b600067ffffffffffffffff83111561369857613698613637565b6136ab601f8401601f191660200161364d565b90508281528383830111156136bf57600080fd5b828260208301376000602084830101529392505050565b600080600083850360808112156136ec57600080fd5b843567ffffffffffffffff8082111561370457600080fd5b818701915087601f83011261371857600080fd5b6137278883356020850161367e565b9550602087013594506040603f198401121561374257600080fd5b6040519250604083019150828210818311171561376157613761613637565b50604090815285013581526060909401356020850152509093909250565b60006020828403121561379157600080fd5b5035919050565b60005b838110156137b357818101518382015260200161379b565b50506000910152565b600081518084526137d4816020860160208601613798565b601f01601f19169290920160200192915050565b6020815260006106b560208301846137bc565b803561ffff81168114612ec257600080fd5b60006020828403121561381f57600080fd5b6106b5826137fb565b600067ffffffffffffffff82111561384257613842613637565b5060051b60200190565b600082601f83011261385d57600080fd5b8135602061387261386d83613828565b61364d565b82815260059290921b8401810191818101908684111561389157600080fd5b8286015b848110156138ac5780358352918301918301613895565b509695505050505050565b600082601f8301126138c857600080fd5b6106b58383356020850161367e565b600080600080600060a086880312156138ef57600080fd5b6138f8866135c3565b9450613906602087016135c3565b9350604086013567ffffffffffffffff8082111561392357600080fd5b61392f89838a0161384c565b9450606088013591508082111561394557600080fd5b61395189838a0161384c565b9350608088013591508082111561396757600080fd5b50613974888289016138b7565b9150509295509295909350565b6000806040838503121561399457600080fd5b823567ffffffffffffffff808211156139ac57600080fd5b818501915085601f8301126139c057600080fd5b813560206139d061386d83613828565b82815260059290921b840181019181810190898411156139ef57600080fd5b948201945b83861015613a1457613a05866135c3565b825294820194908201906139f4565b96505086013592505080821115613a2a57600080fd5b50613a378582860161384c565b9150509250929050565b600081518084526020808501945080840160005b83811015613a7157815187529582019590820190600101613a55565b509495945050505050565b6020815260006106b56020830184613a41565b60008060408385031215613aa257600080fd5b613aab836137fb565b9150602083013567ffffffffffffffff811115613ac757600080fd5b613a37858286016138b7565b60008060408385031215613ae657600080fd5b613aef836137fb565b9150613afd602084016135c3565b90509250929050565b600060208284031215613b1857600080fd5b6106b5826135c3565b60008060408385031215613b3457600080fd5b613b3d836135c3565b915060208301358015158114613b5257600080fd5b809150509250929050565b60008060408385031215613b7057600080fd5b613aef836135c3565b600080600080600060a08688031215613b9157600080fd5b613b9a866135c3565b9450613ba8602087016135c3565b93506040860135925060608601359150608086013567ffffffffffffffff811115613bd257600080fd5b613974888289016138b7565b6000610100808352613bf28184018b6137bc565b915050876020830152866040830152856060830152846080830152835160a0830152602084015160c083015260018060a01b03831660e083015298975050505050505050565b600181811c90821680613c4c57607f821691505b602082108103613c6c57634e487b7160e01b600052602260045260246000fd5b50919050565b601f821115613cb857600081815260208120601f850160051c81016020861015613c995750805b601f850160051c820191505b8181101561088357828155600101613ca5565b505050565b815167ffffffffffffffff811115613cd757613cd7613637565b613ceb81613ce58454613c38565b84613c72565b602080601f831160018114613d205760008415613d085750858301515b600019600386901b1c1916600185901b178555610883565b600085815260208120601f198616915b82811015613d4f57888601518255948401946001909101908401613d30565b5085821015613d6d5787850151600019600388901b60f8161c191681555b5050505050600190811b01905550565b634e487b7160e01b600052601160045260246000fd5b61ffff818116838216019080821115613dae57613dae613d7d565b5092915050565b61ffff8716815260c060208201526000613dd260c08301886137bc565b604083019690965250606081019390935260808301919091526001600160a01b031660a09091015292915050565b8082018082111561047f5761047f613d7d565b808202811582820484141761047f5761047f613d7d565b634e487b7160e01b600052601260045260246000fd5b600082613e5d57634e487b7160e01b600052601260045260246000fd5b500490565b634e487b7160e01b600052603260045260246000fd5b600060018201613e8a57613e8a613d7d565b5060010190565b61ffff841681526001600160a01b0383166020820152606060408201819052600090613ebf908301846137bc565b95945050505050565b8181038181111561047f5761047f613d7d565b60008151613eed818560208601613798565b9290920192915050565b6e7b226e616d65223a2247616d65202360881b81528651600090613f2281600f850160208c01613798565b672c204d6f7665202360c01b600f918401918201528751613f4a816017840160208c01613798565b701116113232b9b1b934b83a34b7b7111d1160791b601792909101918201528651613f7c816028840160208b01613798565b7f222c22616e696d6174696f6e5f75726c223a22646174613a746578742f68746d60289290910191820152681b0ed8985cd94d8d0b60ba1b60488201528551613fcc816051840160208a01613798565b61404961403b6140356140276140216051868801017f222c2261747472696275746573223a5b7b2274726169745f74797065223a224481526d32b83a341116113b30b63ab2911d60911b6020820152602e0190565b8a613edb565b611f4b60f21b815260020190565b87613edb565b615d7d60f01b815260020190565b9a9950505050505050505050565b7f646174613a6170706c69636174696f6e2f6a736f6e3b6261736536342c00000081526000825161408f81601d850160208701613798565b91909101601d0192915050565b7f7b2274726169745f74797065223a2244696d656e73696f6e222c2276616c7565815262111d1160e91b6020820152600083516140e0816023850160208801613798565b6301061cb960e51b6023918401918201528351614104816027840160208801613798565b61227d60f01b60279290910191820152602901949350505050565b7f3c7374796c653e3a726f6f747b2d2d613a3130303070783b2d2d623a0000000081526000825161415781601c850160208701613798565b641d9696b19d60d91b601c939091019283015250602101919050565b60008351614185818460208801613798565b7f2c7b2274726169745f74797065223a22476170222c2276616c7565223a22000090830190815283516141bf81601e840160208801613798565b61227d60f01b601e9290910191820152602001949350505050565b600083516141ec818460208801613798565b835190830190614200818360208801613798565b66383c1d9696b21d60c91b9101908152600701949350505050565b6000835161422d818460208801613798565b80830190507f2c7b2274726169745f74797065223a22486569676874222c2276616c7565223a8152601160f91b60208201528351614272816021840160208801613798565b61227d60f01b60219290910191820152602301949350505050565b6000835161429f818460208801613798565b8351908301906142b3818360208801613798565b6270783b60e81b9101908152600301949350505050565b600083516142dc818460208801613798565b80830190507f2c7b2274726169745f74797065223a224261736520436f6c6f72222c2276616c8152633ab2911d60e11b60208201528351614324816024840160208801613798565b607d60f81b60249290910191820152602501949350505050565b60008351614350818460208801613798565b80830190507f2c7b2274726169745f74797065223a22436f6c6f72205468656d65222c227661815265363ab2911d1160d11b6020820152835161439a816026840160208801613798565b61227d60f01b60269290910191820152602801949350505050565b600083516143c7818460208801613798565b80830190507f2c7b2274726169745f74797065223a22436f6c6f722047656e65726174696f6e81526a1116113b30b63ab2911d1160a91b6020820152835161441681602b840160208801613798565b61227d60f01b602b9290910191820152602d01949350505050565b60008751614443818460208c01613798565b631696b29d60e11b9083019081528751614464816004840160208c01613798565b641d9696b31d60d91b60049290910191820152865161448a816009840160208b01613798565b641d9696b39d60d91b6009929091019182015285516144b081600e840160208a01613798565b641d9696b41d60d91b600e929091019182015284516144d6816013840160208901613798565b641d9696b49d60d91b601392909101918201526145066144f96018830186613edb565b603b60f81b815260010190565b9998505050505050505050565b6000855160206145268285838b01613798565b8651918401916145398184848b01613798565b865192019161454b8184848a01613798565b7f2c316672293b677269642d74656d706c6174652d726f77733a726570656174289201918252845161458281838501848901613798565b7f2c316672293b7472616e73666f726d3a726f746174652832313064656729736b9201908101919091527f6577282d3330646567297363616c655928302e383634297d000000000000000060408201526058019695505050505050565b600082516145f1818460208701613798565b7f2e633e2a3a6e74682d6368696c642833293e6469767b626f726465723a2031709201918252506d7820736f6c696420626c61636b7d60901b6020820152602e01919050565b60008351614649818460208801613798565b80830190507f2c7b2274726169745f74797065223a2242697420426f72646572222c2276616c8152643ab2911d1160d91b60208201528351614692816025840160208801613798565b61227d60f01b60259290910191820152602701949350505050565b600087516146bf818460208c01613798565b61173960f11b90830190815287516146de816002840160208c01613798565b7403dba37b81d31b0b631943b30b9141696b79490159605d1b600292909101918201528651614714816017840160208b01613798565b7f2a28766172282d2d6e292f32202b20766172282d2d632929297d2e6300000000601792909101918201528551614752816033840160208a01613798565b7303db632b33a1d31b0b631943b30b9141696b814960651b603392909101918201528451614787816047840160208901613798565b661018171c1b1b1560c91b604792909101918201526145066147ac604e830186613edb565b7f2a28766172282d2d6e29202b20766172282d2d632929297d0000000000000000815260180190565b600083516147e7818460208801613798565b8351908301906147fb818360208801613798565b01949350505050565b60008351614816818460208801613798565b701e17b9ba3cb6329f1e39b2b1ba34b7b71f60791b9083019081528351614844816011840160208801613798565b691e17b9b2b1ba34b7b71f60b11b60119290910191820152601b01949350505050565b6e1e3234bb1031b630b9b99e9131903960891b8152825160009061489281600f850160208801613798565b61206360f01b600f9184019182015283516148b4816011840160208801613798565b7f223e3c6469763e3c2f6469763e3c6469763e3c2f6469763e3c6469763e00000060119290910191820152602e01949350505050565b600083516148fc818460208801613798565b681e3234bb1034b21e9160b91b9083019081528351614922816009840160208801613798565b67111f1e17b234bb1f60c11b60099290910191820152601101949350505050565b60008251614955818460208701613798565b6b1e17b234bb1f1e17b234bb1f60a11b920191825250600c01919050565b6040815260006149866040830185613a41565b8281036020840152613ebf8185613a41565b6001600160a01b03868116825285166020820152604081018490526060810183905260a0608082018190526000906149d2908301846137bc565b979650505050505050565b6000602082840312156149ef57600080fd5b81516106b581613604565b6001600160a01b0386811682528516602082015260a060408201819052600090614a2690830186613a41565b8281036060840152614a388186613a41565b90508281036080840152614a4c81856137bc565b9897505050505050505056fe4142434445464748494a4b4c4d4e4f505152535455565758595a6162636465666768696a6b6c6d6e6f707172737475767778797a303132333435363738392b2f2d2d6e3a63616c6328283339347078202d2028766172282d2d6229202d2031292a766172282d2d6329292f766172282d2d6229293b2d2d6f3a63616c63283130367078202b20766172282d2d6e29293b2d2d703a63616c6328766172282d2d61292f32297d73656374696f6e7b6865696768743a766172282d2d61293b77696474683a766172282d2d61293b6261636b67726f756e643a766172282d2d65293b706f736974696f6e3a6162736f6c7574653b6c6566743a303b746f703a303b72696768743a303b626f74746f6d3a303b6f766572666c6f773a68696464656e7d2e637b6865696768743a303b77696474683a303b706f736974696f6e3a6162736f6c7574653b7472616e736974696f6e3a302e3235737d2e633a686f7665727b7472616e73666f726d3a7472616e736c617465283070782c2d36347078293b7472616e736974696f6e3a302e3235737d2e633e2a7b6865696768743a766172282d2d6e293b77696474683a766172282d2d6e293b626f726465722d626f74746f6d3a34707820736f6c696420626c61636b3b626f726465722d72696768743a34707820736f6c696420626c61636b3b626f726465722d6c6566743a31707820736f6c696420626c61636b3b626f726465722d746f703a31707820736f6c696420626c61636b3b7472616e73666f726d2d6f726967696e3a3020303b706f736974696f6e3a72656c61746976653b626f782d73697a696e673a626f726465722d626f787d2e633e2a3a6e74682d6368696c642831297b77696474683a766172282d2d64293b6261636b67726f756e642d636f6c6f723a766172282d2d66293b7472616e73666f726d3a726f7461746528393064656729736b657758282d3330646567297363616c655928302e383634297d2e633e2a3a6e74682d6368696c642832297b6865696768743a766172282d2d64293b626f74746f6d3a766172282d2d6e293b6261636b67726f756e642d636f6c6f723a766172282d2d67293b7472616e73666f726d3a726f74617465282d333064656729736b657758282d3330646567297363616c655928302e383634297d23687b6261636b67726f756e642d636f6c6f723a766172282d2d68297d23697b6261636b67726f756e642d636f6c6f723a766172282d2d69297d2e633e2a3a6e74682d6368696c642833297b626f74746f6d3a63616c6328766172282d2d6429202b20766172282d2d6e29293b6261636b67726f756e642d636f6c6f723a766172282d2d68293b646973706c61793a677269643b677269642d74656d706c6174652d636f6c756d6e733a72657065617428a26469706673582212203c704b297f8d593d14b355e50318e0f05e83a65208a236670faf9adad6439f7564736f6c63430008140033",
  "devdoc": {
    "errors": {
      "ERC1155InsufficientBalance(address,uint256,uint256,uint256)": [
        {
          "details": "Indicates an error related to the current `balance` of a `sender`. Used in transfers.",
          "params": {
            "balance": "Current balance for the interacting account.",
            "needed": "Minimum amount required to perform a transfer.",
            "sender": "Address whose tokens are being transferred.",
            "tokenId": "Identifier number of a token."
          }
        }
      ],
      "ERC1155InvalidApprover(address)": [
        {
          "details": "Indicates a failure with the `approver` of a token to be approved. Used in approvals.",
          "params": {
            "approver": "Address initiating an approval operation."
          }
        }
      ],
      "ERC1155InvalidArrayLength(uint256,uint256)": [
        {
          "details": "Indicates an array length mismatch between ids and values in a safeBatchTransferFrom operation. Used in batch transfers.",
          "params": {
            "idsLength": "Length of the array of token identifiers",
            "valuesLength": "Length of the array of token amounts"
          }
        }
      ],
      "ERC1155InvalidOperator(address)": [
        {
          "details": "Indicates a failure with the `operator` to be approved. Used in approvals.",
          "params": {
            "operator": "Address that may be allowed to operate on tokens without being their owner."
          }
        }
      ],
      "ERC1155InvalidReceiver(address)": [
        {
          "details": "Indicates a failure with the token `receiver`. Used in transfers.",
          "params": {
            "receiver": "Address to which tokens are being transferred."
          }
        }
      ],
      "ERC1155InvalidSender(address)": [
        {
          "details": "Indicates a failure with the token `sender`. Used in transfers.",
          "params": {
            "sender": "Address whose tokens are being transferred."
          }
        }
      ],
      "ERC1155MissingApprovalForAll(address,address)": [
        {
          "details": "Indicates a failure with the `operator`s approval. Used in transfers.",
          "params": {
            "operator": "Address that may be allowed to operate on tokens without being their owner.",
            "owner": "Address of the current owner of a token."
          }
        }
      ],
      "OwnableInvalidOwner(address)": [
        {
          "details": "The owner is not a valid owner account. (eg. `address(0)`)"
        }
      ],
      "OwnableUnauthorizedAccount(address)": [
        {
          "details": "The caller account is not authorized to perform an operation."
        }
      ]
    },
    "events": {
      "ApprovalForAll(address,address,bool)": {
        "details": "Emitted when `account` grants or revokes permission to `operator` to transfer their tokens, according to `approved`."
      },
      "TransferBatch(address,address,address,uint256[],uint256[])": {
        "details": "Equivalent to multiple {TransferSingle} events, where `operator`, `from` and `to` are the same for all transfers."
      },
      "TransferSingle(address,address,address,uint256,uint256)": {
        "details": "Emitted when `value` amount of tokens of type `id` are transferred from `from` to `to` by `operator`."
      },
      "URI(string,uint256)": {
        "details": "Emitted when the URI for token type `id` changes to `value`, if it is a non-programmatic URI. If an {URI} event was emitted for `id`, the standard https://eips.ethereum.org/EIPS/eip-1155#metadata-extensions[guarantees] that `value` will equal the value returned by {IERC1155MetadataURI-uri}."
      }
    },
    "kind": "dev",
    "methods": {
      "balanceOf(address,uint256)": {
        "details": "See {IERC1155-balanceOf}."
      },
      "balanceOfBatch(address[],uint256[])": {
        "details": "See {IERC1155-balanceOfBatch}. Requirements: - `accounts` and `ids` must have the same length."
      },
      "isApprovedForAll(address,address)": {
        "details": "See {IERC1155-isApprovedForAll}."
      },
      "owner()": {
        "details": "Returns the address of the current owner."
      },
      "renounceOwnership()": {
        "details": "Leaves the contract without owner. It will not be possible to call `onlyOwner` functions. Can only be called by the current owner. NOTE: Renouncing ownership will leave the contract without an owner, thereby disabling any functionality that is only available to the owner."
      },
      "safeBatchTransferFrom(address,address,uint256[],uint256[],bytes)": {
        "details": "See {IERC1155-safeBatchTransferFrom}."
      },
      "safeTransferFrom(address,address,uint256,uint256,bytes)": {
        "details": "See {IERC1155-safeTransferFrom}."
      },
      "setApprovalForAll(address,bool)": {
        "details": "See {IERC1155-setApprovalForAll}."
      },
      "supportsInterface(bytes4)": {
        "details": "See {IERC165-supportsInterface}."
      },
      "transferOwnership(address)": {
        "details": "Transfers ownership of the contract to a new account (`newOwner`). Can only be called by the current owner."
      }
    },
    "version": 1
  },
  "userdoc": {
    "errors": {
      "PRBMathUD60x18__Exp2InputTooBig(uint256)": [
        {
          "notice": "Emitted when the input is greater than 192."
        }
      ],
      "PRBMathUD60x18__LogInputTooSmall(uint256)": [
        {
          "notice": "Emitted when the input is less than 1."
        }
      ],
      "PRBMath__MulDivFixedPointOverflow(uint256)": [
        {
          "notice": "Emitted when the result overflows uint256."
        }
      ],
      "PRBMath__MulDivOverflow(uint256,uint256)": [
        {
          "notice": "Emitted when the result overflows uint256."
        }
      ]
    },
    "kind": "user",
    "methods": {},
    "version": 1
  },
  "storageLayout": {
    "storage": [
      {
        "astId": 326,
        "contract": "contracts/Board.sol:Board",
        "label": "_balances",
        "offset": 0,
        "slot": "0",
        "type": "t_mapping(t_uint256,t_mapping(t_address,t_uint256))"
      },
      {
        "astId": 332,
        "contract": "contracts/Board.sol:Board",
        "label": "_operatorApprovals",
        "offset": 0,
        "slot": "1",
        "type": "t_mapping(t_address,t_mapping(t_address,t_bool))"
      },
      {
        "astId": 334,
        "contract": "contracts/Board.sol:Board",
        "label": "_uri",
        "offset": 0,
        "slot": "2",
        "type": "t_string_storage"
      },
      {
        "astId": 8,
        "contract": "contracts/Board.sol:Board",
        "label": "_owner",
        "offset": 0,
        "slot": "3",
        "type": "t_address"
      },
      {
        "astId": 3325,
        "contract": "contracts/Board.sol:Board",
        "label": "puzzleCounter",
        "offset": 20,
        "slot": "3",
        "type": "t_uint16"
      },
      {
        "astId": 3327,
        "contract": "contracts/Board.sol:Board",
        "label": "tokenCount",
        "offset": 0,
        "slot": "4",
        "type": "t_uint256"
      },
      {
        "astId": 3356,
        "contract": "contracts/Board.sol:Board",
        "label": "puzzlesById",
        "offset": 0,
        "slot": "5",
        "type": "t_mapping(t_uint16,t_struct(Puzzle)3351_storage)"
      },
      {
        "astId": 3360,
        "contract": "contracts/Board.sol:Board",
        "label": "userRatings",
        "offset": 0,
        "slot": "6",
        "type": "t_mapping(t_address,t_uint256)"
      },
      {
        "astId": 3364,
        "contract": "contracts/Board.sol:Board",
        "label": "tokenIdToPuzzleId",
        "offset": 0,
        "slot": "7",
        "type": "t_mapping(t_uint256,t_uint16)"
      }
    ],
    "types": {
      "t_address": {
        "encoding": "inplace",
        "label": "address",
        "numberOfBytes": "20"
      },
      "t_bool": {
        "encoding": "inplace",
        "label": "bool",
        "numberOfBytes": "1"
      },
      "t_bytes32": {
        "encoding": "inplace",
        "label": "bytes32",
        "numberOfBytes": "32"
      },
      "t_mapping(t_address,t_bool)": {
        "encoding": "mapping",
        "key": "t_address",
        "label": "mapping(address => bool)",
        "numberOfBytes": "32",
        "value": "t_bool"
      },
      "t_mapping(t_address,t_mapping(t_address,t_bool))": {
        "encoding": "mapping",
        "key": "t_address",
        "label": "mapping(address => mapping(address => bool))",
        "numberOfBytes": "32",
        "value": "t_mapping(t_address,t_bool)"
      },
      "t_mapping(t_address,t_uint256)": {
        "encoding": "mapping",
        "key": "t_address",
        "label": "mapping(address => uint256)",
        "numberOfBytes": "32",
        "value": "t_uint256"
      },
      "t_mapping(t_uint16,t_struct(Puzzle)3351_storage)": {
        "encoding": "mapping",
        "key": "t_uint16",
        "label": "mapping(uint16 => struct Board.Puzzle)",
        "numberOfBytes": "32",
        "value": "t_struct(Puzzle)3351_storage"
      },
      "t_mapping(t_uint256,t_mapping(t_address,t_uint256))": {
        "encoding": "mapping",
        "key": "t_uint256",
        "label": "mapping(uint256 => mapping(address => uint256))",
        "numberOfBytes": "32",
        "value": "t_mapping(t_address,t_uint256)"
      },
      "t_mapping(t_uint256,t_uint16)": {
        "encoding": "mapping",
        "key": "t_uint256",
        "label": "mapping(uint256 => uint16)",
        "numberOfBytes": "32",
        "value": "t_uint16"
      },
      "t_string_storage": {
        "encoding": "bytes",
        "label": "string",
        "numberOfBytes": "32"
      },
      "t_struct(Move)3996_storage": {
        "encoding": "inplace",
        "label": "struct Chess.Move",
        "members": [
          {
            "astId": 3993,
            "contract": "contracts/Board.sol:Board",
            "label": "board",
            "offset": 0,
            "slot": "0",
            "type": "t_uint256"
          },
          {
            "astId": 3995,
            "contract": "contracts/Board.sol:Board",
            "label": "metadata",
            "offset": 0,
            "slot": "1",
            "type": "t_uint256"
          }
        ],
        "numberOfBytes": "64"
      },
      "t_struct(Puzzle)3351_storage": {
        "encoding": "inplace",
        "label": "struct Board.Puzzle",
        "members": [
          {
            "astId": 3329,
            "contract": "contracts/Board.sol:Board",
            "label": "fen",
            "offset": 0,
            "slot": "0",
            "type": "t_string_storage"
          },
          {
            "astId": 3331,
            "contract": "contracts/Board.sol:Board",
            "label": "solutionHash",
            "offset": 0,
            "slot": "1",
            "type": "t_bytes32"
          },
          {
            "astId": 3333,
            "contract": "contracts/Board.sol:Board",
            "label": "solveCount",
            "offset": 0,
            "slot": "2",
            "type": "t_uint256"
          },
          {
            "astId": 3335,
            "contract": "contracts/Board.sol:Board",
            "label": "attemptCount",
            "offset": 0,
            "slot": "3",
            "type": "t_uint256"
          },
          {
            "astId": 3339,
            "contract": "contracts/Board.sol:Board",
            "label": "userHasSolved",
            "offset": 0,
            "slot": "4",
            "type": "t_mapping(t_address,t_bool)"
          },
          {
            "astId": 3343,
            "contract": "contracts/Board.sol:Board",
            "label": "userHasAttempted",
            "offset": 0,
            "slot": "5",
            "type": "t_mapping(t_address,t_bool)"
          },
          {
            "astId": 3345,
            "contract": "contracts/Board.sol:Board",
            "label": "rating",
            "offset": 0,
            "slot": "6",
            "type": "t_uint256"
          },
          {
            "astId": 3348,
            "contract": "contracts/Board.sol:Board",
            "label": "move",
            "offset": 0,
            "slot": "7",
            "type": "t_struct(Move)3996_storage"
          },
          {
            "astId": 3350,
            "contract": "contracts/Board.sol:Board",
            "label": "creator",
            "offset": 0,
            "slot": "9",
            "type": "t_address"
          }
        ],
        "numberOfBytes": "320"
      },
      "t_uint16": {
        "encoding": "inplace",
        "label": "uint16",
        "numberOfBytes": "2"
      },
      "t_uint256": {
        "encoding": "inplace",
        "label": "uint256",
        "numberOfBytes": "32"
      }
    }
  }
}