{
  "address": "0xC2e1b2568AB0ceceFC777B059d3511cdC8322c6e",
  "abi": [
    {
      "inputs": [
        {
          "internalType": "address",
          "name": "initialOwner",
          "type": "address"
        },
        {
          "internalType": "address",
          "name": "_artAddr",
          "type": "address"
        }
      ],
      "stateMutability": "nonpayable",
      "type": "constructor"
    },
    {
      "inputs": [
        {
          "internalType": "uint256",
          "name": "internalTokenId",
          "type": "uint256"
        }
      ],
      "name": "AlreadyAttempted",
      "type": "error"
    },
    {
      "inputs": [
        {
          "internalType": "address",
          "name": "sender",
          "type": "address"
        },
        {
          "internalType": "uint256",
          "name": "balance",
          "type": "uint256"
        },
        {
          "internalType": "uint256",
          "name": "needed",
          "type": "uint256"
        },
        {
          "internalType": "uint256",
          "name": "tokenId",
          "type": "uint256"
        }
      ],
      "name": "ERC1155InsufficientBalance",
      "type": "error"
    },
    {
      "inputs": [
        {
          "internalType": "address",
          "name": "approver",
          "type": "address"
        }
      ],
      "name": "ERC1155InvalidApprover",
      "type": "error"
    },
    {
      "inputs": [
        {
          "internalType": "uint256",
          "name": "idsLength",
          "type": "uint256"
        },
        {
          "internalType": "uint256",
          "name": "valuesLength",
          "type": "uint256"
        }
      ],
      "name": "ERC1155InvalidArrayLength",
      "type": "error"
    },
    {
      "inputs": [
        {
          "internalType": "address",
          "name": "operator",
          "type": "address"
        }
      ],
      "name": "ERC1155InvalidOperator",
      "type": "error"
    },
    {
      "inputs": [
        {
          "internalType": "address",
          "name": "receiver",
          "type": "address"
        }
      ],
      "name": "ERC1155InvalidReceiver",
      "type": "error"
    },
    {
      "inputs": [
        {
          "internalType": "address",
          "name": "sender",
          "type": "address"
        }
      ],
      "name": "ERC1155InvalidSender",
      "type": "error"
    },
    {
      "inputs": [
        {
          "internalType": "address",
          "name": "operator",
          "type": "address"
        },
        {
          "internalType": "address",
          "name": "owner",
          "type": "address"
        }
      ],
      "name": "ERC1155MissingApprovalForAll",
      "type": "error"
    },
    {
      "inputs": [
        {
          "internalType": "string",
          "name": "s",
          "type": "string"
        }
      ],
      "name": "FENCannotBeEmpty",
      "type": "error"
    },
    {
      "inputs": [
        {
          "internalType": "uint256",
          "name": "amountSent",
          "type": "uint256"
        },
        {
          "internalType": "uint256",
          "name": "requiredAmount",
          "type": "uint256"
        }
      ],
      "name": "IncorrectMessageValue",
      "type": "error"
    },
    {
      "inputs": [
        {
          "internalType": "uint256",
          "name": "internalTokenId",
          "type": "uint256"
        },
        {
          "internalType": "uint256",
          "name": "metadata",
          "type": "uint256"
        }
      ],
      "name": "InvalidMetadata",
      "type": "error"
    },
    {
      "inputs": [
        {
          "internalType": "uint256",
          "name": "internalTokenId",
          "type": "uint256"
        }
      ],
      "name": "InvalidPuzzle",
      "type": "error"
    },
    {
      "inputs": [
        {
          "internalType": "address",
          "name": "owner",
          "type": "address"
        }
      ],
      "name": "OwnableInvalidOwner",
      "type": "error"
    },
    {
      "inputs": [
        {
          "internalType": "address",
          "name": "account",
          "type": "address"
        }
      ],
      "name": "OwnableUnauthorizedAccount",
      "type": "error"
    },
    {
      "inputs": [
        {
          "internalType": "uint256",
          "name": "internalTokenId",
          "type": "uint256"
        }
      ],
      "name": "PuzzleNotSolved",
      "type": "error"
    },
    {
      "inputs": [
        {
          "internalType": "bytes32",
          "name": "b",
          "type": "bytes32"
        }
      ],
      "name": "SolutionCannotBeEmpty",
      "type": "error"
    },
    {
      "inputs": [
        {
          "internalType": "uint256",
          "name": "tokenId",
          "type": "uint256"
        }
      ],
      "name": "TokenDoesNotExist",
      "type": "error"
    },
    {
      "inputs": [
        {
          "internalType": "address",
          "name": "user",
          "type": "address"
        }
      ],
      "name": "UserNotAuthorized",
      "type": "error"
    },
    {
      "anonymous": false,
      "inputs": [
        {
          "indexed": true,
          "internalType": "address",
          "name": "account",
          "type": "address"
        },
        {
          "indexed": true,
          "internalType": "address",
          "name": "operator",
          "type": "address"
        },
        {
          "indexed": false,
          "internalType": "bool",
          "name": "approved",
          "type": "bool"
        }
      ],
      "name": "ApprovalForAll",
      "type": "event"
    },
    {
      "anonymous": false,
      "inputs": [
        {
          "indexed": true,
          "internalType": "address",
          "name": "previousOwner",
          "type": "address"
        },
        {
          "indexed": true,
          "internalType": "address",
          "name": "newOwner",
          "type": "address"
        }
      ],
      "name": "OwnershipTransferred",
      "type": "event"
    },
    {
      "anonymous": false,
      "inputs": [
        {
          "indexed": false,
          "internalType": "uint256",
          "name": "internalTokenId",
          "type": "uint256"
        },
        {
          "indexed": false,
          "internalType": "string",
          "name": "fen",
          "type": "string"
        },
        {
          "indexed": false,
          "internalType": "bytes32",
          "name": "solutionHash",
          "type": "bytes32"
        },
        {
          "indexed": false,
          "internalType": "uint256",
          "name": "board",
          "type": "uint256"
        },
        {
          "indexed": false,
          "internalType": "address",
          "name": "creator",
          "type": "address"
        },
        {
          "indexed": false,
          "internalType": "string",
          "name": "description",
          "type": "string"
        }
      ],
      "name": "PuzzleAdded",
      "type": "event"
    },
    {
      "anonymous": false,
      "inputs": [
        {
          "indexed": false,
          "internalType": "uint256",
          "name": "internalTokenId",
          "type": "uint256"
        },
        {
          "indexed": false,
          "internalType": "address",
          "name": "user",
          "type": "address"
        },
        {
          "indexed": false,
          "internalType": "bytes",
          "name": "solutionSubmission",
          "type": "bytes"
        }
      ],
      "name": "PuzzleAttempted",
      "type": "event"
    },
    {
      "anonymous": false,
      "inputs": [
        {
          "indexed": false,
          "internalType": "uint256",
          "name": "internalTokenId",
          "type": "uint256"
        },
        {
          "indexed": false,
          "internalType": "uint256",
          "name": "newPuzzleRating",
          "type": "uint256"
        }
      ],
      "name": "PuzzleRatingChanged",
      "type": "event"
    },
    {
      "anonymous": false,
      "inputs": [
        {
          "indexed": false,
          "internalType": "uint256",
          "name": "internalTokenId",
          "type": "uint256"
        },
        {
          "indexed": false,
          "internalType": "address",
          "name": "user",
          "type": "address"
        }
      ],
      "name": "PuzzleSolved",
      "type": "event"
    },
    {
      "anonymous": false,
      "inputs": [
        {
          "indexed": false,
          "internalType": "uint256",
          "name": "internalTokenId",
          "type": "uint256"
        },
        {
          "indexed": false,
          "internalType": "address",
          "name": "solver",
          "type": "address"
        }
      ],
      "name": "TokenMinted",
      "type": "event"
    },
    {
      "anonymous": false,
      "inputs": [
        {
          "indexed": true,
          "internalType": "address",
          "name": "operator",
          "type": "address"
        },
        {
          "indexed": true,
          "internalType": "address",
          "name": "from",
          "type": "address"
        },
        {
          "indexed": true,
          "internalType": "address",
          "name": "to",
          "type": "address"
        },
        {
          "indexed": false,
          "internalType": "uint256[]",
          "name": "ids",
          "type": "uint256[]"
        },
        {
          "indexed": false,
          "internalType": "uint256[]",
          "name": "values",
          "type": "uint256[]"
        }
      ],
      "name": "TransferBatch",
      "type": "event"
    },
    {
      "anonymous": false,
      "inputs": [
        {
          "indexed": true,
          "internalType": "address",
          "name": "operator",
          "type": "address"
        },
        {
          "indexed": true,
          "internalType": "address",
          "name": "from",
          "type": "address"
        },
        {
          "indexed": true,
          "internalType": "address",
          "name": "to",
          "type": "address"
        },
        {
          "indexed": false,
          "internalType": "uint256",
          "name": "id",
          "type": "uint256"
        },
        {
          "indexed": false,
          "internalType": "uint256",
          "name": "value",
          "type": "uint256"
        }
      ],
      "name": "TransferSingle",
      "type": "event"
    },
    {
      "anonymous": false,
      "inputs": [
        {
          "indexed": false,
          "internalType": "string",
          "name": "value",
          "type": "string"
        },
        {
          "indexed": true,
          "internalType": "uint256",
          "name": "id",
          "type": "uint256"
        }
      ],
      "name": "URI",
      "type": "event"
    },
    {
      "anonymous": false,
      "inputs": [
        {
          "indexed": false,
          "internalType": "address",
          "name": "user",
          "type": "address"
        },
        {
          "indexed": false,
          "internalType": "uint256",
          "name": "newUserRating",
          "type": "uint256"
        }
      ],
      "name": "UserRatingChanged",
      "type": "event"
    },
    {
      "anonymous": false,
      "inputs": [
        {
          "indexed": false,
          "internalType": "uint256",
          "name": "amount",
          "type": "uint256"
        }
      ],
      "name": "WithdrawAll",
      "type": "event"
    },
    {
      "inputs": [
        {
          "internalType": "string",
          "name": "fen",
          "type": "string"
        },
        {
          "internalType": "bytes32",
          "name": "solution",
          "type": "bytes32"
        },
        {
          "internalType": "uint256",
          "name": "metadata",
          "type": "uint256"
        },
        {
          "internalType": "string",
          "name": "description",
          "type": "string"
        },
        {
          "internalType": "bytes32[]",
          "name": "proof",
          "type": "bytes32[]"
        }
      ],
      "name": "addPuzzle",
      "outputs": [],
      "stateMutability": "nonpayable",
      "type": "function"
    },
    {
      "inputs": [],
      "name": "artAddr",
      "outputs": [
        {
          "internalType": "address",
          "name": "",
          "type": "address"
        }
      ],
      "stateMutability": "view",
      "type": "function"
    },
    {
      "inputs": [
        {
          "internalType": "address",
          "name": "account",
          "type": "address"
        },
        {
          "internalType": "uint256",
          "name": "id",
          "type": "uint256"
        }
      ],
      "name": "balanceOf",
      "outputs": [
        {
          "internalType": "uint256",
          "name": "",
          "type": "uint256"
        }
      ],
      "stateMutability": "view",
      "type": "function"
    },
    {
      "inputs": [
        {
          "internalType": "address[]",
          "name": "accounts",
          "type": "address[]"
        },
        {
          "internalType": "uint256[]",
          "name": "ids",
          "type": "uint256[]"
        }
      ],
      "name": "balanceOfBatch",
      "outputs": [
        {
          "internalType": "uint256[]",
          "name": "",
          "type": "uint256[]"
        }
      ],
      "stateMutability": "view",
      "type": "function"
    },
    {
      "inputs": [],
      "name": "internalTokenCounter",
      "outputs": [
        {
          "internalType": "uint256",
          "name": "",
          "type": "uint256"
        }
      ],
      "stateMutability": "view",
      "type": "function"
    },
    {
      "inputs": [
        {
          "internalType": "address",
          "name": "account",
          "type": "address"
        },
        {
          "internalType": "address",
          "name": "operator",
          "type": "address"
        }
      ],
      "name": "isApprovedForAll",
      "outputs": [
        {
          "internalType": "bool",
          "name": "",
          "type": "bool"
        }
      ],
      "stateMutability": "view",
      "type": "function"
    },
    {
      "inputs": [
        {
          "internalType": "address",
          "name": "user",
          "type": "address"
        },
        {
          "internalType": "bytes32[]",
          "name": "proof",
          "type": "bytes32[]"
        }
      ],
      "name": "isWhitelisted",
      "outputs": [
        {
          "internalType": "bool",
          "name": "",
          "type": "bool"
        }
      ],
      "stateMutability": "view",
      "type": "function"
    },
    {
      "inputs": [],
      "name": "kFactor",
      "outputs": [
        {
          "internalType": "uint256",
          "name": "",
          "type": "uint256"
        }
      ],
      "stateMutability": "view",
      "type": "function"
    },
    {
      "inputs": [],
      "name": "merkleRoot",
      "outputs": [
        {
          "internalType": "bytes32",
          "name": "",
          "type": "bytes32"
        }
      ],
      "stateMutability": "view",
      "type": "function"
    },
    {
      "inputs": [
        {
          "internalType": "uint256",
          "name": "internalTokenId",
          "type": "uint256"
        },
        {
          "internalType": "uint256",
          "name": "count",
          "type": "uint256"
        }
      ],
      "name": "mint",
      "outputs": [],
      "stateMutability": "payable",
      "type": "function"
    },
    {
      "inputs": [],
      "name": "owner",
      "outputs": [
        {
          "internalType": "address",
          "name": "",
          "type": "address"
        }
      ],
      "stateMutability": "view",
      "type": "function"
    },
    {
      "inputs": [],
      "name": "platformFee",
      "outputs": [
        {
          "internalType": "uint256",
          "name": "",
          "type": "uint256"
        }
      ],
      "stateMutability": "view",
      "type": "function"
    },
    {
      "inputs": [
        {
          "internalType": "uint256",
          "name": "",
          "type": "uint256"
        }
      ],
      "name": "puzzlesById",
      "outputs": [
        {
          "internalType": "string",
          "name": "fen",
          "type": "string"
        },
        {
          "internalType": "bytes32",
          "name": "solution",
          "type": "bytes32"
        },
        {
          "internalType": "uint256",
          "name": "rating",
          "type": "uint256"
        },
        {
          "internalType": "uint256",
          "name": "metadata",
          "type": "uint256"
        },
        {
          "internalType": "address",
          "name": "creator",
          "type": "address"
        },
        {
          "internalType": "string",
          "name": "description",
          "type": "string"
        }
      ],
      "stateMutability": "view",
      "type": "function"
    },
    {
      "inputs": [],
      "name": "renounceOwnership",
      "outputs": [],
      "stateMutability": "nonpayable",
      "type": "function"
    },
    {
      "inputs": [
        {
          "internalType": "address",
          "name": "from",
          "type": "address"
        },
        {
          "internalType": "address",
          "name": "to",
          "type": "address"
        },
        {
          "internalType": "uint256[]",
          "name": "ids",
          "type": "uint256[]"
        },
        {
          "internalType": "uint256[]",
          "name": "values",
          "type": "uint256[]"
        },
        {
          "internalType": "bytes",
          "name": "data",
          "type": "bytes"
        }
      ],
      "name": "safeBatchTransferFrom",
      "outputs": [],
      "stateMutability": "nonpayable",
      "type": "function"
    },
    {
      "inputs": [
        {
          "internalType": "address",
          "name": "from",
          "type": "address"
        },
        {
          "internalType": "address",
          "name": "to",
          "type": "address"
        },
        {
          "internalType": "uint256",
          "name": "id",
          "type": "uint256"
        },
        {
          "internalType": "uint256",
          "name": "value",
          "type": "uint256"
        },
        {
          "internalType": "bytes",
          "name": "data",
          "type": "bytes"
        }
      ],
      "name": "safeTransferFrom",
      "outputs": [],
      "stateMutability": "nonpayable",
      "type": "function"
    },
    {
      "inputs": [
        {
          "internalType": "address",
          "name": "operator",
          "type": "address"
        },
        {
          "internalType": "bool",
          "name": "approved",
          "type": "bool"
        }
      ],
      "name": "setApprovalForAll",
      "outputs": [],
      "stateMutability": "nonpayable",
      "type": "function"
    },
    {
      "inputs": [
        {
          "internalType": "address",
          "name": "_artAddr",
          "type": "address"
        }
      ],
      "name": "setArt",
      "outputs": [],
      "stateMutability": "nonpayable",
      "type": "function"
    },
    {
      "inputs": [
        {
          "internalType": "uint256",
          "name": "_kFactor",
          "type": "uint256"
        }
      ],
      "name": "setKFactor",
      "outputs": [],
      "stateMutability": "nonpayable",
      "type": "function"
    },
    {
      "inputs": [
        {
          "internalType": "bytes32",
          "name": "_merkleRoot",
          "type": "bytes32"
        }
      ],
      "name": "setMerkleRoot",
      "outputs": [],
      "stateMutability": "nonpayable",
      "type": "function"
    },
    {
      "inputs": [
        {
          "internalType": "uint256",
          "name": "_fee",
          "type": "uint256"
        }
      ],
      "name": "setPlatformFee",
      "outputs": [],
      "stateMutability": "nonpayable",
      "type": "function"
    },
    {
      "inputs": [
        {
          "internalType": "uint256",
          "name": "_price",
          "type": "uint256"
        }
      ],
      "name": "setTokenMintPrice",
      "outputs": [],
      "stateMutability": "nonpayable",
      "type": "function"
    },
    {
      "inputs": [
        {
          "internalType": "uint256",
          "name": "internalTokenId",
          "type": "uint256"
        },
        {
          "internalType": "bytes",
          "name": "solution",
          "type": "bytes"
        }
      ],
      "name": "submitSolution",
      "outputs": [
        {
          "internalType": "bool",
          "name": "",
          "type": "bool"
        }
      ],
      "stateMutability": "nonpayable",
      "type": "function"
    },
    {
      "inputs": [
        {
          "internalType": "bytes4",
          "name": "interfaceId",
          "type": "bytes4"
        }
      ],
      "name": "supportsInterface",
      "outputs": [
        {
          "internalType": "bool",
          "name": "",
          "type": "bool"
        }
      ],
      "stateMutability": "view",
      "type": "function"
    },
    {
      "inputs": [],
      "name": "tokenMintPrice",
      "outputs": [
        {
          "internalType": "uint256",
          "name": "",
          "type": "uint256"
        }
      ],
      "stateMutability": "view",
      "type": "function"
    },
    {
      "inputs": [
        {
          "internalType": "address",
          "name": "newOwner",
          "type": "address"
        }
      ],
      "name": "transferOwnership",
      "outputs": [],
      "stateMutability": "nonpayable",
      "type": "function"
    },
    {
      "inputs": [
        {
          "internalType": "uint256",
          "name": "internalTokenId",
          "type": "uint256"
        }
      ],
      "name": "uri",
      "outputs": [
        {
          "internalType": "string",
          "name": "",
          "type": "string"
        }
      ],
      "stateMutability": "view",
      "type": "function"
    },
    {
      "inputs": [
        {
          "internalType": "uint256",
          "name": "internalTokenId",
          "type": "uint256"
        },
        {
          "internalType": "address",
          "name": "user",
          "type": "address"
        }
      ],
      "name": "userHasAttemptedPuzzle",
      "outputs": [
        {
          "internalType": "bool",
          "name": "",
          "type": "bool"
        }
      ],
      "stateMutability": "view",
      "type": "function"
    },
    {
      "inputs": [
        {
          "internalType": "uint256",
          "name": "internalTokenId",
          "type": "uint256"
        },
        {
          "internalType": "address",
          "name": "user",
          "type": "address"
        }
      ],
      "name": "userHasSolvedPuzzle",
      "outputs": [
        {
          "internalType": "bool",
          "name": "",
          "type": "bool"
        }
      ],
      "stateMutability": "view",
      "type": "function"
    },
    {
      "inputs": [
        {
          "internalType": "address",
          "name": "",
          "type": "address"
        }
      ],
      "name": "userRatings",
      "outputs": [
        {
          "internalType": "uint256",
          "name": "",
          "type": "uint256"
        }
      ],
      "stateMutability": "view",
      "type": "function"
    },
    {
      "inputs": [],
      "name": "withdrawAll",
      "outputs": [],
      "stateMutability": "nonpayable",
      "type": "function"
    }
  ],
  "transactionHash": "0xfd8750b860c568f6c8aaef1e39b0baefb1b67125d1c2071ad4737e40799a1e09",
  "args": [
    "0x4489C7836eBE6aBf8a95Ad87877E8123e5F20A25",
    "0x74f953DF15D6947C53163C2962ce1C484f1539dc"
  ],
  "numDeployments": 1,
  "solcInputHash": "1201c6383207fac32ae8cfe77b123dac",
  "bytecode": "0x608034620001c0576001600160401b03906200266590601f38839003908101601f191682019084821183831017620001aa5780839160409586948552833981010312620001c0576200005f60206200005783620001c5565b9201620001c5565b8251936020850190811185821017620001aa57835260008094526002546001908181811c911680156200019f575b60208210146200018b57601f811162000141575b505060028490556001600160a01b039182169384156200012a57600380546001600160a01b03198082168817909255945195909484167f8be0079c531659141344cd1fd0a4f28419497f9722a3daafe3b4186f6b6457e08380a366071afd498d0000600555603260065560286007556008551690600954161760095561248a9081620001db8239f35b602490845190631e4fbdf760e01b82526004820152fd5b60028652601f0160051c7f405787fa12a823e0f2b7631cc41b3ba8828b3321ca811111fa75cd3aa3bb5ace908101905b818110620001805750620000a1565b868155820162000171565b634e487b7160e01b86526022600452602486fd5b90607f16906200008d565b634e487b7160e01b600052604160045260246000fd5b600080fd5b51906001600160a01b0382168203620001c05756fe6080604052600436101561001257600080fd5b60003560e01c8062fdd58e1461020657806301ffc9a714610201578063031fc540146101fc5780630e89341c146101f757806312e8e2c3146101f25780631b2ef1ca146101ed57806326232a2e146101e85780632eb2c2d6146101e35780632eb4a7ab146101de578063342e4cbf146101d95780633924727d146101d457806349aeaf16146101cf5780634e1273f4146101ca5780635a23dd99146101c557806363a86201146101c0578063715018a6146101bb5780637cb64759146101b6578063853828b6146101b15780638a062ab7146101ac5780638da5cb5b146101a7578063900f58fc146101a2578063a22cb4651461019d578063a2dfe7b514610198578063c1fa647814610193578063e6b1a3ae1461018e578063e84dee6b14610189578063e985e9c514610184578063f242432a1461017f578063f246d4a91461017a578063f2fde38b146101755763f844bb2a1461017057600080fd5b6112a8565b61121a565b6111f1565b6110d4565b611083565b611046565b611003565b610e77565b610e29565b610d6d565b610d33565b610d0a565b610ce9565b610c81565b610c60565b610bff565b610baa565b610b5c565b610a73565b610a10565b6109f2565b6109d4565b6109b6565b61088e565b610799565b610606565b6105e5565b610546565b61049c565b6102af565b610250565b600435906001600160a01b038216820361022157565b600080fd5b602435906001600160a01b038216820361022157565b35906001600160a01b038216820361022157565b3461022157604036600319011261022157602061029461026e61020b565b6024356000526000835260406000209060018060a01b0316600052602052604060002090565b54604051908152f35b6001600160e01b031981160361022157565b346102215760203660031901126102215760206004356102ce8161029d565b63ffffffff60e01b16636cdb3d1360e11b811490811561030c575b81156102fb575b506040519015158152f35b6301ffc9a760e01b149050386102f0565b6303a24d0760e21b811491506102e9565b90600182811c9216801561034d575b602083101461033757565b634e487b7160e01b600052602260045260246000fd5b91607f169161032c565b634e487b7160e01b600052604160045260246000fd5b604081019081106001600160401b0382111761038857604052565b610357565b90601f801991011681019081106001600160401b0382111761038857604052565b90604051918260008254926103c28461031d565b90818452600194858116908160001461043157506001146103ee575b50506103ec9250038361038d565b565b9093915060005260209081600020936000915b8183106104195750506103ec935082010138806103de565b85548884018501529485019487945091830191610401565b9150506103ec94506020925060ff191682840152151560051b82010138806103de565b60005b8381106104675750506000910152565b8181015183820152602001610457565b9060209161049081518092818552858086019101610454565b601f01601f1916010190565b3461022157602036600319011261022157600435600052600a60205261050c604060002061052e6104cc826103ae565b9160018101549060048101549060058101546104f7600760018060a01b0360068501541693016103ae565b9260405197889760c0895260c0890190610477565b94602088015260408701526060860152608085015283820360a0850152610477565b0390f35b906020610543928181520190610477565b90565b3461022157602036600319011261022157600954600480356000818152600a6020526040808220600501549051631d1dfbe960e21b81529384019290925260248301919091529091829060449082906001600160a01b03165afa80156105e05761052e916000916105bf575b5060405191829182610532565b6105da913d8091833e6105d2818361038d565b8101906119e9565b386105b2565b61170d565b34610221576020366003190112610221576105fe6112f1565b600435600755005b604036600319011261022157600435602435906005546106268382611d46565b34036107675750600182106107475761064981600052600a602052604060002090565b33600090815260028201602052604090209092906106719061066d905b5460ff1690565b1590565b61072a5760006106f26106e66106e6600684977f3a5398bda6f1f57d6c96834fa9bf02b5517bdc847d14312015a917ba421c31c96106d587996106bf899a6106b7611719565b908333611d94565b6040805191825233602083015290918291820190565b0390a101546001600160a01b031690565b6001600160a01b031690565b610710610709610703600754611d59565b34611d46565b6064900490565b90828215610721575bf1156105e057005b506108fc610719565b60405163f88c066b60e01b815260048101839052602490fd5b0390fd5b604051631d35f4cf60e31b81526000600482018190526024820152604490fd5b6107748361074392611d46565b604051631d35f4cf60e31b815234600482015260248101919091529081906044820190565b34610221576000366003190112610221576020600754604051908152f35b6001600160401b0381116103885760051b60200190565b81601f82011215610221578035916107e5836107b7565b926107f3604051948561038d565b808452602092838086019260051b820101928311610221578301905b82821061081d575050505090565b8135815290830190830161080f565b6001600160401b03811161038857601f01601f191660200190565b81601f820112156102215780359061085e8261082c565b9261086c604051948561038d565b8284526020838301011161022157816000926020809301838601378301015290565b346102215760a0366003190112610221576108a761020b565b6108af610226565b90604435916001600160401b0390818411610221576108d3600494369086016107ce565b90606435838111610221576108eb90369087016107ce565b92608435908111610221576109039036908701610847565b936001600160a01b03808216903382141580610992575b6109655783161561094d5715610936576109349550611436565b005b604051626a0d4560e21b8152600081880152602490fd5b604051632bfa23e760e11b8152600081890152602490fd5b6040805163711bec9160e11b815233818b019081526001600160a01b038616602082015290918291010390fd5b50600082815260016020908152604080832033845290915290205460ff161561091a565b34610221576000366003190112610221576020600854604051908152f35b34610221576000366003190112610221576020600654604051908152f35b34610221576000366003190112610221576020600454604051908152f35b34610221576000366003190112610221576020600554604051908152f35b90815180825260208080930193019160005b828110610a4e575050505090565b835185529381019392810192600101610a40565b906020610543928181520190610a2e565b34610221576040366003190112610221576004356001600160401b038082116102215736602383011215610221578160040135610aaf816107b7565b92610abd604051948561038d565b81845260209160248386019160051b8301019136831161022157602401905b828210610b1557856024358681116102215761052e91610b03610b099236906004016107ce565b90611371565b60405191829182610a62565b838091610b218461023c565b815201910190610adc565b9181601f84011215610221578235916001600160401b038311610221576020808501948460051b01011161022157565b3461022157604036600319011261022157610b7561020b565b6024356001600160401b03811161022157602091610b9a610ba0923690600401610b2c565b91611eda565b6040519015158152f35b3461022157604036600319011261022157602060ff610bf3610bca610226565b600435600052600a845260026040600020019060018060a01b0316600052602052604060002090565b54166040519015158152f35b3461022157600080600319360112610c5d57610c196112f1565b600380546001600160a01b0319811690915581906001600160a01b03167f8be0079c531659141344cd1fd0a4f28419497f9722a3daafe3b4186f6b6457e08280a380f35b80fd5b3461022157602036600319011261022157610c796112f1565b600435600855005b3461022157600080600319360112610c5d5747818080808460018060a01b0360035416828215610ce0575bf1156105e05760207f3d5a341dc6a12221fcf31279cef3771f8fad757b2d9261f97605ccc17c25742491604051908152a180f35b506108fc610cac565b3461022157602036600319011261022157610d026112f1565b600435600655005b34610221576000366003190112610221576003546040516001600160a01b039091168152602090f35b34610221576020366003190112610221576001600160a01b03610d5461020b565b16600052600b6020526020604060002054604051908152f35b3461022157604036600319011261022157610d8661020b565b6024359081151590818303610221576001600160a01b038116928315610e1157610dd2610de39233600052600160205260406000209060018060a01b0316600052602052604060002090565b9060ff801983541691151516179055565b6040519081527f17307eab39ab6107e8899845ad3d59bd9653f200f220920489ca2b5937696c3160203392a3005b60405162ced3e160e81b815260006004820152602490fd5b3461022157602036600319011261022157610e426112f1565b600435600555005b9181601f84011215610221578235916001600160401b038311610221576020838186019501011161022157565b346102215760a0366003190112610221576001600160401b036004803582811161022157610ea89036908301610e4a565b91602435936044359460643582811161022157610ec89036908501610e4a565b9390926084359081116102215761066d610ee8610eef9236908501610b2c565b9033611eda565b610fe5578515610fc8578615610fa45786610f9f949392610f91610f8c847f3b225aacde4bd45cee181b834a54e02b46c031b9505b7f8a6179ca01cc2244a19b60058b610f548e995499610f4d8b600052600a602052604060002090565b9283611acd565b600181018790556006810180546001600160a01b031916331790556103e881850155610f848b8b60078401611acd565b015554611654565b600455565b604051978897339489611b94565b0390a1005b805460408051636316501d60e11b8152928301918252602082018990528291010390fd5b8490610743876040519384936368cd81e760e01b85528401611a68565b6040516310f8e8d760e31b8152339181019182529081906020010390fd5b346102215760203660031901126102215761101c61020b565b6110246112f1565b600980546001600160a01b0319166001600160a01b0392909216919091179055005b34610221576040366003190112610221576024356001600160401b03811161022157610ba061107b6020923690600401610847565b600435611c06565b3461022157604036600319011261022157602060ff610bf36110a361020b565b6110ab610226565b6001600160a01b0391821660009081526001865260408082209290931681526020919091522090565b346102215760a0366003190112610221576110ed61020b565b6110f5610226565b6084356001600160401b03811161022157611114903690600401610847565b906001600160a01b038381169033821415806111cd575b6111a65782161561118d5715611175576109349261116d6064356044359160405192600184526020840152604083019160018352606084015260808301604052565b929091611436565b604051626a0d4560e21b815260006004820152602490fd5b604051632bfa23e760e11b815260006004820152602490fd5b60405163711bec9160e11b81523360048201526001600160a01b0386166024820152604490fd5b50600082815260016020908152604080832033845290915290205460ff161561112b565b34610221576000366003190112610221576009546040516001600160a01b039091168152602090f35b346102215760203660031901126102215761123361020b565b61123b6112f1565b6001600160a01b0390811690811561128f57600354826bffffffffffffffffffffffff60a01b821617600355167f8be0079c531659141344cd1fd0a4f28419497f9722a3daafe3b4186f6b6457e0600080a3005b604051631e4fbdf760e01b815260006004820152602490fd5b3461022157604036600319011261022157602060ff610bf36112c8610226565b600435600052600a845260036040600020019060018060a01b0316600052602052604060002090565b6003546001600160a01b0316330361130557565b60405163118cdaa760e01b8152336004820152602490fd5b634e487b7160e01b600052601160045260246000fd5b60001981146113425760010190565b61131d565b805182101561135b5760209160051b010190565b634e487b7160e01b600052603260045260246000fd5b9190918051835180820361141457505080519061138d826107b7565b9161139b604051938461038d565b8083526113aa601f19916107b7565b0190602091368385013760005b815181101561140c57600581901b8281018401519087018401516000908152602081815260408083206001600160a01b039094168352929052205461140791906114018287611347565b52611333565b6113b7565b509193505050565b604051635b05999160e01b815260048101919091526024810191909152604490fd5b94919091815184519081810361141457505060005b825181101561155e57600581901b83810160209081015191870101516001600160a01b03929186908a85166114d7575b61148e948216611493575b505050611333565b61144b565b6114cd916114ae6114c5926000526000602052604060002090565b9060018060a01b0316600052602052604060002090565b918254611662565b9055388581611486565b91929390506114f48a6114ae846000526000602052604060002090565b54838110611527579187918461148e9695940361151f8d6114ae856000526000602052604060002090565b55945061147b565b6040516303dee4c560e01b81526001600160a01b038c16600482015260248101919091526044810184905260648101839052608490fd5b509491939290936001855114600014611609576020858101518382015160408051928352928201526001600160a01b03838116929086169133917fc3d58168c5ae7397731d063d5bbf3d657854427343f4c083240f7aacaa2d0f6291a45b6001600160a01b0381166115d2575b5050505050565b84516001036115f8576020806115ee9601519201519233611866565b38808080806115cb565b611604949192336119b2565b6115ee565b6040516001600160a01b03828116919085169033907f4a39dc06d4c0dbc64b70af90fd698a233a518aa5d07e595d983b8c0526c8f7fb908061164c888c8361166f565b0390a46115bc565b906001820180921161134257565b9190820180921161134257565b909161168661054393604084526040840190610a2e565b916020818403910152610a2e565b9081602091031261022157516105438161029d565b909260a0926105439594600180861b0316835260006020840152604083015260608201528160808201520190610477565b919261054395949160a094600180871b038092168552166020840152604083015260608201528160808201520190610477565b6040513d6000823e3d90fd5b60405190602082018281106001600160401b038211176103885760405260008252565b3d15611767573d9061174d8261082c565b9161175b604051938461038d565b82523d6000602084013e565b606090565b9293919093843b61177e575050505050565b6020916117a1604051948593849363f23a6e6160e01b98898652600486016116a9565b038160006001600160a01b0388165af160009181611836575b506117f957826117c861173c565b80519190826117f257604051632bfa23e760e11b81526001600160a01b0383166004820152602490fd5b9050602001fd5b6001600160e01b03191603611813575038808080806115cb565b604051632bfa23e760e11b81526001600160a01b03919091166004820152602490fd5b61185891925060203d811161185f575b611850818361038d565b810190611694565b90386117ba565b503d611846565b939290949194853b61187b575b505050505050565b61189e602093604051958694859463f23a6e6160e01b998a8752600487016116da565b038160006001600160a01b0388165af1600091816118e0575b506118c557826117c861173c565b6001600160e01b031916036118135750388080808080611873565b6118f991925060203d811161185f57611850818361038d565b90386118b7565b9261192f610543959361193d9360018060a01b031686526000602087015260a0604087015260a0860190610a2e565b908482036060860152610a2e565b916080818403910152610477565b9390610543959361192f9161193d9460018060a01b03809216885216602087015260a0604087015260a0860190610a2e565b9293919093843b61198f575050505050565b6020916117a1604051948593849363bc197c8160e01b9889865260048601611900565b939290949194853b6119c657505050505050565b61189e602093604051958694859463bc197c8160e01b998a87526004870161194b565b602081830312610221578051906001600160401b038211610221570181601f82011215610221578051611a1b8161082c565b92611a29604051948561038d565b81845260208284010111610221576105439160208085019101610454565b908060209392818452848401376000828201840152601f01601f1916010190565b916020610543938181520191611a47565b90601f8111611a8757505050565b600091825260208220906020601f850160051c83019410611ac3575b601f0160051c01915b828110611ab857505050565b818155600101611aac565b9092508290611aa3565b9092916001600160401b03811161038857611af281611aec845461031d565b84611a79565b6000601f8211600114611b2c5781929394600092611b21575b50508160011b916000199060031b1c1916179055565b013590503880611b0b565b601f19821694611b4184600052602060002090565b91805b878110611b7c575083600195969710611b62575b505050811b019055565b0135600019600384901b60f8161c19169055388080611b58565b90926020600181928686013581550194019101611b44565b93969491610543989693611bb592865260c0602087015260c0860191611a47565b604084019690965260608301526001600160a01b0316608082015280840360a090910152611a47565b9081526001600160a01b03909116602082015260606040820181905261054392910190610477565b90600454821015611d2e57611c2582600052600a602052604060002090565b3360009081526003820160208190526040909120919291611c4590610666565b611d155733600090815260209190915260409020611c6b905b805460ff19166001179055565b7f712c1b1ad89e8e16ccdc5cec4c1b22713e1d68a25e895b87e30db54bf197f7ce60405180611c9c84338884611bde565b0390a16001820154906020815191012014600014611d06573360009081526002909101602052604090207ff7c67880b72ec988961e570ae4e849eb4fd9d5ba0ab550624ac429ef6d41880c91611cfe91611cf590611c5e565b6106bf816120f3565b0390a1600190565b50611d1090611fb4565b600090565b604051636ab2c49160e01b815260048101859052602490fd5b6040516255ac0b60e31b815260048101839052602490fd5b8181029291811591840414171561134257565b606403906064821161134257565b9190820391821161134257565b8115611d7e570490565b634e487b7160e01b600052601260045260246000fd5b6001600160a01b0381169392909190841561118d57611dd060405192600184526020840152604083019160018352606084015260808301604052565b92815184519081810361141457505060005b8251811015611e275780611e229160051b611e1b6114c5876114ae602080868b010151958c010151946000526000602052604060002090565b9055611333565b611de2565b509291936001825114600014611e9e5760208281015184820151604080519283529282015260009133917fc3d58168c5ae7397731d063d5bbf3d657854427343f4c083240f7aacaa2d0f629190a45b8051600103611e9457906020806103ec95930151910151913361176c565b6103ec933361197d565b60006040517f4a39dc06d4c0dbc64b70af90fd698a233a518aa5d07e595d983b8c0526c8f7fb339180611ed288888361166f565b0390a4611e76565b9192611ee5846107b7565b93604092611ef58451968761038d565b8186526020918287019060051b820191368311610221578390915b838310611fa45750505050600854938351828101916bffffffffffffffffffffffff199060601b16825260148152611f478161036d565b519020916000925b8651841015611f9a57611f628488611347565b519085600083831015611f8a5750506000528252611f84846000205b93611333565b92611f4f565b9091611f84938252855220611f7e565b9350945050501490565b8235815291810191849101611f10565b7fedf7d7629bae89d536e79c07544cf71dc20f2e5a6c44820bc95943ae5d392e8f906004611fec82600052600a602052604060002090565b018054336000908152600b6020526040902060649161201791549081156120ce575b600654916121c4565b919004901561209f57336000908152600b60205260409020612048919061203f828254611d67565b90558254611662565b81555b5460408051928352602083019190915290a1336000818152600b6020908152604091829020548251938452908301527f7c9d26a9c3f761e124a1b3f4aaf8fe9deeffa947fbdabd8b085dab884a2a04be91a1565b336000908152600b602052604090206120c791906120be828254611662565b90558254611d67565b815561204b565b336000908152600b602052604090206103e892506120ee905b6103e89055565b61200e565b7fedf7d7629bae89d536e79c07544cf71dc20f2e5a6c44820bc95943ae5d392e8f90600461212b82600052600a602052604060002090565b018054336000908152600b602052604090206064916120179154908115612156575b600654916122b0565b336000908152600b602052604090206103e89250612173906120e7565b61214d565b1561217f57565b60405162461bcd60e51b815260206004820152601b60248201527f526174696e6720646966666572656e636520746f6f206c6172676500000000006044820152606490fd5b6019918181109182156122a85703905b806121e26104668410612178565b612296575b1561228d57610320035b04600a6001808316156122865781925b811c91825b61224b575050509061271061222b61222661222661222661223596612396565b612396565b6064019102611d74565b80151590600082600014612247575091565b0391565b8060801c61022157800291818116612267575b811c9182612206565b92828102908382040361227b575b9261225e565b821561227557600080fd5b8092612201565b610320016121f1565b6122a36103208310612178565b6121e7565b9003906121d4565b60199181811091821561238e5703905b806122ce6104668410612178565b61237c575b1561237357610320035b04600a60018083161561236c5781925b811c91825b6123315750505061231c612310612226612226612226606495612396565b82016127108402611d74565b910281811091821561232c570391565b900391565b8060801c6102215780029181811661234d575b811c91826122f2565b928281029083820403612361575b92612344565b821561235b57600080fd5b80926122ed565b610320016122dd565b6123896103208310612178565b6122d3565b9003906122c0565b60b581600160881b81101561243d575b80690100000000000000000062010000921015612430575b65010000000000811015612423575b6301000000811015612416575b010260121c60019080830401811c80830401811c80830401811c80830401811c80830401811c80830401811c80830401901c8080920410900390565b60101c9160081b916123da565b60201c9160101b916123cd565b60401c9160201b916123be565b5068b500000000000000009050608082901c6123a656fea26469706673582212209770d6d544fa2e14892ad2c9cb3aef4c14f5cde78bae44026b22024c9f0bb40564736f6c63430008140033",
  "devdoc": {
    "errors": {
      "ERC1155InsufficientBalance(address,uint256,uint256,uint256)": [
        {
          "details": "Indicates an error related to the current `balance` of a `sender`. Used in transfers.",
          "params": {
            "balance": "Current balance for the interacting account.",
            "needed": "Minimum amount required to perform a transfer.",
            "sender": "Address whose tokens are being transferred.",
            "tokenId": "Identifier number of a token."
          }
        }
      ],
      "ERC1155InvalidApprover(address)": [
        {
          "details": "Indicates a failure with the `approver` of a token to be approved. Used in approvals.",
          "params": {
            "approver": "Address initiating an approval operation."
          }
        }
      ],
      "ERC1155InvalidArrayLength(uint256,uint256)": [
        {
          "details": "Indicates an array length mismatch between ids and values in a safeBatchTransferFrom operation. Used in batch transfers.",
          "params": {
            "idsLength": "Length of the array of token identifiers",
            "valuesLength": "Length of the array of token amounts"
          }
        }
      ],
      "ERC1155InvalidOperator(address)": [
        {
          "details": "Indicates a failure with the `operator` to be approved. Used in approvals.",
          "params": {
            "operator": "Address that may be allowed to operate on tokens without being their owner."
          }
        }
      ],
      "ERC1155InvalidReceiver(address)": [
        {
          "details": "Indicates a failure with the token `receiver`. Used in transfers.",
          "params": {
            "receiver": "Address to which tokens are being transferred."
          }
        }
      ],
      "ERC1155InvalidSender(address)": [
        {
          "details": "Indicates a failure with the token `sender`. Used in transfers.",
          "params": {
            "sender": "Address whose tokens are being transferred."
          }
        }
      ],
      "ERC1155MissingApprovalForAll(address,address)": [
        {
          "details": "Indicates a failure with the `operator`s approval. Used in transfers.",
          "params": {
            "operator": "Address that may be allowed to operate on tokens without being their owner.",
            "owner": "Address of the current owner of a token."
          }
        }
      ],
      "OwnableInvalidOwner(address)": [
        {
          "details": "The owner is not a valid owner account. (eg. `address(0)`)"
        }
      ],
      "OwnableUnauthorizedAccount(address)": [
        {
          "details": "The caller account is not authorized to perform an operation."
        }
      ]
    },
    "events": {
      "ApprovalForAll(address,address,bool)": {
        "details": "Emitted when `account` grants or revokes permission to `operator` to transfer their tokens, according to `approved`."
      },
      "TransferBatch(address,address,address,uint256[],uint256[])": {
        "details": "Equivalent to multiple {TransferSingle} events, where `operator`, `from` and `to` are the same for all transfers."
      },
      "TransferSingle(address,address,address,uint256,uint256)": {
        "details": "Emitted when `value` amount of tokens of type `id` are transferred from `from` to `to` by `operator`."
      },
      "URI(string,uint256)": {
        "details": "Emitted when the URI for token type `id` changes to `value`, if it is a non-programmatic URI. If an {URI} event was emitted for `id`, the standard https://eips.ethereum.org/EIPS/eip-1155#metadata-extensions[guarantees] that `value` will equal the value returned by {IERC1155MetadataURI-uri}."
      }
    },
    "kind": "dev",
    "methods": {
      "balanceOf(address,uint256)": {
        "details": "See {IERC1155-balanceOf}."
      },
      "balanceOfBatch(address[],uint256[])": {
        "details": "See {IERC1155-balanceOfBatch}. Requirements: - `accounts` and `ids` must have the same length."
      },
      "isApprovedForAll(address,address)": {
        "details": "See {IERC1155-isApprovedForAll}."
      },
      "owner()": {
        "details": "Returns the address of the current owner."
      },
      "renounceOwnership()": {
        "details": "Leaves the contract without owner. It will not be possible to call `onlyOwner` functions. Can only be called by the current owner. NOTE: Renouncing ownership will leave the contract without an owner, thereby disabling any functionality that is only available to the owner."
      },
      "safeBatchTransferFrom(address,address,uint256[],uint256[],bytes)": {
        "details": "See {IERC1155-safeBatchTransferFrom}."
      },
      "safeTransferFrom(address,address,uint256,uint256,bytes)": {
        "details": "See {IERC1155-safeTransferFrom}."
      },
      "setApprovalForAll(address,bool)": {
        "details": "See {IERC1155-setApprovalForAll}."
      },
      "supportsInterface(bytes4)": {
        "details": "See {IERC165-supportsInterface}."
      },
      "transferOwnership(address)": {
        "details": "Transfers ownership of the contract to a new account (`newOwner`). Can only be called by the current owner."
      }
    },
    "version": 1
  },
  "userdoc": {
    "kind": "user",
    "methods": {},
    "version": 1
  },
  "storageLayout": {
    "storage": [
      {
        "astId": 326,
        "contract": "contracts/DChess.sol:DChess",
        "label": "_balances",
        "offset": 0,
        "slot": "0",
        "type": "t_mapping(t_uint256,t_mapping(t_address,t_uint256))"
      },
      {
        "astId": 332,
        "contract": "contracts/DChess.sol:DChess",
        "label": "_operatorApprovals",
        "offset": 0,
        "slot": "1",
        "type": "t_mapping(t_address,t_mapping(t_address,t_bool))"
      },
      {
        "astId": 334,
        "contract": "contracts/DChess.sol:DChess",
        "label": "_uri",
        "offset": 0,
        "slot": "2",
        "type": "t_string_storage"
      },
      {
        "astId": 8,
        "contract": "contracts/DChess.sol:DChess",
        "label": "_owner",
        "offset": 0,
        "slot": "3",
        "type": "t_address"
      },
      {
        "astId": 5028,
        "contract": "contracts/DChess.sol:DChess",
        "label": "internalTokenCounter",
        "offset": 0,
        "slot": "4",
        "type": "t_uint256"
      },
      {
        "astId": 5030,
        "contract": "contracts/DChess.sol:DChess",
        "label": "tokenMintPrice",
        "offset": 0,
        "slot": "5",
        "type": "t_uint256"
      },
      {
        "astId": 5032,
        "contract": "contracts/DChess.sol:DChess",
        "label": "kFactor",
        "offset": 0,
        "slot": "6",
        "type": "t_uint256"
      },
      {
        "astId": 5034,
        "contract": "contracts/DChess.sol:DChess",
        "label": "platformFee",
        "offset": 0,
        "slot": "7",
        "type": "t_uint256"
      },
      {
        "astId": 5036,
        "contract": "contracts/DChess.sol:DChess",
        "label": "merkleRoot",
        "offset": 0,
        "slot": "8",
        "type": "t_bytes32"
      },
      {
        "astId": 5038,
        "contract": "contracts/DChess.sol:DChess",
        "label": "artAddr",
        "offset": 0,
        "slot": "9",
        "type": "t_address"
      },
      {
        "astId": 5064,
        "contract": "contracts/DChess.sol:DChess",
        "label": "puzzlesById",
        "offset": 0,
        "slot": "10",
        "type": "t_mapping(t_uint256,t_struct(Puzzle)5059_storage)"
      },
      {
        "astId": 5068,
        "contract": "contracts/DChess.sol:DChess",
        "label": "userRatings",
        "offset": 0,
        "slot": "11",
        "type": "t_mapping(t_address,t_uint256)"
      }
    ],
    "types": {
      "t_address": {
        "encoding": "inplace",
        "label": "address",
        "numberOfBytes": "20"
      },
      "t_bool": {
        "encoding": "inplace",
        "label": "bool",
        "numberOfBytes": "1"
      },
      "t_bytes32": {
        "encoding": "inplace",
        "label": "bytes32",
        "numberOfBytes": "32"
      },
      "t_mapping(t_address,t_bool)": {
        "encoding": "mapping",
        "key": "t_address",
        "label": "mapping(address => bool)",
        "numberOfBytes": "32",
        "value": "t_bool"
      },
      "t_mapping(t_address,t_mapping(t_address,t_bool))": {
        "encoding": "mapping",
        "key": "t_address",
        "label": "mapping(address => mapping(address => bool))",
        "numberOfBytes": "32",
        "value": "t_mapping(t_address,t_bool)"
      },
      "t_mapping(t_address,t_uint256)": {
        "encoding": "mapping",
        "key": "t_address",
        "label": "mapping(address => uint256)",
        "numberOfBytes": "32",
        "value": "t_uint256"
      },
      "t_mapping(t_uint256,t_mapping(t_address,t_uint256))": {
        "encoding": "mapping",
        "key": "t_uint256",
        "label": "mapping(uint256 => mapping(address => uint256))",
        "numberOfBytes": "32",
        "value": "t_mapping(t_address,t_uint256)"
      },
      "t_mapping(t_uint256,t_struct(Puzzle)5059_storage)": {
        "encoding": "mapping",
        "key": "t_uint256",
        "label": "mapping(uint256 => struct DChess.Puzzle)",
        "numberOfBytes": "32",
        "value": "t_struct(Puzzle)5059_storage"
      },
      "t_string_storage": {
        "encoding": "bytes",
        "label": "string",
        "numberOfBytes": "32"
      },
      "t_struct(Puzzle)5059_storage": {
        "encoding": "inplace",
        "label": "struct DChess.Puzzle",
        "members": [
          {
            "astId": 5040,
            "contract": "contracts/DChess.sol:DChess",
            "label": "fen",
            "offset": 0,
            "slot": "0",
            "type": "t_string_storage"
          },
          {
            "astId": 5042,
            "contract": "contracts/DChess.sol:DChess",
            "label": "solution",
            "offset": 0,
            "slot": "1",
            "type": "t_bytes32"
          },
          {
            "astId": 5046,
            "contract": "contracts/DChess.sol:DChess",
            "label": "userHasSolved",
            "offset": 0,
            "slot": "2",
            "type": "t_mapping(t_address,t_bool)"
          },
          {
            "astId": 5050,
            "contract": "contracts/DChess.sol:DChess",
            "label": "userHasAttempted",
            "offset": 0,
            "slot": "3",
            "type": "t_mapping(t_address,t_bool)"
          },
          {
            "astId": 5052,
            "contract": "contracts/DChess.sol:DChess",
            "label": "rating",
            "offset": 0,
            "slot": "4",
            "type": "t_uint256"
          },
          {
            "astId": 5054,
            "contract": "contracts/DChess.sol:DChess",
            "label": "metadata",
            "offset": 0,
            "slot": "5",
            "type": "t_uint256"
          },
          {
            "astId": 5056,
            "contract": "contracts/DChess.sol:DChess",
            "label": "creator",
            "offset": 0,
            "slot": "6",
            "type": "t_address"
          },
          {
            "astId": 5058,
            "contract": "contracts/DChess.sol:DChess",
            "label": "description",
            "offset": 0,
            "slot": "7",
            "type": "t_string_storage"
          }
        ],
        "numberOfBytes": "256"
      },
      "t_uint256": {
        "encoding": "inplace",
        "label": "uint256",
        "numberOfBytes": "32"
      }
    }
  }
}