{
  "address": "0xEEb1673884E43821fa253280b411768441a81167",
  "abi": [
    {
      "inputs": [
        {
          "internalType": "address",
          "name": "initialOwner",
          "type": "address"
        }
      ],
      "stateMutability": "nonpayable",
      "type": "constructor"
    },
    {
      "inputs": [
        {
          "internalType": "address",
          "name": "owner",
          "type": "address"
        }
      ],
      "name": "OwnableInvalidOwner",
      "type": "error"
    },
    {
      "inputs": [
        {
          "internalType": "address",
          "name": "account",
          "type": "address"
        }
      ],
      "name": "OwnableUnauthorizedAccount",
      "type": "error"
    },
    {
      "anonymous": false,
      "inputs": [
        {
          "indexed": true,
          "internalType": "address",
          "name": "previousOwner",
          "type": "address"
        },
        {
          "indexed": true,
          "internalType": "address",
          "name": "newOwner",
          "type": "address"
        }
      ],
      "name": "OwnershipTransferred",
      "type": "event"
    },
    {
      "inputs": [
        {
          "internalType": "uint256",
          "name": "_internalId",
          "type": "uint256"
        },
        {
          "internalType": "uint256",
          "name": "_board",
          "type": "uint256"
        }
      ],
      "name": "getMetadata",
      "outputs": [
        {
          "internalType": "string",
          "name": "",
          "type": "string"
        }
      ],
      "stateMutability": "view",
      "type": "function"
    },
    {
      "inputs": [],
      "name": "imageUrl",
      "outputs": [
        {
          "internalType": "string",
          "name": "",
          "type": "string"
        }
      ],
      "stateMutability": "view",
      "type": "function"
    },
    {
      "inputs": [],
      "name": "owner",
      "outputs": [
        {
          "internalType": "address",
          "name": "",
          "type": "address"
        }
      ],
      "stateMutability": "view",
      "type": "function"
    },
    {
      "inputs": [],
      "name": "renounceOwnership",
      "outputs": [],
      "stateMutability": "nonpayable",
      "type": "function"
    },
    {
      "inputs": [
        {
          "internalType": "string",
          "name": "_imageUrl",
          "type": "string"
        }
      ],
      "name": "setImageUrl",
      "outputs": [],
      "stateMutability": "nonpayable",
      "type": "function"
    },
    {
      "inputs": [
        {
          "internalType": "address",
          "name": "newOwner",
          "type": "address"
        }
      ],
      "name": "transferOwnership",
      "outputs": [],
      "stateMutability": "nonpayable",
      "type": "function"
    }
  ],
  "transactionHash": "0x4cc79c39d9752a06bcbd436ad00bcc8ea5d8d1d20ee3164e31c5e8b930890007",
  "args": [
    "0x4489C7836eBE6aBf8a95Ad87877E8123e5F20A25"
  ],
  "numDeployments": 1,
  "solcInputHash": "9e6a7f35e8f768e99782e5a24faec5b8",
  "bytecode": "0x608034620000c257601f62002bf838819003918201601f19168301916001600160401b03831184841017620000c757808492602094604052833981010312620000c257516001600160a01b039081811690819003620000c2578015620000a957600080546001600160a01b03198116831782556040519316907f8be0079c531659141344cd1fd0a4f28419497f9722a3daafe3b4186f6b6457e09080a3612b1a9081620000de8239f35b604051631e4fbdf760e01b815260006004820152602490fd5b600080fd5b634e487b7160e01b600052604160045260246000fdfe6080604052600436101561001257600080fd5b6000803560e01c9081632abff1f21461007a57508063715018a6146100755780637477efa4146100705780638da5cb5b1461006b578063aba83150146100665763f2fde38b1461006157600080fd5b610590565b6104c6565b610463565b610279565b6101ca565b346100f45760203660031901126100f45760043567ffffffffffffffff81116100f057366023820112156100f057806004013590826100b8836101ae565b916100c6604051938461014b565b83835236602485830101116100f057836100ed946024602093018386013783010152610647565b80f35b5080fd5b80fd5b634e487b7160e01b600052604160045260246000fd5b6040810190811067ffffffffffffffff82111761012957604052565b6100f7565b6103e0810190811067ffffffffffffffff82111761012957604052565b90601f8019910116810190811067ffffffffffffffff82111761012957604052565b60405190610100820182811067ffffffffffffffff82111761012957604052565b604051906080820182811067ffffffffffffffff82111761012957604052565b67ffffffffffffffff811161012957601f01601f191660200190565b34610225576000806003193601126100f4576101e461061b565b80546001600160a01b03198116825581906001600160a01b03167f8be0079c531659141344cd1fd0a4f28419497f9722a3daafe3b4186f6b6457e08280a380f35b600080fd5b60005b83811061023d5750506000910152565b818101518382015260200161022d565b6040916020825261026d815180928160208601526020868601910161022a565b601f01601f1916010190565b34610225576040806003193601126102255780516004356020808301828152908352601f19939260243591906102b060408261014b565b5190206102bd90826113ca565b90916102c8906125ae565b845166169696ae372e3760c91b602082015293908490602782016102eb91610787565b0386810185526102fb908561014b565b6fffffffffffffffffffffffffffffffff1661031690610930565b8451707b226e616d65223a2250757a7a6c65202360781b6020820152938493916031850161034391610787565b701116113232b9b1b934b83a34b7b7111d1160791b815260110161036691610787565b7f222c22616e696d6174696f6e5f75726c223a22646174613a746578742f68746d8152681b0ed8985cd94d8d0b60ba1b60208201526029016103a791610787565b6a11161134b6b0b3b2911d1160a91b8152600b016103c49061079e565b6f222c2261747472696275746573223a5b60801b81526010016103e691610787565b615d7d60f01b8152600201038381018252610401908261014b565b61040a906129d0565b81517f646174613a6170706c69636174696f6e2f6a736f6e3b6261736536342c000000602082015292908390603d820161044391610787565b039081018352610453908361014b565b5161045f81928261024d565b0390f35b34610225576000366003190112610225576000546040516001600160a01b039091168152602090f35b90600182811c921680156104bc575b60208310146104a657565b634e487b7160e01b600052602260045260246000fd5b91607f169161049b565b34610225576000806003193601126100f457604051908060018054916104eb8361048c565b80865292828116908115610566575060011461051e575b61045f856105128187038261014b565b6040519182918261024d565b9250808352600080516020612ac58339815191525b82841061054e5750505081016020016105128261045f610502565b80546020858701810191909152909301928101610533565b86955061045f9693506020925061051294915060ff191682840152151560051b8201019293610502565b34610225576020366003190112610225576001600160a01b0360043581811690819003610225576105bf61061b565b801561060257600080546001600160a01b03198116831782559092167f8be0079c531659141344cd1fd0a4f28419497f9722a3daafe3b4186f6b6457e08380a380f35b604051631e4fbdf760e01b815260006004820152602490fd5b6000546001600160a01b0316330361062f57565b60405163118cdaa760e01b8152336004820152602490fd5b9061065061061b565b815167ffffffffffffffff81116101295760019061067781610672845461048c565b610725565b602080601f83116001146106b25750819293946000926106a7575b5050600019600383901b1c191690821b179055565b015190503880610692565b90601f198316956106d36001600052600080516020612ac583398151915290565b926000905b88821061070e57505083859697106106f5575b505050811b019055565b015160001960f88460031b161c191690553880806106eb565b8087859682949686015181550195019301906106d8565b90601f8211610732575050565b600191600090838252600080516020612ac5833981519152906020601f850160051c8301941061077d575b601f0160051c01915b8281106107735750505050565b8181558301610766565b909250829061075d565b9061079a6020928281519485920161022a565b0190565b906000916001908154916107b18361048c565b9281811690811561080757506001146107c957505050565b809192939450600052600080516020612ac5833981519152906000915b8483106107f4575050500190565b81816020925485870152019201916107e6565b60ff191683525050811515909102019150565b604051906020820182811067ffffffffffffffff8211176101295760405260008252565b90610848826101ae565b610855604051918261014b565b8281528092610866601f19916101ae565b0190602036910137565b604051600861087e8261010d565b6001908183526020368185013760218301825b61089c575b50505090565b6000190190600a906f181899199a1a9b1b9c1cb0b131b232b360811b8282061a8353049182156108ce57919082610891565b610896565b60405160026108e18261010d565b6001908183526020368185013760218301825b6108fe5750505090565b6000190190600a906f181899199a1a9b1b9c1cb0b131b232b360811b8282061a8353049182156108ce579190826108f4565b806000917a184f03e93ff9f4daa797ed6e38ed64bf6a1f01000000000000000080821015610a65575b506d04ee2d6d415b85acef810000000080831015610a56575b50662386f26fc1000080831015610a47575b506305f5e10080831015610a38575b5061271080831015610a29575b506064821015610a19575b600a80921015610a0f575b6001908160216109c782870161083e565b95860101905b6109d9575b5050505090565b600019019083906f181899199a1a9b1b9c1cb0b131b232b360811b8282061a835304918215610a0a579190826109cd565b6109d2565b91600101916109b6565b91906064600291049101916109ab565b600491939204910191386109a0565b60089193920491019138610993565b60109193920491019138610984565b60209193920491019138610972565b604093508104915038610959565b60405190610a808261010d565b60018252600360fc1b6020830152565b60405190610a9d8261010d565b60028252610c8d60f21b6020830152565b60405190610abb8261010d565b6009825268556c7472617769646560b81b6020830152565b60405190610ae08261010d565b6002825261189960f11b6020830152565b60405190610afe8261010d565b60048252635769646560e01b6020830152565b60405190610b1e8261010d565b60018252601960f91b6020830152565b60405190610b3b8261010d565b60068252654e6172726f7760d01b6020830152565b60405190610b5d8261010d565b60048252634e6f6e6560e01b6020830152565b60405190610b7d8261010d565b60048252630313030360e41b6020830152565b60405190610b9d8261010d565b6008825267496e66696e69746560c01b6020830152565b60405190610bc18261010d565b60038252620cce4d60ea1b6020830152565b60405190610be08261010d565b60048252634375626560e01b6020830152565b60405190610c008261010d565b600382526231393760e81b6020830152565b60405190610c1f8261010d565b600382526218979960e91b6020830152565b60405190610c3e8261010d565b6002825261072760f31b6020830152565b60405190610c5c8261010d565b60038252620c4bcd60ea1b6020830152565b60405190610c7b8261010d565b60018252600760fb1b6020830152565b60405190610c988261010d565b6005825264506c616e6560d81b6020830152565b60405190610cb98261010d565b600782526610dd5c985d195960ca1b6020830152565b60405190610cdc8261010d565b6004825263139bdc9960e21b6020830152565b60405190610cfc8261010d565b6003825262422f5760e81b6020830152565b60405190610d1b8261010d565b600982526821b0b7323cb1b7b93760b91b6020830152565b60405190610d408261010d565b60038252622923a160e91b6020830152565b60405190610d5f8261010d565b60068252655653436f646560d01b6020830152565b60405190610d818261010d565b60048252632732b7b760e11b6020830152565b60405190610da18261010d565b60068252654a756e676c6560d01b6020830152565b60405190610dc38261010d565b600482526321b7b93760e11b6020830152565b634e487b7160e01b600052603260045260246000fd5b906008811015610dfd5760051b0190565b610dd6565b906004811015610dfd5760051b0190565b60405190610e208261010d565b6004825263159bda5960e21b6020830152565b60405190610e408261010d565b600782526645636c6970736560c81b6020830152565b60405190610e638261010d565b600582526454696e747360d81b6020830152565b60405190610e848261010d565b600682526553686164657360d01b6020830152565b60405190610ea68261010d565b6007825266556e69666f726d60c81b6020830152565b60405190610ec98261012e565b7f69643b677269642d74656d706c6174652d636f6c756d6e733a726570656174286103c0808452837f2d2d6e3a63616c6328283339347078202d2028766172282d2d6229202d20312960208201527f2a766172282d2d6329292f766172282d2d6229293b2d2d6f3a63616c6328313060408201527f367078202b20766172282d2d6e29293b2d2d703a63616c6328766172282d2d6160608201527f292f32297d73656374696f6e7b6865696768743a766172282d2d61293b77696460808201527f74683a766172282d2d61293b6261636b67726f756e643a766172282d2d65293b60a08201527f706f736974696f6e3a6162736f6c7574653b6c6566743a303b746f703a303b7260c08201527f696768743a303b626f74746f6d3a303b6f766572666c6f773a68696464656e7d60e08201527f2e637b6865696768743a303b77696474683a303b706f736974696f6e3a6162736101008201527f6f6c7574653b7472616e736974696f6e3a302e3235737d2e633a686f7665727b6101208201527f7472616e73666f726d3a7472616e736c617465283070782c2d36347078293b746101408201527f72616e736974696f6e3a302e3235737d2e633e2a7b6865696768743a766172286101608201527f2d2d6e293b77696474683a766172282d2d6e293b626f726465722d626f74746f6101808201527f6d3a34707820736f6c696420626c61636b3b626f726465722d72696768743a346101a08201527f707820736f6c696420626c61636b3b626f726465722d6c6566743a31707820736101c08201527f6f6c696420626c61636b3b626f726465722d746f703a31707820736f6c6964206101e08201527f626c61636b3b7472616e73666f726d2d6f726967696e3a3020303b706f7369746102008201527f696f6e3a72656c61746976653b626f782d73697a696e673a626f726465722d626102208201527f6f787d2e633e2a3a6e74682d6368696c642831297b77696474683a766172282d6102408201527f2d64293b6261636b67726f756e642d636f6c6f723a766172282d2d66293b74726102608201527f616e73666f726d3a726f7461746528393064656729736b657758282d333064656102808201527f67297363616c655928302e383634297d2e633e2a3a6e74682d6368696c6428326102a08201527f297b6865696768743a766172282d2d64293b626f74746f6d3a766172282d2d6e6102c08201527f293b6261636b67726f756e642d636f6c6f723a766172282d2d67293b7472616e6102e08201527f73666f726d3a726f74617465282d333064656729736b657758282d33306465676103008201527f297363616c655928302e383634297d23687b6261636b67726f756e642d636f6c6103208201527f6f723a766172282d2d68297d23697b6261636b67726f756e642d636f6c6f723a6103408201527f766172282d2d69297d2e633e2a3a6e74682d6368696c642833297b626f74746f6103608201527f6d3a63616c6328766172282d2d6429202b20766172282d2d6e29293b6261636b6103808201527f67726f756e642d636f6c6f723a766172282d2d68293b646973706c61793a67726103a08201520152565b634e487b7160e01b600052601160045260246000fd5b6040519061137c8261010d565b600582526446616c736560d81b6020830152565b6040519061139d8261010d565b60018252602b60f81b6020830152565b604051906113ba8261010d565b60018252602d60f81b6020830152565b61143392916113d7610870565b6113df610870565b9261144960409461145786519283926114336114396020986114338a88016023907f7b2274726169745f74797065223a2244696d656e73696f6e222c2276616c7565815262111d1160e91b60208201520190565b90610787565b6301061cb960e51b815260040190565b61227d60f01b815260020190565b039361146b601f199586810184528361014b565b6114b16114ce611479610870565b6114c289519384926114338a8501601c907f3c7374796c653e3a726f6f747b2d2d613a3130303070783b2d2d623a0000000081520190565b641d9696b19d60d91b815260050190565b0387810183528261014b565b6114d6610a73565b50611586600f91828085166004811060001461214457505061157a6115678a6115598a61154d611449611507610a73565b94611433611524611516610b50565b925b519e8f96870190610787565b7f2c7b2274726169745f74797065223a22476170222c2276616c7565223a2200008152601e0190565b038c81018a528961014b565b8b519d8e948b860190610787565b66383c1d9696b21d60c91b815260070190565b038781018b528a61014b565b600191600481901c603f16838110156120bf575085886115a4610c6e565b9b6115ad610c8b565b61143393611605611449611611936114336115d2611642985b519d8e96870190610787565b7f2c7b2274726169745f74797065223a22486569676874222c2276616c7565223a8152601160f91b602082015260210190565b038b810189528861014b565b611636611627889e8d519586948d860190610787565b6270783b60e81b815260030190565b0389810183528261014b565b600091601f958682600a1c169360198510600014611ef257505062ffffff9b8c82861c169061167082610930565b908c519182918c830161168291610787565b7f2c7b2274726169745f74797065223a224261736520436f6c6f72222c2276616c8152633ab2911d60e11b60208201526024016116be91610787565b607d60f81b8152600101038b810182526116d8908261014b565b936007811015611d6f57508091506116ee610e99565b9c03908060181b908060301b908060481b9060601b17171717915b89519b8c9189830161171a91610787565b7f2c7b2274726169745f74797065223a22436f6c6f722047656e65726174696f6e81526a1116113b30b63ab2911d1160a91b6020820152602b0161175d91610787565b61227d60f01b8152600201038881018c52611778908c61014b565b8160601c61178590612427565b9162ffffff90818160481c1661179a90612427565b91808260301c166117aa90612427565b90808360181c166117ba90612427565b92166117c590612427565b928c519586958c87016117d791610787565b631696b29d60e11b81526004016117ed91610787565b641d9696b31d60d91b815260050161180491610787565b641d9696b39d60d91b815260050161181b91610787565b641d9696b41d60d91b815260050161183291610787565b641d9696b49d60d91b815260050161184991610787565b603b60f81b8152600101038781018252611863908261014b565b61186b610ebc565b906118746108d3565b61187c6108d3565b908a519384938a850161188e91610787565b61189791610787565b6118a091610787565b7f2c316672293b677269642d74656d706c6174652d726f77733a7265706561742881526020016118cf91610787565b7f2c316672293b7472616e73666f726d3a726f746174652832313064656729736b81527f6577282d3330646567297363616c655928302e383634297d0000000000000000602082015260380103878101825261192b908261014b565b9261193461136f565b9988519a8b9188830161194691610787565b7f2c7b2274726169745f74797065223a2242697420426f72646572222c2276616c8152643ab2911d1160d91b602082015260250161198391610787565b61227d60f01b8152600201038781018b5261199e908b61014b565b6000905b808210611c0e57505060609360005b828110611b6c5750505050845194858481016119f190601f907f3c73637269707420747970653d22746578742f6a617661736372697074223e0081520190565b7f773d77696e646f773b772e6164644576656e744c697374656e65722827444f4d81527f436f6e74656e744c6f61646564272c28293d3e7b6e3d646f63756d656e742e7160208201527f7565727953656c6563746f72282773656374696f6e27292e7374796c653b00006040820152605e017f6e2e7472616e73666f726d4f726967696e3d27746f70206c656674273b613d2881527f293d3e6e2e7472616e73666f726d3d277363616c6528272b772e696e6e65725760208201527f696474682f313030302b2729273b6128293b772e6f6e726573697a653d617d296040820152603b60f81b6060820152606101681e17b9b1b934b83a1f60b91b8152600901038581018752611b01908761014b565b519485938401611b1091610787565b611b1991610787565b701e17b9ba3cb6329f1e39b2b1ba34b7b71f60791b8152601101611b3c91610787565b691e17b9b2b1ba34b7b71f60b11b8152600a01039081018252611b5f908261014b565b611b68906129d0565b9190565b8360078211801590611c0557828503905b81925b611b8f575b50505083016119b1565b90919781600014611bf1578a8a8d868a1b86015b8c11611be8576002928a96959492611bd4611be0938f611bc7611433918d8f61220d565b9151968794850190610787565b0390810183528261014b565b990192611b80565b50505097611b85565b8a8a8d60011987601003018a1b8601611ba3565b81830190611b7d565b90938390878a611c1d88610930565b611c2689610930565b611c2f8a610930565b90888b109283600014611d6157611c446113ad565b935b15611d4e57611c568c8b03610930565b945b519687968701611c6791610787565b61173960f11b8152600201611c7b91610787565b7403dba37b81d31b0b631943b30b9141696b79490159605d1b8152601501611ca291610787565b7f2a28766172282d2d6e292f32202b20766172282d2d632929297d2e63000000008152601c01611cd191610787565b7303db632b33a1d31b0b631943b30b9141696b814960651b8152601401611cf791610787565b661018171c1b1b1560c91b8152600701611d1091610787565b7f2a28766172282d2d6e29202b20766172282d2d632929297d00000000000000008152601801038981018252611d46908261014b565b9401906119a2565b611d5b600e198d01610930565b94611c58565b611d69611390565b93611c46565b600e811015611e0a57509050611d83610e77565b9b81611dac62010000600160fd1b03600383901c908116611f00821617601f9091161760601b90565b611dd362010000600160ff1b03600184901c908116617f00821617607f9091161760481b90565b17611dfb62010000600160fe1b03600284901c908116613f00821617603f9091161760301b90565b1791039160181b171791611709565b6015811015611e9b57509050611e1e610e56565b9b60ff8083168103818460081c168203848060101c840394039460181b938260021c84038260021c850360081b8260021c860360101b171760301b93838b1c8103838c1c820360081b838d1c830360101b171760481b9360031c81039260031c810360081b9160031c900360101b171760601b1717171791611709565b60181115611ecf576bffffff000000000000000000915080611ebb610e33565b9d03908060181b9060601b17171791611709565b65ffffff00000090611edf610e13565b9d039160091b168160601b171791611709565b9193509b5084611f00610cac565b9c84861c90611f0d61016d565b611f15610ccf565b8152611f1f610cef565b8c8201528d611f2c610d0e565b90820152611f38610d33565b6060820152611f45610d52565b6080820152611f52610d74565b60a0820152611f5f610d94565b60c0820152611f6c610db6565b60e082015260078316611f7e91610dec565b51908d519182918d8301611f9191610787565b7f2c7b2274726169745f74797065223a22436f6c6f72205468656d65222c227661815265363ab2911d1160d11b6020820152602601611fcf91610787565b61227d60f01b8152600201038c81018252611fea908261014b565b94611ff361018e565b7d8fbcbbebcb8bd087705e81acb48ead000000ffffffffffffffffff0000008152907d0d3b66f4d35eee964bfaf0caf95738ffff0000ff000000ffff0000ffff00828d01527d1e1e1e569cd6d2d1a2ba7fb54dc4ac00ffffffff000000ff00ff00ff00ff828f01527dbe3400015045020d22eabaacbe3400f9c233705860211a28346830f9c233606083015260101c60031661208e91610e02565b516001600160f01b03169250166120a95760781c5b91611709565b6effffffffffffffffffffffffffffff166120a3565b600b8110156120f9575085886120d3610c31565b9b6120dc610c4f565b61143393611605611449611611936114336115d2611642986115c6565b60158110156121165750858861210d610bf3565b9b6120dc610c12565b60331115612131578588612128610bb4565b9b6120dc610bd3565b858861213b610b70565b9b6120dc610b90565b600d81101561217d57505061157a6115678a6115598a61154d611449612168610b11565b94611433611524612177610b2e565b92611518565b10156121ab5761157a6115678a6115598a61154d61144961219c610ad3565b94611433611524612177610af1565b61157a6115678a6115598a61154d6114496121c4610a90565b94611433611524612177610aae565b604051906121e08261010d565b60018252606960f81b6020830152565b604051906121fd8261010d565b60018252600d60fb1b6020830152565b9161226b919261221c84610930565b9161222681610930565b91604092612294845196879261143361225d6020996114338b8801600f906e1e3234bb1031b630b9b99e9131903960891b81520190565b61206360f01b815260020190565b7f223e3c6469763e3c2f6469763e3c6469763e3c2f6469763e3c6469763e0000008152601d0190565b03946122a8601f199687810183528261014b565b95600190811b808201926002918201919060005b858410156122ff575b5050505050505090611bd46122e46122fc949351958693840190610787565b6b1e17b234bb1f1e17b234bb1f60a11b8152600c0190565b90565b600f60008189116124155782898303881b83030190915b81905b6000198301821015612342575b50505050840192801561233d5760001901926122bc565b6122c5565b9091929d88908f8f8f8f6123cf611bd491878f8f8f60039160d88f948f9c818e6123e39f83600495038a03018a1c9003970103871c6016039386881c60071986861b1601841b1c95831b161c91851b161c161c1615600014612401576114336123ba6123ac6121f0565b925b51988996870190610787565b681e3234bb1034b21e9160b91b815260090190565b67111f1e17b234bb1f60c11b815260080190565b9e01918881156123fb57509192916000190190612319565b50612326565b6114336123ba61240f6121d3565b926123ae565b90600e198901871b8301810190612316565b602090600f601482901c811683811015610dfd57818360101c169284841015610dfd578281600c1c169285841015610dfd57808260081c169086821015610dfd57808360041c169287841015610dfd57169386851015610dfd57604051602360f81b9781019788526001600160f81b03196f181899199a1a9b1b9c1ca0a121a222a360811b9586901a60f890811b821660018b01529786901a881b811660028a01529185901a871b821660038901529184901a861b811660048801529183901a851b821660058701529190921a90921b166006830152906122fc9082906007015b03601f19810183528261014b565b604051906125238261010d565b60058252643030302e3760d91b6020830152565b8015612544576000190190565b611359565b906001820180921161254457565b906002820180921161254457565b906020820180921161254457565b604051906125808261010d565b60018252600160fd1b6020830152565b6040519061259d8261010d565b60028252612e3760f11b6020830152565b6125b6612516565b90603f915b82158015906126a85761266061266692612508611433936114336007808a1690811460001461269a5761261161261e6125fe6125f98d60031c612549565b610930565b6125086040519384926020840190610787565b600160fd1b815260010190565b925b612631600f8b8d60021b1c1661288e565b911580612693575b6000901561266c57505061143361264e612590565b935b6040519889976020890190610787565b92612537565b916125bb565b50156126835761143361267d612573565b93612650565b61143361268e61081a565b61267d565b5080612639565b6126a261081a565b92612620565b5061143392506125086126d36126c3600f6122fc951661288e565b6040519586946020860190610787565b7f5c6e20206120622063206420652066206720685c6e6060600000000000000000815260180190565b604051906127098261010d565b6003825262e2999f60e81b6020830152565b604051906127288261010d565b6003825262e2999d60e81b6020830152565b604051906127478261010d565b600382526238a66760ea1b6020830152565b604051906127668261010d565b6003825262714ccf60e91b6020830152565b604051906127858261010d565b6003825262e2999b60e81b6020830152565b604051906127a48261010d565b6003825262714ccd60e91b6020830152565b604051906127c38261010d565b6003825262e2999960e81b6020830152565b604051906127e28261010d565b6003825262e2999760e81b6020830152565b604051906128018261010d565b6003825262714ccb60e91b6020830152565b604051906128208261010d565b60038252621c533360eb1b6020830152565b6040519061283f8261010d565b6003825262e2999560e81b6020830152565b6040519061285e8261010d565b600382526238a66560ea1b6020830152565b6040519061287d8261010d565b6002825261c2b760f01b6020830152565b60018114612957576002811461294e5760038114612945576004811461293c5760058114612933576006811461292a576009811461292157600a811461291857600b811461290f57600c811461290657600d81146128fd57600e146128f5576122fc612870565b6122fc612851565b506122fc612832565b506122fc612813565b506122fc6127f4565b506122fc6127d5565b506122fc6127b6565b506122fc612797565b506122fc612778565b506122fc612759565b506122fc61273a565b506122fc61271b565b506122fc6126fc565b604051906060820182811067ffffffffffffffff82111761012957604052604082527f6768696a6b6c6d6e6f707172737475767778797a303132333435363738392b2f6040837f4142434445464748494a4b4c4d4e4f505152535455565758595a61626364656660208201520152565b805115612abb576129df612960565b6129fc6129f66129ef8451612557565b6003900490565b60021b90565b91612a0e612a0984612565565b61083e565b92835280815182019060208501935b828210612a5f57505050600390510680600114612a4e57600214612a3f575090565b603d60f81b6000199091015290565b50613d3d60f01b6001199091015290565b90919360049060038094019384516001603f81818460121c16880101519260f893841b8652828282600c1c1689010151841b8387015282828260061c1689010151841b60028701521686010151901b9082015201939190612a1d565b506122fc61081a56feb10e2d527612073b26eecdfd717e6a320cf44b4afac2b0732d9fcbe2b7fa0cf6a2646970667358221220f26d2edb9cdf9bdd43776417678501fbb2e9de0fd3eba38e285dfb4d5907adab64736f6c63430008140033",
  "devdoc": {
    "errors": {
      "OwnableInvalidOwner(address)": [
        {
          "details": "The owner is not a valid owner account. (eg. `address(0)`)"
        }
      ],
      "OwnableUnauthorizedAccount(address)": [
        {
          "details": "The caller account is not authorized to perform an operation."
        }
      ]
    },
    "kind": "dev",
    "methods": {
      "getMetadata(uint256,uint256)": {
        "details": "The output is base 64-encoded.",
        "params": {
          "_board": "Information about the board.",
          "_internalId": "A bitpacked uint256 where the first 128 bits are the game ID, and the last 128 bits are the move ID within the game."
        },
        "returns": {
          "_0": "Base 64-encoded JSON of metadata generated from `_internalId` and `_move`."
        }
      },
      "owner()": {
        "details": "Returns the address of the current owner."
      },
      "renounceOwnership()": {
        "details": "Leaves the contract without owner. It will not be possible to call `onlyOwner` functions. Can only be called by the current owner. NOTE: Renouncing ownership will leave the contract without an owner, thereby disabling any functionality that is only available to the owner."
      },
      "transferOwnership(address)": {
        "details": "Transfers ownership of the contract to a new account (`newOwner`). Can only be called by the current owner."
      }
    },
    "version": 1
  },
  "userdoc": {
    "kind": "user",
    "methods": {
      "getMetadata(uint256,uint256)": {
        "notice": "Takes in data for a given fiveoutofnine NFT and outputs its metadata in JSON form. Refer to {fiveoutofnineART} for details."
      }
    },
    "notice": " The top/bottom rows and left/right columns are treated as sentinel rows/columns for efficient boundary validation (see {Chess-generateMoves} and {Chess-isValid}). i.e., (63, ..., 56), (07, ..., 00), (63, ..., 07), and (56, ..., 00) never contain pieces. Every bit in those rows and columns should be ignored, except for the last bit. The last bit denotes whose turn it is to play (0 means black's turn; 1 means white's turn). e.g. a potential starting position:                                Black                       00 00 00 00 00 00 00 00                    Black                       00 03 02 05 06 02 03 00                                             00 01 01 01 01 01 01 00                                             00 00 00 00 00 00 00 00     denotes                       00 00 00 00 00 00 00 00    the board                       00 09 09 09 09 09 09 00                                             00 11 12 13 14 12 11 00                                             00 00 00 00 00 00 00 01                    White                                White All numbers in the example above are in decimal representation. ======================================Move Representation======================================= Each move is allocated 12 bits. The first 6 bits are the index the piece is moving from, and the last 6 bits are the index the piece is moving to. Since the index representing a square is at most 54, 6 bits sufficiently represents any index (0b111111 = 63 > 54). e.g. 1243 denotes a move from index 19 to 27 (1243 = (19 << 6) | 27). Since the board is represented by a uint256, consider including ``using Chess for uint256''.Below details how the metadata and art are generated: ==========================================Description=========================================== Token descriptions describe white's move in algebraic notation and black's move in algebraic notation. If white's move results in checkmating black or a stalemate, the description will say black resigned (for simplicity, stalemates are treated as checkmates). Since the engine always plays black, and the player always plays white, white is indicated as ``Player'', and black is indicated as ``fiveoutofnine''. Additionally, for every non game-ending turn, a string graphic is generated after the moves' descriptions. An example:                             Player plays e4 rook captures e5 queen.                             6                                   5                                   4     *                              3                                   2                                   1                                     a b c d e f                             fiveoutofnine resigns. * indicates the square the piece moved from. ==============================================Art=============================================== The art is generated as HTML code with in-line CSS (0 JS) according to the following table:  | Property       | Name      | Value/Description                       | Determination       |  | ============== | ========= | ======================================= | =================== |  | Dimension      | 1  1     | 1  1 pillars                           | Player moved king   |  | (6 traits)     | 2  2     | 2  2 pillars                           | Player moved rook   |  |                | 3  3     | 3  3 pillars                           | Engine moved bishop |  |                | 4  4     | 4  4 pillars                           | Player moved knight |  |                | 6  6     | 6  6 pillars                           | Player moved pawn   |  |                | 12  12   | 12  12 pillars                         | Player moved queen  |  | -------------- | --------- | --------------------------------------- | ------------------- |  | Height         | Plane     | 8px pillar height                       | 1 / 64 chance[^0]   |  | (5 traits)     | 1/4       | 98px pillar height                      | 10 / 64 chance[^0]  |  |                | 1/2       | 197px pillar height                     | 10 / 64 chance[^0]  |  |                | Cube      | 394px pillar height                     | 40 / 64 chance[^0]  |  |                | Infinite  | 1000px pillar height                    | 3 / 64 chance[^0]   |  | -------------- | --------- | --------------------------------------- | ------------------- |  | Gap[^1]        | None      | 0px gap between the pillars             | 4 / 16 chance[^0]   |  | (4 traits)     | Narrow    | 2px gap between the pillars             | 9 / 16 chance[^0]   |  |                | Wide      | 12px gap between the pillars            | 2 / 16 chance[^0]   |  |                | Ultrawide | 24px gap between the pillars            | 1 / 16 chance[^0]   |  | -------------- | --------- | --------------------------------------- | ------------------- |  | Color          | Uniform   | All faces are the same color            | 7 / 32 chance[^0]   |  | Generation[^2] | Shades    | Faces get darker anticlockwise          | 7 / 32 chance[^0]   |  | (6 traits)     | Tints     | Faces get lighter anticlockwise         | 7 / 32 chance[^0]   |  |                | Eclipse   | Left face is white; black face is black | 3 / 32 chance[^0]   |  |                | Void      | Left and right face are black           | 1 / 32 chance[^0]   |  |                | Curated   | One of 8 color themes (see below)       | 7 / 32 chance[^0]   |  | -------------- | --------- | --------------------------------------- | ------------------- |  | Color          | Nord      | 0x8FBCBBEBCB8BD087705E81ACB48EAD        | 1 / 8 chance[^0]    |  | Theme[^3]      | B/W       | 0x000000FFFFFFFFFFFFFFFFFF000000        | 1 / 8 chance[^0]    |  | (8 traits)     | Candycorn | 0x0D3B66F4D35EEE964BFAF0CAF95738        | 1 / 8 chance[^0]    |  |                | RGB       | 0xFFFF0000FF000000FFFF0000FFFF00        | 1 / 8 chance[^0]    |  |                | VSCode    | 0x1E1E1E569CD6D2D1A2BA7FB54DC4AC        | 1 / 8 chance[^0]    |  |                | Neon      | 0x00FFFFFFFF000000FF00FF00FF00FF        | 1 / 8 chance[^0]    |  |                | Jungle    | 0xBE3400015045020D22EABAACBE3400        | 1 / 8 chance[^0]    |  |                | Corn      | 0xF9C233705860211A28346830F9C233        | 1 / 8 chance[^0]    |  | -------------- | --------- | --------------------------------------- | ------------------- |  | Bit Border[^4] | True      | The bits have a 1px solid black border  | Any pieces captured |  | (2 traits)     | False     | The bits don't have any border          | No pieces captuered |  | ============== | ========= | ======================================= | =================== |  | [^0]: Determined from `_seed`.                                                             |  | [^1]: Gap is omitted when dimension is 1 x 1.                                              |  | [^2]: The first 5 color generation traits are algorithms. A base color is generated from   |  | `seed`, and the remaining colors are generated according to the selected algorithm. The    |  | color of the bits is always the complement of the randomly generated base color, and the   |  | background color depends on the algorithm:                                                 |  |     * Uniform: same as the base color;                                                     |  |     * Shades: darkest shade of the base color;                                             |  |     * Tints: lightest shade of the base color;                                             |  |     * Eclipse: same as the base color;                                                     |  |     * Void: complement of the base color.                                                  |  | If the selected color generation trait is \"Curated,\" 1 of 8 pre-curated themes is randomly |  | selected.                                                                                  |  | [^3]: The entries in the 3rd column are bitpacked integers where                           |  |     * the first 24 bits represent the background color,                                    |  |     * the second 24 bits represent the left face's color,                                  |  |     * the third 24 bits represent the right face's color,                                  |  |     * the fourth 24 bits represent the top face's color,                                   |  |     * and the last 24 bits represent the bits' color.                                      |  | [^4]: Bit border is omitted when dimension is 12 x 12.                                     |",
    "version": 1
  },
  "storageLayout": {
    "storage": [
      {
        "astId": 8,
        "contract": "contracts/ThreeOutOfNineART.sol:ThreeOutOfNineART",
        "label": "_owner",
        "offset": 0,
        "slot": "0",
        "type": "t_address"
      },
      {
        "astId": 5482,
        "contract": "contracts/ThreeOutOfNineART.sol:ThreeOutOfNineART",
        "label": "imageUrl",
        "offset": 0,
        "slot": "1",
        "type": "t_string_storage"
      }
    ],
    "types": {
      "t_address": {
        "encoding": "inplace",
        "label": "address",
        "numberOfBytes": "20"
      },
      "t_string_storage": {
        "encoding": "bytes",
        "label": "string",
        "numberOfBytes": "32"
      }
    }
  }
}