{
  "address": "0xB6BAADF5D79a56957C3c9b0600818B2fF581b5A6",
  "abi": [
    {
      "inputs": [
        {
          "internalType": "address",
          "name": "initialOwner",
          "type": "address"
        },
        {
          "internalType": "address",
          "name": "_artAddr",
          "type": "address"
        }
      ],
      "stateMutability": "nonpayable",
      "type": "constructor"
    },
    {
      "inputs": [
        {
          "internalType": "uint256",
          "name": "internalTokenId",
          "type": "uint256"
        }
      ],
      "name": "AlreadyAttempted",
      "type": "error"
    },
    {
      "inputs": [
        {
          "internalType": "address",
          "name": "sender",
          "type": "address"
        },
        {
          "internalType": "uint256",
          "name": "balance",
          "type": "uint256"
        },
        {
          "internalType": "uint256",
          "name": "needed",
          "type": "uint256"
        },
        {
          "internalType": "uint256",
          "name": "tokenId",
          "type": "uint256"
        }
      ],
      "name": "ERC1155InsufficientBalance",
      "type": "error"
    },
    {
      "inputs": [
        {
          "internalType": "address",
          "name": "approver",
          "type": "address"
        }
      ],
      "name": "ERC1155InvalidApprover",
      "type": "error"
    },
    {
      "inputs": [
        {
          "internalType": "uint256",
          "name": "idsLength",
          "type": "uint256"
        },
        {
          "internalType": "uint256",
          "name": "valuesLength",
          "type": "uint256"
        }
      ],
      "name": "ERC1155InvalidArrayLength",
      "type": "error"
    },
    {
      "inputs": [
        {
          "internalType": "address",
          "name": "operator",
          "type": "address"
        }
      ],
      "name": "ERC1155InvalidOperator",
      "type": "error"
    },
    {
      "inputs": [
        {
          "internalType": "address",
          "name": "receiver",
          "type": "address"
        }
      ],
      "name": "ERC1155InvalidReceiver",
      "type": "error"
    },
    {
      "inputs": [
        {
          "internalType": "address",
          "name": "sender",
          "type": "address"
        }
      ],
      "name": "ERC1155InvalidSender",
      "type": "error"
    },
    {
      "inputs": [
        {
          "internalType": "address",
          "name": "operator",
          "type": "address"
        },
        {
          "internalType": "address",
          "name": "owner",
          "type": "address"
        }
      ],
      "name": "ERC1155MissingApprovalForAll",
      "type": "error"
    },
    {
      "inputs": [
        {
          "internalType": "string",
          "name": "s",
          "type": "string"
        }
      ],
      "name": "FENCannotBeEmpty",
      "type": "error"
    },
    {
      "inputs": [
        {
          "internalType": "uint256",
          "name": "amountSent",
          "type": "uint256"
        },
        {
          "internalType": "uint256",
          "name": "requiredAmount",
          "type": "uint256"
        }
      ],
      "name": "IncorrectMessageValue",
      "type": "error"
    },
    {
      "inputs": [
        {
          "internalType": "uint256",
          "name": "internalTokenId",
          "type": "uint256"
        },
        {
          "internalType": "uint256",
          "name": "metadata",
          "type": "uint256"
        }
      ],
      "name": "InvalidMetadata",
      "type": "error"
    },
    {
      "inputs": [
        {
          "internalType": "uint256",
          "name": "internalTokenId",
          "type": "uint256"
        }
      ],
      "name": "InvalidPuzzle",
      "type": "error"
    },
    {
      "inputs": [
        {
          "internalType": "address",
          "name": "owner",
          "type": "address"
        }
      ],
      "name": "OwnableInvalidOwner",
      "type": "error"
    },
    {
      "inputs": [
        {
          "internalType": "address",
          "name": "account",
          "type": "address"
        }
      ],
      "name": "OwnableUnauthorizedAccount",
      "type": "error"
    },
    {
      "inputs": [
        {
          "internalType": "uint256",
          "name": "internalTokenId",
          "type": "uint256"
        }
      ],
      "name": "PuzzleNotSolved",
      "type": "error"
    },
    {
      "inputs": [
        {
          "internalType": "bytes32",
          "name": "b",
          "type": "bytes32"
        }
      ],
      "name": "SolutionCannotBeEmpty",
      "type": "error"
    },
    {
      "inputs": [
        {
          "internalType": "uint256",
          "name": "tokenId",
          "type": "uint256"
        }
      ],
      "name": "TokenDoesNotExist",
      "type": "error"
    },
    {
      "anonymous": false,
      "inputs": [
        {
          "indexed": true,
          "internalType": "address",
          "name": "account",
          "type": "address"
        },
        {
          "indexed": true,
          "internalType": "address",
          "name": "operator",
          "type": "address"
        },
        {
          "indexed": false,
          "internalType": "bool",
          "name": "approved",
          "type": "bool"
        }
      ],
      "name": "ApprovalForAll",
      "type": "event"
    },
    {
      "anonymous": false,
      "inputs": [
        {
          "indexed": true,
          "internalType": "address",
          "name": "previousOwner",
          "type": "address"
        },
        {
          "indexed": true,
          "internalType": "address",
          "name": "newOwner",
          "type": "address"
        }
      ],
      "name": "OwnershipTransferred",
      "type": "event"
    },
    {
      "anonymous": false,
      "inputs": [
        {
          "indexed": false,
          "internalType": "uint256",
          "name": "internalTokenId",
          "type": "uint256"
        },
        {
          "indexed": false,
          "internalType": "string",
          "name": "fen",
          "type": "string"
        },
        {
          "indexed": false,
          "internalType": "bytes32",
          "name": "solutionHash",
          "type": "bytes32"
        },
        {
          "indexed": false,
          "internalType": "uint256",
          "name": "board",
          "type": "uint256"
        },
        {
          "indexed": false,
          "internalType": "address",
          "name": "creator",
          "type": "address"
        },
        {
          "indexed": false,
          "internalType": "string",
          "name": "description",
          "type": "string"
        }
      ],
      "name": "PuzzleAdded",
      "type": "event"
    },
    {
      "anonymous": false,
      "inputs": [
        {
          "indexed": false,
          "internalType": "uint256",
          "name": "internalTokenId",
          "type": "uint256"
        },
        {
          "indexed": false,
          "internalType": "address",
          "name": "user",
          "type": "address"
        },
        {
          "indexed": false,
          "internalType": "bytes",
          "name": "solutionSubmission",
          "type": "bytes"
        }
      ],
      "name": "PuzzleAttempted",
      "type": "event"
    },
    {
      "anonymous": false,
      "inputs": [
        {
          "indexed": false,
          "internalType": "uint256",
          "name": "internalTokenId",
          "type": "uint256"
        },
        {
          "indexed": false,
          "internalType": "uint256",
          "name": "newPuzzleRating",
          "type": "uint256"
        }
      ],
      "name": "PuzzleRatingChanged",
      "type": "event"
    },
    {
      "anonymous": false,
      "inputs": [
        {
          "indexed": false,
          "internalType": "uint256",
          "name": "internalTokenId",
          "type": "uint256"
        },
        {
          "indexed": false,
          "internalType": "address",
          "name": "user",
          "type": "address"
        }
      ],
      "name": "PuzzleSolved",
      "type": "event"
    },
    {
      "anonymous": false,
      "inputs": [
        {
          "indexed": false,
          "internalType": "uint256",
          "name": "internalTokenId",
          "type": "uint256"
        },
        {
          "indexed": false,
          "internalType": "address",
          "name": "solver",
          "type": "address"
        }
      ],
      "name": "TokenMinted",
      "type": "event"
    },
    {
      "anonymous": false,
      "inputs": [
        {
          "indexed": true,
          "internalType": "address",
          "name": "operator",
          "type": "address"
        },
        {
          "indexed": true,
          "internalType": "address",
          "name": "from",
          "type": "address"
        },
        {
          "indexed": true,
          "internalType": "address",
          "name": "to",
          "type": "address"
        },
        {
          "indexed": false,
          "internalType": "uint256[]",
          "name": "ids",
          "type": "uint256[]"
        },
        {
          "indexed": false,
          "internalType": "uint256[]",
          "name": "values",
          "type": "uint256[]"
        }
      ],
      "name": "TransferBatch",
      "type": "event"
    },
    {
      "anonymous": false,
      "inputs": [
        {
          "indexed": true,
          "internalType": "address",
          "name": "operator",
          "type": "address"
        },
        {
          "indexed": true,
          "internalType": "address",
          "name": "from",
          "type": "address"
        },
        {
          "indexed": true,
          "internalType": "address",
          "name": "to",
          "type": "address"
        },
        {
          "indexed": false,
          "internalType": "uint256",
          "name": "id",
          "type": "uint256"
        },
        {
          "indexed": false,
          "internalType": "uint256",
          "name": "value",
          "type": "uint256"
        }
      ],
      "name": "TransferSingle",
      "type": "event"
    },
    {
      "anonymous": false,
      "inputs": [
        {
          "indexed": false,
          "internalType": "string",
          "name": "value",
          "type": "string"
        },
        {
          "indexed": true,
          "internalType": "uint256",
          "name": "id",
          "type": "uint256"
        }
      ],
      "name": "URI",
      "type": "event"
    },
    {
      "anonymous": false,
      "inputs": [
        {
          "indexed": false,
          "internalType": "address",
          "name": "user",
          "type": "address"
        },
        {
          "indexed": false,
          "internalType": "uint256",
          "name": "newUserRating",
          "type": "uint256"
        }
      ],
      "name": "UserRatingChanged",
      "type": "event"
    },
    {
      "anonymous": false,
      "inputs": [
        {
          "indexed": false,
          "internalType": "uint256",
          "name": "amount",
          "type": "uint256"
        }
      ],
      "name": "WithdrawAll",
      "type": "event"
    },
    {
      "inputs": [
        {
          "internalType": "string",
          "name": "fen",
          "type": "string"
        },
        {
          "internalType": "bytes32",
          "name": "solution",
          "type": "bytes32"
        },
        {
          "internalType": "uint256",
          "name": "metadata",
          "type": "uint256"
        },
        {
          "internalType": "string",
          "name": "description",
          "type": "string"
        }
      ],
      "name": "addPuzzle",
      "outputs": [],
      "stateMutability": "nonpayable",
      "type": "function"
    },
    {
      "inputs": [],
      "name": "artAddr",
      "outputs": [
        {
          "internalType": "address",
          "name": "",
          "type": "address"
        }
      ],
      "stateMutability": "view",
      "type": "function"
    },
    {
      "inputs": [
        {
          "internalType": "address",
          "name": "account",
          "type": "address"
        },
        {
          "internalType": "uint256",
          "name": "id",
          "type": "uint256"
        }
      ],
      "name": "balanceOf",
      "outputs": [
        {
          "internalType": "uint256",
          "name": "",
          "type": "uint256"
        }
      ],
      "stateMutability": "view",
      "type": "function"
    },
    {
      "inputs": [
        {
          "internalType": "address[]",
          "name": "accounts",
          "type": "address[]"
        },
        {
          "internalType": "uint256[]",
          "name": "ids",
          "type": "uint256[]"
        }
      ],
      "name": "balanceOfBatch",
      "outputs": [
        {
          "internalType": "uint256[]",
          "name": "",
          "type": "uint256[]"
        }
      ],
      "stateMutability": "view",
      "type": "function"
    },
    {
      "inputs": [],
      "name": "internalTokenCounter",
      "outputs": [
        {
          "internalType": "uint256",
          "name": "",
          "type": "uint256"
        }
      ],
      "stateMutability": "view",
      "type": "function"
    },
    {
      "inputs": [
        {
          "internalType": "address",
          "name": "account",
          "type": "address"
        },
        {
          "internalType": "address",
          "name": "operator",
          "type": "address"
        }
      ],
      "name": "isApprovedForAll",
      "outputs": [
        {
          "internalType": "bool",
          "name": "",
          "type": "bool"
        }
      ],
      "stateMutability": "view",
      "type": "function"
    },
    {
      "inputs": [],
      "name": "kFactor",
      "outputs": [
        {
          "internalType": "uint256",
          "name": "",
          "type": "uint256"
        }
      ],
      "stateMutability": "view",
      "type": "function"
    },
    {
      "inputs": [
        {
          "internalType": "uint256",
          "name": "internalTokenId",
          "type": "uint256"
        },
        {
          "internalType": "uint256",
          "name": "count",
          "type": "uint256"
        }
      ],
      "name": "mint",
      "outputs": [],
      "stateMutability": "payable",
      "type": "function"
    },
    {
      "inputs": [],
      "name": "owner",
      "outputs": [
        {
          "internalType": "address",
          "name": "",
          "type": "address"
        }
      ],
      "stateMutability": "view",
      "type": "function"
    },
    {
      "inputs": [],
      "name": "platformFee",
      "outputs": [
        {
          "internalType": "uint256",
          "name": "",
          "type": "uint256"
        }
      ],
      "stateMutability": "view",
      "type": "function"
    },
    {
      "inputs": [
        {
          "internalType": "uint256",
          "name": "",
          "type": "uint256"
        }
      ],
      "name": "puzzlesById",
      "outputs": [
        {
          "internalType": "string",
          "name": "fen",
          "type": "string"
        },
        {
          "internalType": "bytes32",
          "name": "solution",
          "type": "bytes32"
        },
        {
          "internalType": "uint256",
          "name": "rating",
          "type": "uint256"
        },
        {
          "internalType": "uint256",
          "name": "metadata",
          "type": "uint256"
        },
        {
          "internalType": "address",
          "name": "creator",
          "type": "address"
        },
        {
          "internalType": "string",
          "name": "description",
          "type": "string"
        }
      ],
      "stateMutability": "view",
      "type": "function"
    },
    {
      "inputs": [],
      "name": "renounceOwnership",
      "outputs": [],
      "stateMutability": "nonpayable",
      "type": "function"
    },
    {
      "inputs": [
        {
          "internalType": "address",
          "name": "from",
          "type": "address"
        },
        {
          "internalType": "address",
          "name": "to",
          "type": "address"
        },
        {
          "internalType": "uint256[]",
          "name": "ids",
          "type": "uint256[]"
        },
        {
          "internalType": "uint256[]",
          "name": "values",
          "type": "uint256[]"
        },
        {
          "internalType": "bytes",
          "name": "data",
          "type": "bytes"
        }
      ],
      "name": "safeBatchTransferFrom",
      "outputs": [],
      "stateMutability": "nonpayable",
      "type": "function"
    },
    {
      "inputs": [
        {
          "internalType": "address",
          "name": "from",
          "type": "address"
        },
        {
          "internalType": "address",
          "name": "to",
          "type": "address"
        },
        {
          "internalType": "uint256",
          "name": "id",
          "type": "uint256"
        },
        {
          "internalType": "uint256",
          "name": "value",
          "type": "uint256"
        },
        {
          "internalType": "bytes",
          "name": "data",
          "type": "bytes"
        }
      ],
      "name": "safeTransferFrom",
      "outputs": [],
      "stateMutability": "nonpayable",
      "type": "function"
    },
    {
      "inputs": [
        {
          "internalType": "address",
          "name": "operator",
          "type": "address"
        },
        {
          "internalType": "bool",
          "name": "approved",
          "type": "bool"
        }
      ],
      "name": "setApprovalForAll",
      "outputs": [],
      "stateMutability": "nonpayable",
      "type": "function"
    },
    {
      "inputs": [
        {
          "internalType": "address",
          "name": "_artAddr",
          "type": "address"
        }
      ],
      "name": "setArt",
      "outputs": [],
      "stateMutability": "nonpayable",
      "type": "function"
    },
    {
      "inputs": [
        {
          "internalType": "uint256",
          "name": "_kFactor",
          "type": "uint256"
        }
      ],
      "name": "setKFactor",
      "outputs": [],
      "stateMutability": "nonpayable",
      "type": "function"
    },
    {
      "inputs": [
        {
          "internalType": "uint256",
          "name": "_fee",
          "type": "uint256"
        }
      ],
      "name": "setPlatformFee",
      "outputs": [],
      "stateMutability": "nonpayable",
      "type": "function"
    },
    {
      "inputs": [
        {
          "internalType": "uint256",
          "name": "_price",
          "type": "uint256"
        }
      ],
      "name": "setTokenMintPrice",
      "outputs": [],
      "stateMutability": "nonpayable",
      "type": "function"
    },
    {
      "inputs": [
        {
          "internalType": "uint256",
          "name": "internalTokenId",
          "type": "uint256"
        },
        {
          "internalType": "bytes",
          "name": "solution",
          "type": "bytes"
        }
      ],
      "name": "submitSolution",
      "outputs": [
        {
          "internalType": "bool",
          "name": "",
          "type": "bool"
        }
      ],
      "stateMutability": "nonpayable",
      "type": "function"
    },
    {
      "inputs": [
        {
          "internalType": "bytes4",
          "name": "interfaceId",
          "type": "bytes4"
        }
      ],
      "name": "supportsInterface",
      "outputs": [
        {
          "internalType": "bool",
          "name": "",
          "type": "bool"
        }
      ],
      "stateMutability": "view",
      "type": "function"
    },
    {
      "inputs": [],
      "name": "tokenMintPrice",
      "outputs": [
        {
          "internalType": "uint256",
          "name": "",
          "type": "uint256"
        }
      ],
      "stateMutability": "view",
      "type": "function"
    },
    {
      "inputs": [
        {
          "internalType": "address",
          "name": "newOwner",
          "type": "address"
        }
      ],
      "name": "transferOwnership",
      "outputs": [],
      "stateMutability": "nonpayable",
      "type": "function"
    },
    {
      "inputs": [
        {
          "internalType": "uint256",
          "name": "internalTokenId",
          "type": "uint256"
        }
      ],
      "name": "uri",
      "outputs": [
        {
          "internalType": "string",
          "name": "",
          "type": "string"
        }
      ],
      "stateMutability": "view",
      "type": "function"
    },
    {
      "inputs": [
        {
          "internalType": "uint256",
          "name": "internalTokenId",
          "type": "uint256"
        },
        {
          "internalType": "address",
          "name": "user",
          "type": "address"
        }
      ],
      "name": "userHasAttemptedPuzzle",
      "outputs": [
        {
          "internalType": "bool",
          "name": "",
          "type": "bool"
        }
      ],
      "stateMutability": "view",
      "type": "function"
    },
    {
      "inputs": [
        {
          "internalType": "uint256",
          "name": "internalTokenId",
          "type": "uint256"
        },
        {
          "internalType": "address",
          "name": "user",
          "type": "address"
        }
      ],
      "name": "userHasSolvedPuzzle",
      "outputs": [
        {
          "internalType": "bool",
          "name": "",
          "type": "bool"
        }
      ],
      "stateMutability": "view",
      "type": "function"
    },
    {
      "inputs": [
        {
          "internalType": "address",
          "name": "",
          "type": "address"
        }
      ],
      "name": "userRatings",
      "outputs": [
        {
          "internalType": "uint256",
          "name": "",
          "type": "uint256"
        }
      ],
      "stateMutability": "view",
      "type": "function"
    },
    {
      "inputs": [],
      "name": "withdrawAll",
      "outputs": [],
      "stateMutability": "nonpayable",
      "type": "function"
    }
  ],
  "transactionHash": "0xb80afb3adce8c4df6a714143cf4b298cdac6e22a18c964dee63300579130817a",
  "args": [
    "0x4489C7836eBE6aBf8a95Ad87877E8123e5F20A25",
    "0x126b15Ca70Fc12CAA1ad3507C9F6729999394D34"
  ],
  "numDeployments": 1,
  "solcInputHash": "9e6a7f35e8f768e99782e5a24faec5b8",
  "bytecode": "0x608034620001be576001600160401b03906200245190601f38839003908101601f191682019084821183831017620001a85780839160409586948552833981010312620001be576200005f60206200005783620001c3565b9201620001c3565b8251936020850190811185821017620001a857835260008094526002546001908181811c911680156200019d575b60208210146200018957601f81116200013f575b505060028490556001600160a01b0391821680156200012757600380546001600160a01b0319808216841790925594519590948416907f8be0079c531659141344cd1fd0a4f28419497f9722a3daafe3b4186f6b6457e09080a366071afd498d000060055560326006556028600755169060085416176008556122789081620001d98239f35b8351631e4fbdf760e01b815260048101869052602490fd5b60028652601f0160051c7f405787fa12a823e0f2b7631cc41b3ba8828b3321ca811111fa75cd3aa3bb5ace908101905b8181106200017e5750620000a1565b86815582016200016f565b634e487b7160e01b86526022600452602486fd5b90607f16906200008d565b634e487b7160e01b600052604160045260246000fd5b600080fd5b51906001600160a01b0382168203620001be5756fe6080604052600436101561001257600080fd5b60003560e01c8062fdd58e146101d657806301ffc9a7146101d1578063031fc540146101cc5780630e89341c146101c757806312e8e2c3146101c25780631b2ef1ca146101bd57806326232a2e146101b85780632eb2c2d6146101b3578063342e4cbf146101ae5780633924727d146101a957806349aeaf16146101a45780634e1273f41461019f57806363a862011461019a578063715018a614610195578063853828b6146101905780638a062ab71461018b5780638da5cb5b14610186578063900f58fc14610181578063a22cb4651461017c578063a2dfe7b514610177578063e6b1a3ae14610172578063e84dee6b1461016d578063e985e9c514610168578063f242432a14610163578063f246d4a91461015e578063f2fde38b14610159578063f844bb2a146101545763f8a774fd1461014f57600080fd5b61106f565b610ff8565b610f6a565b610f41565b610e23565b610dd2565b610d8a565b610d47565b610d26565b610c6a565b610c30565b610c07565b610be6565b610b7e565b610b1d565b610ac8565b610a0e565b6109ab565b61098d565b61096f565b610846565b61074f565b6105bc565b61059b565b6104fc565b610452565b61027f565b610220565b600435906001600160a01b03821682036101f157565b600080fd5b602435906001600160a01b03821682036101f157565b35906001600160a01b03821682036101f157565b346101f15760403660031901126101f157602061026461023e6101db565b6024356000526000835260406000209060018060a01b0316600052602052604060002090565b54604051908152f35b6001600160e01b03198116036101f157565b346101f15760203660031901126101f157602060043561029e8161026d565b63ffffffff60e01b16636cdb3d1360e11b81149081156102dc575b81156102cb575b506040519015158152f35b6301ffc9a760e01b149050386102c0565b6303a24d0760e21b811491506102b9565b90600182811c9216801561031d575b602083101461030757565b634e487b7160e01b600052602260045260246000fd5b91607f16916102fc565b634e487b7160e01b600052604160045260246000fd5b90601f8019910116810190811067ffffffffffffffff82111761035f57604052565b610327565b9060405191826000825492610378846102ed565b9081845260019485811690816000146103e757506001146103a4575b50506103a29250038361033d565b565b9093915060005260209081600020936000915b8183106103cf5750506103a293508201013880610394565b855488840185015294850194879450918301916103b7565b9150506103a294506020925060ff191682840152151560051b8201013880610394565b60005b83811061041d5750506000910152565b818101518382015260200161040d565b906020916104468151809281855285808601910161040a565b601f01601f1916010190565b346101f15760203660031901126101f15760043560005260096020526104c260406000206104e461048282610364565b9160018101549060048101549060058101546104ad600760018060a01b036006850154169301610364565b9260405197889760c0895260c089019061042d565b94602088015260408701526060860152608085015283820360a085015261042d565b0390f35b9060206104f992818152019061042d565b90565b346101f15760203660031901126101f15760085460048035600081815260096020526040808220600501549051631d1dfbe960e21b81529384019290925260248301919091529091829060449082906001600160a01b03165afa8015610596576104e491600091610575575b50604051918291826104e8565b610590913d8091833e610588818361033d565b8101906118af565b38610568565b6115d2565b346101f15760203660031901126101f1576105b46111b6565b600435600755005b60403660031901126101f157600435602435906005546105dc8382611c0e565b340361071d5750600182106106fd576105ff816000526009602052604060002090565b336000908152600282016020526040902090929061062790610623905b5460ff1690565b1590565b6106e05760006106a861069c61069c600684977f3a5398bda6f1f57d6c96834fa9bf02b5517bdc847d14312015a917ba421c31c961068b8799610675899a61066d6115de565b908333611c5c565b6040805191825233602083015290918291820190565b0390a101546001600160a01b031690565b6001600160a01b031690565b6106c66106bf6106b9600754611c21565b34611c0e565b6064900490565b908282156106d7575bf11561059657005b506108fc6106cf565b60405163f88c066b60e01b815260048101839052602490fd5b0390fd5b604051631d35f4cf60e31b81526000600482018190526024820152604490fd5b61072a836106f992611c0e565b604051631d35f4cf60e31b815234600482015260248101919091529081906044820190565b346101f15760003660031901126101f1576020600754604051908152f35b67ffffffffffffffff811161035f5760051b60200190565b81601f820112156101f15780359161079c8361076d565b926107aa604051948561033d565b808452602092838086019260051b8201019283116101f1578301905b8282106107d4575050505090565b813581529083019083016107c6565b67ffffffffffffffff811161035f57601f01601f191660200190565b81601f820112156101f157803590610816826107e3565b92610824604051948561033d565b828452602083830101116101f157816000926020809301838601378301015290565b346101f15760a03660031901126101f15761085f6101db565b6108676101f6565b906044359167ffffffffffffffff908184116101f15761088c60049436908601610785565b906064358381116101f1576108a49036908701610785565b926084359081116101f1576108bc90369087016107ff565b936001600160a01b0380821690338214158061094b575b61091e5783161561090657156108ef576108ed95506112fb565b005b604051626a0d4560e21b8152600081880152602490fd5b604051632bfa23e760e11b8152600081890152602490fd5b6040805163711bec9160e11b815233818b019081526001600160a01b038616602082015290918291010390fd5b50600082815260016020908152604080832033845290915290205460ff16156108d3565b346101f15760003660031901126101f1576020600654604051908152f35b346101f15760003660031901126101f1576020600454604051908152f35b346101f15760003660031901126101f1576020600554604051908152f35b90815180825260208080930193019160005b8281106109e9575050505090565b8351855293810193928101926001016109db565b9060206104f99281815201906109c9565b346101f15760403660031901126101f15760043567ffffffffffffffff8082116101f157366023830112156101f1578160040135610a4b8161076d565b92610a59604051948561033d565b81845260209160248386019160051b830101913683116101f157602401905b828210610ab157856024358681116101f1576104e491610a9f610aa5923690600401610785565b90611236565b604051918291826109fd565b838091610abd8461020c565b815201910190610a78565b346101f15760403660031901126101f157602060ff610b11610ae86101f6565b6004356000526009845260026040600020019060018060a01b0316600052602052604060002090565b54166040519015158152f35b346101f157600080600319360112610b7b57610b376111b6565b600380546001600160a01b0319811690915581906001600160a01b03167f8be0079c531659141344cd1fd0a4f28419497f9722a3daafe3b4186f6b6457e08280a380f35b80fd5b346101f157600080600319360112610b7b5747818080808460018060a01b0360035416828215610bdd575bf1156105965760207f3d5a341dc6a12221fcf31279cef3771f8fad757b2d9261f97605ccc17c25742491604051908152a180f35b506108fc610ba9565b346101f15760203660031901126101f157610bff6111b6565b600435600655005b346101f15760003660031901126101f1576003546040516001600160a01b039091168152602090f35b346101f15760203660031901126101f1576001600160a01b03610c516101db565b16600052600a6020526020604060002054604051908152f35b346101f15760403660031901126101f157610c836101db565b60243590811515908183036101f1576001600160a01b038116928315610d0e57610ccf610ce09233600052600160205260406000209060018060a01b0316600052602052604060002090565b9060ff801983541691151516179055565b6040519081527f17307eab39ab6107e8899845ad3d59bd9653f200f220920489ca2b5937696c3160203392a3005b60405162ced3e160e81b815260006004820152602490fd5b346101f15760203660031901126101f157610d3f6111b6565b600435600555005b346101f15760203660031901126101f157610d606101db565b610d686111b6565b600880546001600160a01b0319166001600160a01b0392909216919091179055005b346101f15760403660031901126101f15760243567ffffffffffffffff81116101f157610dc8610dc060209236906004016107ff565b600435611ace565b6040519015158152f35b346101f15760403660031901126101f157602060ff610b11610df26101db565b610dfa6101f6565b6001600160a01b0391821660009081526001865260408082209290931681526020919091522090565b346101f15760a03660031901126101f157610e3c6101db565b610e446101f6565b60843567ffffffffffffffff81116101f157610e649036906004016107ff565b906001600160a01b03838116903382141580610f1d575b610ef657821615610edd5715610ec5576108ed92610ebd6064356044359160405192600184526020840152604083019160018352606084015260808301604052565b9290916112fb565b604051626a0d4560e21b815260006004820152602490fd5b604051632bfa23e760e11b815260006004820152602490fd5b60405163711bec9160e11b81523360048201526001600160a01b0386166024820152604490fd5b50600082815260016020908152604080832033845290915290205460ff1615610e7b565b346101f15760003660031901126101f1576008546040516001600160a01b039091168152602090f35b346101f15760203660031901126101f157610f836101db565b610f8b6111b6565b6001600160a01b03908116908115610fdf57600354826bffffffffffffffffffffffff60a01b821617600355167f8be0079c531659141344cd1fd0a4f28419497f9722a3daafe3b4186f6b6457e0600080a3005b604051631e4fbdf760e01b815260006004820152602490fd5b346101f15760403660031901126101f157602060ff610b116110186101f6565b6004356000526009845260036040600020019060018060a01b0316600052602052604060002090565b9181601f840112156101f15782359167ffffffffffffffff83116101f157602083818601950101116101f157565b346101f15760803660031901126101f15767ffffffffffffffff600480358281116101f1576110a19036908301611041565b9160243590604435946064359081116101f1576110c19036908301611041565b9290918515611199578615611175578661117094939261116261115d847f3b225aacde4bd45cee181b834a54e02b46c031b9505b7f8a6179ca01cc2244a19b60058b6111258e99549961111e8b6000526009602052604060002090565b9283611994565b600181018790556006810180546001600160a01b031916331790556103e8818501556111558b8b60078401611994565b015554611519565b600455565b604051978897339489611a5c565b0390a1005b805460408051636316501d60e11b8152928301918252602082018990528291010390fd5b84906106f9876040519384936368cd81e760e01b8552840161192f565b6003546001600160a01b031633036111ca57565b60405163118cdaa760e01b8152336004820152602490fd5b634e487b7160e01b600052601160045260246000fd5b60001981146112075760010190565b6111e2565b80518210156112205760209160051b010190565b634e487b7160e01b600052603260045260246000fd5b919091805183518082036112d95750508051906112528261076d565b91611260604051938461033d565b80835261126f601f199161076d565b0190602091368385013760005b81518110156112d157600581901b8281018401519087018401516000908152602081815260408083206001600160a01b03909416835292905220546112cc91906112c6828761120c565b526111f8565b61127c565b509193505050565b604051635b05999160e01b815260048101919091526024810191909152604490fd5b9491909181518451908181036112d957505060005b825181101561142357600581901b83810160209081015191870101516001600160a01b03929186908a851661139c575b611353948216611358575b5050506111f8565b611310565b6113929161137361138a926000526000602052604060002090565b9060018060a01b0316600052602052604060002090565b918254611527565b905538858161134b565b91929390506113b98a611373846000526000602052604060002090565b548381106113ec5791879184611353969594036113e48d611373856000526000602052604060002090565b559450611340565b6040516303dee4c560e01b81526001600160a01b038c16600482015260248101919091526044810184905260648101839052608490fd5b5094919392909360018551146000146114ce576020858101518382015160408051928352928201526001600160a01b03838116929086169133917fc3d58168c5ae7397731d063d5bbf3d657854427343f4c083240f7aacaa2d0f6291a45b6001600160a01b038116611497575b5050505050565b84516001036114bd576020806114b3960151920151923361172c565b3880808080611490565b6114c994919233611878565b6114b3565b6040516001600160a01b03828116919085169033907f4a39dc06d4c0dbc64b70af90fd698a233a518aa5d07e595d983b8c0526c8f7fb9080611511888c83611534565b0390a4611481565b906001820180921161120757565b9190820180921161120757565b909161154b6104f9936040845260408401906109c9565b9160208184039101526109c9565b908160209103126101f157516104f98161026d565b909260a0926104f99594600180861b031683526000602084015260408301526060820152816080820152019061042d565b91926104f995949160a094600180871b03809216855216602084015260408301526060820152816080820152019061042d565b6040513d6000823e3d90fd5b604051906020820182811067ffffffffffffffff82111761035f5760405260008252565b3d1561162d573d90611613826107e3565b91611621604051938461033d565b82523d6000602084013e565b606090565b9293919093843b611644575050505050565b602091611667604051948593849363f23a6e6160e01b988986526004860161156e565b038160006001600160a01b0388165af1600091816116fc575b506116bf578261168e611602565b80519190826116b857604051632bfa23e760e11b81526001600160a01b0383166004820152602490fd5b9050602001fd5b6001600160e01b031916036116d957503880808080611490565b604051632bfa23e760e11b81526001600160a01b03919091166004820152602490fd5b61171e91925060203d8111611725575b611716818361033d565b810190611559565b9038611680565b503d61170c565b939290949194853b611741575b505050505050565b611764602093604051958694859463f23a6e6160e01b998a87526004870161159f565b038160006001600160a01b0388165af1600091816117a6575b5061178b578261168e611602565b6001600160e01b031916036116d95750388080808080611739565b6117bf91925060203d811161172557611716818361033d565b903861177d565b926117f56104f995936118039360018060a01b031686526000602087015260a0604087015260a08601906109c9565b9084820360608601526109c9565b91608081840391015261042d565b93906104f995936117f5916118039460018060a01b03809216885216602087015260a0604087015260a08601906109c9565b9293919093843b611855575050505050565b602091611667604051948593849363bc197c8160e01b98898652600486016117c6565b939290949194853b61188c57505050505050565b611764602093604051958694859463bc197c8160e01b998a875260048701611811565b6020818303126101f15780519067ffffffffffffffff82116101f1570181601f820112156101f15780516118e2816107e3565b926118f0604051948561033d565b818452602082840101116101f1576104f9916020808501910161040a565b908060209392818452848401376000828201840152601f01601f1916010190565b9160206104f993818152019161190e565b90601f811161194e57505050565b600091825260208220906020601f850160051c8301941061198a575b601f0160051c01915b82811061197f57505050565b818155600101611973565b909250829061196a565b90929167ffffffffffffffff811161035f576119ba816119b484546102ed565b84611940565b6000601f82116001146119f457819293946000926119e9575b50508160011b916000199060031b1c1916179055565b0135905038806119d3565b601f19821694611a0984600052602060002090565b91805b878110611a44575083600195969710611a2a575b505050811b019055565b0135600019600384901b60f8161c19169055388080611a20565b90926020600181928686013581550194019101611a0c565b939694916104f9989693611a7d92865260c0602087015260c086019161190e565b604084019690965260608301526001600160a01b0316608082015280840360a09091015261190e565b9081526001600160a01b0390911660208201526060604082018190526104f99291019061042d565b90600454821015611bf657611aed826000526009602052604060002090565b3360009081526003820160208190526040909120919291611b0d9061061c565b611bdd5733600090815260209190915260409020611b33905b805460ff19166001179055565b7f712c1b1ad89e8e16ccdc5cec4c1b22713e1d68a25e895b87e30db54bf197f7ce60405180611b6484338884611aa6565b0390a16001820154906020815191012014600014611bce573360009081526002909101602052604090207ff7c67880b72ec988961e570ae4e849eb4fd9d5ba0ab550624ac429ef6d41880c91611bc691611bbd90611b26565b61067581611ee1565b0390a1600190565b50611bd890611da2565b600090565b604051636ab2c49160e01b815260048101859052602490fd5b6040516255ac0b60e31b815260048101839052602490fd5b8181029291811591840414171561120757565b606403906064821161120757565b9190820391821161120757565b8115611c46570490565b634e487b7160e01b600052601260045260246000fd5b6001600160a01b03811693929091908415610edd57611c9860405192600184526020840152604083019160018352606084015260808301604052565b9281518451908181036112d957505060005b8251811015611cef5780611cea9160051b611ce361138a87611373602080868b010151958c010151946000526000602052604060002090565b90556111f8565b611caa565b509291936001825114600014611d665760208281015184820151604080519283529282015260009133917fc3d58168c5ae7397731d063d5bbf3d657854427343f4c083240f7aacaa2d0f629190a45b8051600103611d5c57906020806103a2959301519101519133611632565b6103a29333611843565b60006040517f4a39dc06d4c0dbc64b70af90fd698a233a518aa5d07e595d983b8c0526c8f7fb339180611d9a888883611534565b0390a4611d3e565b7fedf7d7629bae89d536e79c07544cf71dc20f2e5a6c44820bc95943ae5d392e8f906004611dda826000526009602052604060002090565b018054336000908152600a60205260409020606491611e059154908115611ebc575b60065491611fb2565b9190049015611e8d57336000908152600a60205260409020611e369190611e2d828254611c2f565b90558254611527565b81555b5460408051928352602083019190915290a1336000818152600a6020908152604091829020548251938452908301527f7c9d26a9c3f761e124a1b3f4aaf8fe9deeffa947fbdabd8b085dab884a2a04be91a1565b336000908152600a60205260409020611eb59190611eac828254611527565b90558254611c2f565b8155611e39565b336000908152600a602052604090206103e89250611edc905b6103e89055565b611dfc565b7fedf7d7629bae89d536e79c07544cf71dc20f2e5a6c44820bc95943ae5d392e8f906004611f19826000526009602052604060002090565b018054336000908152600a60205260409020606491611e059154908115611f44575b6006549161209e565b336000908152600a602052604090206103e89250611f6190611ed5565b611f3b565b15611f6d57565b60405162461bcd60e51b815260206004820152601b60248201527f526174696e6720646966666572656e636520746f6f206c6172676500000000006044820152606490fd5b6019918181109182156120965703905b80611fd06104668410611f66565b612084575b1561207b57610320035b04600a6001808316156120745781925b811c91825b612039575050509061271061201961201461201461201461202396612184565b612184565b6064019102611c3c565b80151590600082600014612035575091565b0391565b8060801c6101f157800291818116612055575b811c9182611ff4565b928281029083820403612069575b9261204c565b821561206357600080fd5b8092611fef565b61032001611fdf565b6120916103208310611f66565b611fd5565b900390611fc2565b60199181811091821561217c5703905b806120bc6104668410611f66565b61216a575b1561216157610320035b04600a60018083161561215a5781925b811c91825b61211f5750505061210a6120fe612014612014612014606495612184565b82016127108402611c3c565b910281811091821561211a570391565b900391565b8060801c6101f15780029181811661213b575b811c91826120e0565b92828102908382040361214f575b92612132565b821561214957600080fd5b80926120db565b610320016120cb565b6121776103208310611f66565b6120c1565b9003906120ae565b60b581600160881b81101561222b575b8069010000000000000000006201000092101561221e575b65010000000000811015612211575b6301000000811015612204575b010260121c60019080830401811c80830401811c80830401811c80830401811c80830401811c80830401811c80830401901c8080920410900390565b60101c9160081b916121c8565b60201c9160101b916121bb565b60401c9160201b916121ac565b5068b500000000000000009050608082901c61219456fea26469706673582212206e142b2074a817410800aeef874992575c4319373ef49a3d05d59dc3f9177e7a64736f6c63430008140033",
  "devdoc": {
    "errors": {
      "ERC1155InsufficientBalance(address,uint256,uint256,uint256)": [
        {
          "details": "Indicates an error related to the current `balance` of a `sender`. Used in transfers.",
          "params": {
            "balance": "Current balance for the interacting account.",
            "needed": "Minimum amount required to perform a transfer.",
            "sender": "Address whose tokens are being transferred.",
            "tokenId": "Identifier number of a token."
          }
        }
      ],
      "ERC1155InvalidApprover(address)": [
        {
          "details": "Indicates a failure with the `approver` of a token to be approved. Used in approvals.",
          "params": {
            "approver": "Address initiating an approval operation."
          }
        }
      ],
      "ERC1155InvalidArrayLength(uint256,uint256)": [
        {
          "details": "Indicates an array length mismatch between ids and values in a safeBatchTransferFrom operation. Used in batch transfers.",
          "params": {
            "idsLength": "Length of the array of token identifiers",
            "valuesLength": "Length of the array of token amounts"
          }
        }
      ],
      "ERC1155InvalidOperator(address)": [
        {
          "details": "Indicates a failure with the `operator` to be approved. Used in approvals.",
          "params": {
            "operator": "Address that may be allowed to operate on tokens without being their owner."
          }
        }
      ],
      "ERC1155InvalidReceiver(address)": [
        {
          "details": "Indicates a failure with the token `receiver`. Used in transfers.",
          "params": {
            "receiver": "Address to which tokens are being transferred."
          }
        }
      ],
      "ERC1155InvalidSender(address)": [
        {
          "details": "Indicates a failure with the token `sender`. Used in transfers.",
          "params": {
            "sender": "Address whose tokens are being transferred."
          }
        }
      ],
      "ERC1155MissingApprovalForAll(address,address)": [
        {
          "details": "Indicates a failure with the `operator`s approval. Used in transfers.",
          "params": {
            "operator": "Address that may be allowed to operate on tokens without being their owner.",
            "owner": "Address of the current owner of a token."
          }
        }
      ],
      "OwnableInvalidOwner(address)": [
        {
          "details": "The owner is not a valid owner account. (eg. `address(0)`)"
        }
      ],
      "OwnableUnauthorizedAccount(address)": [
        {
          "details": "The caller account is not authorized to perform an operation."
        }
      ]
    },
    "events": {
      "ApprovalForAll(address,address,bool)": {
        "details": "Emitted when `account` grants or revokes permission to `operator` to transfer their tokens, according to `approved`."
      },
      "TransferBatch(address,address,address,uint256[],uint256[])": {
        "details": "Equivalent to multiple {TransferSingle} events, where `operator`, `from` and `to` are the same for all transfers."
      },
      "TransferSingle(address,address,address,uint256,uint256)": {
        "details": "Emitted when `value` amount of tokens of type `id` are transferred from `from` to `to` by `operator`."
      },
      "URI(string,uint256)": {
        "details": "Emitted when the URI for token type `id` changes to `value`, if it is a non-programmatic URI. If an {URI} event was emitted for `id`, the standard https://eips.ethereum.org/EIPS/eip-1155#metadata-extensions[guarantees] that `value` will equal the value returned by {IERC1155MetadataURI-uri}."
      }
    },
    "kind": "dev",
    "methods": {
      "balanceOf(address,uint256)": {
        "details": "See {IERC1155-balanceOf}."
      },
      "balanceOfBatch(address[],uint256[])": {
        "details": "See {IERC1155-balanceOfBatch}. Requirements: - `accounts` and `ids` must have the same length."
      },
      "isApprovedForAll(address,address)": {
        "details": "See {IERC1155-isApprovedForAll}."
      },
      "owner()": {
        "details": "Returns the address of the current owner."
      },
      "renounceOwnership()": {
        "details": "Leaves the contract without owner. It will not be possible to call `onlyOwner` functions. Can only be called by the current owner. NOTE: Renouncing ownership will leave the contract without an owner, thereby disabling any functionality that is only available to the owner."
      },
      "safeBatchTransferFrom(address,address,uint256[],uint256[],bytes)": {
        "details": "See {IERC1155-safeBatchTransferFrom}."
      },
      "safeTransferFrom(address,address,uint256,uint256,bytes)": {
        "details": "See {IERC1155-safeTransferFrom}."
      },
      "setApprovalForAll(address,bool)": {
        "details": "See {IERC1155-setApprovalForAll}."
      },
      "supportsInterface(bytes4)": {
        "details": "See {IERC165-supportsInterface}."
      },
      "transferOwnership(address)": {
        "details": "Transfers ownership of the contract to a new account (`newOwner`). Can only be called by the current owner."
      }
    },
    "version": 1
  },
  "userdoc": {
    "kind": "user",
    "methods": {},
    "version": 1
  },
  "storageLayout": {
    "storage": [
      {
        "astId": 326,
        "contract": "contracts/DChess.sol:DChess",
        "label": "_balances",
        "offset": 0,
        "slot": "0",
        "type": "t_mapping(t_uint256,t_mapping(t_address,t_uint256))"
      },
      {
        "astId": 332,
        "contract": "contracts/DChess.sol:DChess",
        "label": "_operatorApprovals",
        "offset": 0,
        "slot": "1",
        "type": "t_mapping(t_address,t_mapping(t_address,t_bool))"
      },
      {
        "astId": 334,
        "contract": "contracts/DChess.sol:DChess",
        "label": "_uri",
        "offset": 0,
        "slot": "2",
        "type": "t_string_storage"
      },
      {
        "astId": 8,
        "contract": "contracts/DChess.sol:DChess",
        "label": "_owner",
        "offset": 0,
        "slot": "3",
        "type": "t_address"
      },
      {
        "astId": 4485,
        "contract": "contracts/DChess.sol:DChess",
        "label": "internalTokenCounter",
        "offset": 0,
        "slot": "4",
        "type": "t_uint256"
      },
      {
        "astId": 4487,
        "contract": "contracts/DChess.sol:DChess",
        "label": "tokenMintPrice",
        "offset": 0,
        "slot": "5",
        "type": "t_uint256"
      },
      {
        "astId": 4489,
        "contract": "contracts/DChess.sol:DChess",
        "label": "kFactor",
        "offset": 0,
        "slot": "6",
        "type": "t_uint256"
      },
      {
        "astId": 4491,
        "contract": "contracts/DChess.sol:DChess",
        "label": "platformFee",
        "offset": 0,
        "slot": "7",
        "type": "t_uint256"
      },
      {
        "astId": 4493,
        "contract": "contracts/DChess.sol:DChess",
        "label": "artAddr",
        "offset": 0,
        "slot": "8",
        "type": "t_address"
      },
      {
        "astId": 4519,
        "contract": "contracts/DChess.sol:DChess",
        "label": "puzzlesById",
        "offset": 0,
        "slot": "9",
        "type": "t_mapping(t_uint256,t_struct(Puzzle)4514_storage)"
      },
      {
        "astId": 4523,
        "contract": "contracts/DChess.sol:DChess",
        "label": "userRatings",
        "offset": 0,
        "slot": "10",
        "type": "t_mapping(t_address,t_uint256)"
      }
    ],
    "types": {
      "t_address": {
        "encoding": "inplace",
        "label": "address",
        "numberOfBytes": "20"
      },
      "t_bool": {
        "encoding": "inplace",
        "label": "bool",
        "numberOfBytes": "1"
      },
      "t_bytes32": {
        "encoding": "inplace",
        "label": "bytes32",
        "numberOfBytes": "32"
      },
      "t_mapping(t_address,t_bool)": {
        "encoding": "mapping",
        "key": "t_address",
        "label": "mapping(address => bool)",
        "numberOfBytes": "32",
        "value": "t_bool"
      },
      "t_mapping(t_address,t_mapping(t_address,t_bool))": {
        "encoding": "mapping",
        "key": "t_address",
        "label": "mapping(address => mapping(address => bool))",
        "numberOfBytes": "32",
        "value": "t_mapping(t_address,t_bool)"
      },
      "t_mapping(t_address,t_uint256)": {
        "encoding": "mapping",
        "key": "t_address",
        "label": "mapping(address => uint256)",
        "numberOfBytes": "32",
        "value": "t_uint256"
      },
      "t_mapping(t_uint256,t_mapping(t_address,t_uint256))": {
        "encoding": "mapping",
        "key": "t_uint256",
        "label": "mapping(uint256 => mapping(address => uint256))",
        "numberOfBytes": "32",
        "value": "t_mapping(t_address,t_uint256)"
      },
      "t_mapping(t_uint256,t_struct(Puzzle)4514_storage)": {
        "encoding": "mapping",
        "key": "t_uint256",
        "label": "mapping(uint256 => struct DChess.Puzzle)",
        "numberOfBytes": "32",
        "value": "t_struct(Puzzle)4514_storage"
      },
      "t_string_storage": {
        "encoding": "bytes",
        "label": "string",
        "numberOfBytes": "32"
      },
      "t_struct(Puzzle)4514_storage": {
        "encoding": "inplace",
        "label": "struct DChess.Puzzle",
        "members": [
          {
            "astId": 4495,
            "contract": "contracts/DChess.sol:DChess",
            "label": "fen",
            "offset": 0,
            "slot": "0",
            "type": "t_string_storage"
          },
          {
            "astId": 4497,
            "contract": "contracts/DChess.sol:DChess",
            "label": "solution",
            "offset": 0,
            "slot": "1",
            "type": "t_bytes32"
          },
          {
            "astId": 4501,
            "contract": "contracts/DChess.sol:DChess",
            "label": "userHasSolved",
            "offset": 0,
            "slot": "2",
            "type": "t_mapping(t_address,t_bool)"
          },
          {
            "astId": 4505,
            "contract": "contracts/DChess.sol:DChess",
            "label": "userHasAttempted",
            "offset": 0,
            "slot": "3",
            "type": "t_mapping(t_address,t_bool)"
          },
          {
            "astId": 4507,
            "contract": "contracts/DChess.sol:DChess",
            "label": "rating",
            "offset": 0,
            "slot": "4",
            "type": "t_uint256"
          },
          {
            "astId": 4509,
            "contract": "contracts/DChess.sol:DChess",
            "label": "metadata",
            "offset": 0,
            "slot": "5",
            "type": "t_uint256"
          },
          {
            "astId": 4511,
            "contract": "contracts/DChess.sol:DChess",
            "label": "creator",
            "offset": 0,
            "slot": "6",
            "type": "t_address"
          },
          {
            "astId": 4513,
            "contract": "contracts/DChess.sol:DChess",
            "label": "description",
            "offset": 0,
            "slot": "7",
            "type": "t_string_storage"
          }
        ],
        "numberOfBytes": "256"
      },
      "t_uint256": {
        "encoding": "inplace",
        "label": "uint256",
        "numberOfBytes": "32"
      }
    }
  }
}